{"abi":[{"inputs":[{"internalType":"uint256","name":"minimum","type":"uint256"}],"name":"createCompaign","outputs":[],"stateMutability":"nonpayable","type":"function"},{"inputs":[{"internalType":"uint256","name":"","type":"uint256"}],"name":"deployedCompaign","outputs":[{"internalType":"address","name":"","type":"address"}],"stateMutability":"view","type":"function"},{"inputs":[],"name":"getDeployedCompaign","outputs":[{"internalType":"address[]","name":"","type":"address[]"}],"stateMutability":"view","type":"function"}],"devdoc":{"kind":"dev","methods":{},"version":1},"evm":{"assembly":"    /* \"contractFileName\":58:411  contract CompaignFactory{... */\n  mstore(0x40, 0x80)\n  callvalue\n  dup1\n  iszero\n  tag_1\n  jumpi\n  0x00\n  dup1\n  revert\ntag_1:\n  pop\n  dataSize(sub_0)\n  dup1\n  dataOffset(sub_0)\n  0x00\n  codecopy\n  0x00\n  return\nstop\n\nsub_0: assembly {\n        /* \"contractFileName\":58:411  contract CompaignFactory{... */\n      mstore(0x40, 0x80)\n      callvalue\n      dup1\n      iszero\n      tag_1\n      jumpi\n      0x00\n      dup1\n      revert\n    tag_1:\n      pop\n      jumpi(tag_2, lt(calldatasize, 0x04))\n      shr(0xe0, calldataload(0x00))\n      dup1\n      0x1104f603\n      eq\n      tag_3\n      jumpi\n      dup1\n      0x5faa865d\n      eq\n      tag_4\n      jumpi\n      dup1\n      0xd37b127b\n      eq\n      tag_5\n      jumpi\n    tag_2:\n      0x00\n      dup1\n      revert\n        /* \"contractFileName\":88:121  address[] public deployedCompaign */\n    tag_3:\n      tag_6\n      0x04\n      dup1\n      calldatasize\n      sub\n      dup2\n      add\n      swap1\n      tag_7\n      swap2\n      swap1\n      tag_8\n      jump\t// in\n    tag_7:\n      tag_9\n      jump\t// in\n    tag_6:\n      mload(0x40)\n      tag_10\n      swap2\n      swap1\n      tag_11\n      jump\t// in\n    tag_10:\n      mload(0x40)\n      dup1\n      swap2\n      sub\n      swap1\n      return\n        /* \"contractFileName\":300:409  function getDeployedCompaign() public view returns (address[] memory){... */\n    tag_4:\n      tag_12\n      tag_13\n      jump\t// in\n    tag_12:\n      mload(0x40)\n      tag_14\n      swap2\n      swap1\n      tag_15\n      jump\t// in\n    tag_14:\n      mload(0x40)\n      dup1\n      swap2\n      sub\n      swap1\n      return\n        /* \"contractFileName\":128:294  function createCompaign(uint minimum) public {... */\n    tag_5:\n      tag_16\n      0x04\n      dup1\n      calldatasize\n      sub\n      dup2\n      add\n      swap1\n      tag_17\n      swap2\n      swap1\n      tag_8\n      jump\t// in\n    tag_17:\n      tag_18\n      jump\t// in\n    tag_16:\n      stop\n        /* \"contractFileName\":88:121  address[] public deployedCompaign */\n    tag_9:\n      0x00\n      dup2\n      dup2\n      sload\n      dup2\n      lt\n      tag_19\n      jumpi\n      0x00\n      dup1\n      revert\n    tag_19:\n      swap1\n      0x00\n      mstore\n      keccak256(0x00, 0x20)\n      add\n      0x00\n      swap2\n      pop\n      sload\n      swap1\n      0x0100\n      exp\n      swap1\n      div\n      0xffffffffffffffffffffffffffffffffffffffff\n      and\n      dup2\n      jump\t// out\n        /* \"contractFileName\":300:409  function getDeployedCompaign() public view returns (address[] memory){... */\n    tag_13:\n        /* \"contractFileName\":352:368  address[] memory */\n      0x60\n        /* \"contractFileName\":386:402  deployedCompaign */\n      0x00\n        /* \"contractFileName\":379:402  return deployedCompaign */\n      dup1\n      sload\n      dup1\n      0x20\n      mul\n      0x20\n      add\n      mload(0x40)\n      swap1\n      dup2\n      add\n      0x40\n      mstore\n      dup1\n      swap3\n      swap2\n      swap1\n      dup2\n      dup2\n      mstore\n      0x20\n      add\n      dup3\n      dup1\n      sload\n      dup1\n      iszero\n      tag_22\n      jumpi\n      0x20\n      mul\n      dup3\n      add\n      swap2\n      swap1\n      0x00\n      mstore\n      keccak256(0x00, 0x20)\n      swap1\n    tag_23:\n      dup2\n      0x00\n      swap1\n      sload\n      swap1\n      0x0100\n      exp\n      swap1\n      div\n      0xffffffffffffffffffffffffffffffffffffffff\n      and\n      0xffffffffffffffffffffffffffffffffffffffff\n      and\n      dup2\n      mstore\n      0x20\n      add\n      swap1\n      0x01\n      add\n      swap1\n      dup1\n      dup4\n      gt\n      tag_23\n      jumpi\n    tag_22:\n      pop\n      pop\n      pop\n      pop\n      pop\n      swap1\n      pop\n        /* \"contractFileName\":300:409  function getDeployedCompaign() public view returns (address[] memory){... */\n      swap1\n      jump\t// out\n        /* \"contractFileName\":128:294  function createCompaign(uint minimum) public {... */\n    tag_18:\n        /* \"contractFileName\":183:200  Compaign compaign */\n      0x00\n        /* \"contractFileName\":216:223  minimum */\n      dup2\n        /* \"contractFileName\":225:235  msg.sender */\n      caller\n        /* \"contractFileName\":203:236  new Compaign(minimum, msg.sender) */\n      mload(0x40)\n      tag_25\n      swap1\n      tag_26\n      jump\t// in\n    tag_25:\n      tag_27\n      swap3\n      swap2\n      swap1\n      tag_28\n      jump\t// in\n    tag_27:\n      mload(0x40)\n      dup1\n      swap2\n      sub\n      swap1\n      0x00\n      create\n      dup1\n      iszero\n      dup1\n      iszero\n      tag_29\n      jumpi\n      returndatasize\n      0x00\n      dup1\n      returndatacopy\n      revert(0x00, returndatasize)\n    tag_29:\n      pop\n        /* \"contractFileName\":183:236  Compaign compaign = new Compaign(minimum, msg.sender) */\n      swap1\n      pop\n        /* \"contractFileName\":246:262  deployedCompaign */\n      0x00\n        /* \"contractFileName\":276:284  compaign */\n      dup2\n        /* \"contractFileName\":246:286  deployedCompaign.push(address(compaign)) */\n      swap1\n      dup1\n      0x01\n      dup2\n      sload\n      add\n      dup1\n      dup3\n      sstore\n      dup1\n      swap2\n      pop\n      pop\n      0x01\n      swap1\n      sub\n      swap1\n      0x00\n      mstore\n      keccak256(0x00, 0x20)\n      add\n      0x00\n      swap1\n      swap2\n      swap1\n      swap2\n      swap1\n      swap2\n      0x0100\n      exp\n      dup2\n      sload\n      dup2\n      0xffffffffffffffffffffffffffffffffffffffff\n      mul\n      not\n      and\n      swap1\n      dup4\n      0xffffffffffffffffffffffffffffffffffffffff\n      and\n      mul\n      or\n      swap1\n      sstore\n      pop\n        /* \"contractFileName\":173:294  {... */\n      pop\n        /* \"contractFileName\":128:294  function createCompaign(uint minimum) public {... */\n      pop\n      jump\t// out\n    tag_26:\n      dataSize(sub_0)\n      dup1\n      dataOffset(sub_0)\n      dup4\n      codecopy\n      add\n      swap1\n      jump\t// out\n        /* \"#utility.yul\":88:205   */\n    tag_32:\n        /* \"#utility.yul\":197:198   */\n      0x00\n        /* \"#utility.yul\":194:195   */\n      dup1\n        /* \"#utility.yul\":187:199   */\n      revert\n        /* \"#utility.yul\":334:411   */\n    tag_34:\n        /* \"#utility.yul\":371:378   */\n      0x00\n        /* \"#utility.yul\":400:405   */\n      dup2\n        /* \"#utility.yul\":389:405   */\n      swap1\n      pop\n        /* \"#utility.yul\":334:411   */\n      swap2\n      swap1\n      pop\n      jump\t// out\n        /* \"#utility.yul\":417:539   */\n    tag_35:\n        /* \"#utility.yul\":490:514   */\n      tag_54\n        /* \"#utility.yul\":508:513   */\n      dup2\n        /* \"#utility.yul\":490:514   */\n      tag_34\n      jump\t// in\n    tag_54:\n        /* \"#utility.yul\":483:488   */\n      dup2\n        /* \"#utility.yul\":480:515   */\n      eq\n        /* \"#utility.yul\":470:533   */\n      tag_55\n      jumpi\n        /* \"#utility.yul\":529:530   */\n      0x00\n        /* \"#utility.yul\":526:527   */\n      dup1\n        /* \"#utility.yul\":519:531   */\n      revert\n        /* \"#utility.yul\":470:533   */\n    tag_55:\n        /* \"#utility.yul\":417:539   */\n      pop\n      jump\t// out\n        /* \"#utility.yul\":545:684   */\n    tag_36:\n        /* \"#utility.yul\":591:596   */\n      0x00\n        /* \"#utility.yul\":629:635   */\n      dup2\n        /* \"#utility.yul\":616:636   */\n      calldataload\n        /* \"#utility.yul\":607:636   */\n      swap1\n      pop\n        /* \"#utility.yul\":645:678   */\n      tag_57\n        /* \"#utility.yul\":672:677   */\n      dup2\n        /* \"#utility.yul\":645:678   */\n      tag_35\n      jump\t// in\n    tag_57:\n        /* \"#utility.yul\":545:684   */\n      swap3\n      swap2\n      pop\n      pop\n      jump\t// out\n        /* \"#utility.yul\":690:1019   */\n    tag_8:\n        /* \"#utility.yul\":749:755   */\n      0x00\n        /* \"#utility.yul\":798:800   */\n      0x20\n        /* \"#utility.yul\":786:795   */\n      dup3\n        /* \"#utility.yul\":777:784   */\n      dup5\n        /* \"#utility.yul\":773:796   */\n      sub\n        /* \"#utility.yul\":769:801   */\n      slt\n        /* \"#utility.yul\":766:885   */\n      iszero\n      tag_59\n      jumpi\n        /* \"#utility.yul\":804:883   */\n      tag_60\n      tag_32\n      jump\t// in\n    tag_60:\n        /* \"#utility.yul\":766:885   */\n    tag_59:\n        /* \"#utility.yul\":924:925   */\n      0x00\n        /* \"#utility.yul\":949:1002   */\n      tag_61\n        /* \"#utility.yul\":994:1001   */\n      dup5\n        /* \"#utility.yul\":985:991   */\n      dup3\n        /* \"#utility.yul\":974:983   */\n      dup6\n        /* \"#utility.yul\":970:992   */\n      add\n        /* \"#utility.yul\":949:1002   */\n      tag_36\n      jump\t// in\n    tag_61:\n        /* \"#utility.yul\":939:1002   */\n      swap2\n      pop\n        /* \"#utility.yul\":895:1012   */\n      pop\n        /* \"#utility.yul\":690:1019   */\n      swap3\n      swap2\n      pop\n      pop\n      jump\t// out\n        /* \"#utility.yul\":1025:1151   */\n    tag_37:\n        /* \"#utility.yul\":1062:1069   */\n      0x00\n        /* \"#utility.yul\":1102:1144   */\n      0xffffffffffffffffffffffffffffffffffffffff\n        /* \"#utility.yul\":1095:1100   */\n      dup3\n        /* \"#utility.yul\":1091:1145   */\n      and\n        /* \"#utility.yul\":1080:1145   */\n      swap1\n      pop\n        /* \"#utility.yul\":1025:1151   */\n      swap2\n      swap1\n      pop\n      jump\t// out\n        /* \"#utility.yul\":1157:1253   */\n    tag_38:\n        /* \"#utility.yul\":1194:1201   */\n      0x00\n        /* \"#utility.yul\":1223:1247   */\n      tag_64\n        /* \"#utility.yul\":1241:1246   */\n      dup3\n        /* \"#utility.yul\":1223:1247   */\n      tag_37\n      jump\t// in\n    tag_64:\n        /* \"#utility.yul\":1212:1247   */\n      swap1\n      pop\n        /* \"#utility.yul\":1157:1253   */\n      swap2\n      swap1\n      pop\n      jump\t// out\n        /* \"#utility.yul\":1259:1377   */\n    tag_39:\n        /* \"#utility.yul\":1346:1370   */\n      tag_66\n        /* \"#utility.yul\":1364:1369   */\n      dup2\n        /* \"#utility.yul\":1346:1370   */\n      tag_38\n      jump\t// in\n    tag_66:\n        /* \"#utility.yul\":1341:1344   */\n      dup3\n        /* \"#utility.yul\":1334:1371   */\n      mstore\n        /* \"#utility.yul\":1259:1377   */\n      pop\n      pop\n      jump\t// out\n        /* \"#utility.yul\":1383:1605   */\n    tag_11:\n        /* \"#utility.yul\":1476:1480   */\n      0x00\n        /* \"#utility.yul\":1514:1516   */\n      0x20\n        /* \"#utility.yul\":1503:1512   */\n      dup3\n        /* \"#utility.yul\":1499:1517   */\n      add\n        /* \"#utility.yul\":1491:1517   */\n      swap1\n      pop\n        /* \"#utility.yul\":1527:1598   */\n      tag_68\n        /* \"#utility.yul\":1595:1596   */\n      0x00\n        /* \"#utility.yul\":1584:1593   */\n      dup4\n        /* \"#utility.yul\":1580:1597   */\n      add\n        /* \"#utility.yul\":1571:1577   */\n      dup5\n        /* \"#utility.yul\":1527:1598   */\n      tag_39\n      jump\t// in\n    tag_68:\n        /* \"#utility.yul\":1383:1605   */\n      swap3\n      swap2\n      pop\n      pop\n      jump\t// out\n        /* \"#utility.yul\":1611:1725   */\n    tag_40:\n        /* \"#utility.yul\":1678:1684   */\n      0x00\n        /* \"#utility.yul\":1712:1717   */\n      dup2\n        /* \"#utility.yul\":1706:1718   */\n      mload\n        /* \"#utility.yul\":1696:1718   */\n      swap1\n      pop\n        /* \"#utility.yul\":1611:1725   */\n      swap2\n      swap1\n      pop\n      jump\t// out\n        /* \"#utility.yul\":1731:1915   */\n    tag_41:\n        /* \"#utility.yul\":1830:1841   */\n      0x00\n        /* \"#utility.yul\":1864:1870   */\n      dup3\n        /* \"#utility.yul\":1859:1862   */\n      dup3\n        /* \"#utility.yul\":1852:1871   */\n      mstore\n        /* \"#utility.yul\":1904:1908   */\n      0x20\n        /* \"#utility.yul\":1899:1902   */\n      dup3\n        /* \"#utility.yul\":1895:1909   */\n      add\n        /* \"#utility.yul\":1880:1909   */\n      swap1\n      pop\n        /* \"#utility.yul\":1731:1915   */\n      swap3\n      swap2\n      pop\n      pop\n      jump\t// out\n        /* \"#utility.yul\":1921:2053   */\n    tag_42:\n        /* \"#utility.yul\":1988:1992   */\n      0x00\n        /* \"#utility.yul\":2011:2014   */\n      dup2\n        /* \"#utility.yul\":2003:2014   */\n      swap1\n      pop\n        /* \"#utility.yul\":2041:2045   */\n      0x20\n        /* \"#utility.yul\":2036:2039   */\n      dup3\n        /* \"#utility.yul\":2032:2046   */\n      add\n        /* \"#utility.yul\":2024:2046   */\n      swap1\n      pop\n        /* \"#utility.yul\":1921:2053   */\n      swap2\n      swap1\n      pop\n      jump\t// out\n        /* \"#utility.yul\":2059:2167   */\n    tag_43:\n        /* \"#utility.yul\":2136:2160   */\n      tag_73\n        /* \"#utility.yul\":2154:2159   */\n      dup2\n        /* \"#utility.yul\":2136:2160   */\n      tag_38\n      jump\t// in\n    tag_73:\n        /* \"#utility.yul\":2131:2134   */\n      dup3\n        /* \"#utility.yul\":2124:2161   */\n      mstore\n        /* \"#utility.yul\":2059:2167   */\n      pop\n      pop\n      jump\t// out\n        /* \"#utility.yul\":2173:2352   */\n    tag_44:\n        /* \"#utility.yul\":2242:2252   */\n      0x00\n        /* \"#utility.yul\":2263:2309   */\n      tag_75\n        /* \"#utility.yul\":2305:2308   */\n      dup4\n        /* \"#utility.yul\":2297:2303   */\n      dup4\n        /* \"#utility.yul\":2263:2309   */\n      tag_43\n      jump\t// in\n    tag_75:\n        /* \"#utility.yul\":2341:2345   */\n      0x20\n        /* \"#utility.yul\":2336:2339   */\n      dup4\n        /* \"#utility.yul\":2332:2346   */\n      add\n        /* \"#utility.yul\":2318:2346   */\n      swap1\n      pop\n        /* \"#utility.yul\":2173:2352   */\n      swap3\n      swap2\n      pop\n      pop\n      jump\t// out\n        /* \"#utility.yul\":2358:2471   */\n    tag_45:\n        /* \"#utility.yul\":2428:2432   */\n      0x00\n        /* \"#utility.yul\":2460:2464   */\n      0x20\n        /* \"#utility.yul\":2455:2458   */\n      dup3\n        /* \"#utility.yul\":2451:2465   */\n      add\n        /* \"#utility.yul\":2443:2465   */\n      swap1\n      pop\n        /* \"#utility.yul\":2358:2471   */\n      swap2\n      swap1\n      pop\n      jump\t// out\n        /* \"#utility.yul\":2507:3239   */\n    tag_46:\n        /* \"#utility.yul\":2626:2629   */\n      0x00\n        /* \"#utility.yul\":2655:2709   */\n      tag_78\n        /* \"#utility.yul\":2703:2708   */\n      dup3\n        /* \"#utility.yul\":2655:2709   */\n      tag_40\n      jump\t// in\n    tag_78:\n        /* \"#utility.yul\":2725:2811   */\n      tag_79\n        /* \"#utility.yul\":2804:2810   */\n      dup2\n        /* \"#utility.yul\":2799:2802   */\n      dup6\n        /* \"#utility.yul\":2725:2811   */\n      tag_41\n      jump\t// in\n    tag_79:\n        /* \"#utility.yul\":2718:2811   */\n      swap4\n      pop\n        /* \"#utility.yul\":2835:2891   */\n      tag_80\n        /* \"#utility.yul\":2885:2890   */\n      dup4\n        /* \"#utility.yul\":2835:2891   */\n      tag_42\n      jump\t// in\n    tag_80:\n        /* \"#utility.yul\":2914:2921   */\n      dup1\n        /* \"#utility.yul\":2945:2946   */\n      0x00\n        /* \"#utility.yul\":2930:3214   */\n    tag_81:\n        /* \"#utility.yul\":2955:2961   */\n      dup4\n        /* \"#utility.yul\":2952:2953   */\n      dup2\n        /* \"#utility.yul\":2949:2962   */\n      lt\n        /* \"#utility.yul\":2930:3214   */\n      iszero\n      tag_83\n      jumpi\n        /* \"#utility.yul\":3031:3037   */\n      dup2\n        /* \"#utility.yul\":3025:3038   */\n      mload\n        /* \"#utility.yul\":3058:3121   */\n      tag_84\n        /* \"#utility.yul\":3117:3120   */\n      dup9\n        /* \"#utility.yul\":3102:3115   */\n      dup3\n        /* \"#utility.yul\":3058:3121   */\n      tag_44\n      jump\t// in\n    tag_84:\n        /* \"#utility.yul\":3051:3121   */\n      swap8\n      pop\n        /* \"#utility.yul\":3144:3204   */\n      tag_85\n        /* \"#utility.yul\":3197:3203   */\n      dup4\n        /* \"#utility.yul\":3144:3204   */\n      tag_45\n      jump\t// in\n    tag_85:\n        /* \"#utility.yul\":3134:3204   */\n      swap3\n      pop\n        /* \"#utility.yul\":2990:3214   */\n      pop\n        /* \"#utility.yul\":2977:2978   */\n      0x01\n        /* \"#utility.yul\":2974:2975   */\n      dup2\n        /* \"#utility.yul\":2970:2979   */\n      add\n        /* \"#utility.yul\":2965:2979   */\n      swap1\n      pop\n        /* \"#utility.yul\":2930:3214   */\n      jump(tag_81)\n    tag_83:\n        /* \"#utility.yul\":2934:2948   */\n      pop\n        /* \"#utility.yul\":3230:3233   */\n      dup6\n        /* \"#utility.yul\":3223:3233   */\n      swap4\n      pop\n        /* \"#utility.yul\":2631:3239   */\n      pop\n      pop\n      pop\n        /* \"#utility.yul\":2507:3239   */\n      swap3\n      swap2\n      pop\n      pop\n      jump\t// out\n        /* \"#utility.yul\":3245:3618   */\n    tag_15:\n        /* \"#utility.yul\":3388:3392   */\n      0x00\n        /* \"#utility.yul\":3426:3428   */\n      0x20\n        /* \"#utility.yul\":3415:3424   */\n      dup3\n        /* \"#utility.yul\":3411:3429   */\n      add\n        /* \"#utility.yul\":3403:3429   */\n      swap1\n      pop\n        /* \"#utility.yul\":3475:3484   */\n      dup2\n        /* \"#utility.yul\":3469:3473   */\n      dup2\n        /* \"#utility.yul\":3465:3485   */\n      sub\n        /* \"#utility.yul\":3461:3462   */\n      0x00\n        /* \"#utility.yul\":3450:3459   */\n      dup4\n        /* \"#utility.yul\":3446:3463   */\n      add\n        /* \"#utility.yul\":3439:3486   */\n      mstore\n        /* \"#utility.yul\":3503:3611   */\n      tag_87\n        /* \"#utility.yul\":3606:3610   */\n      dup2\n        /* \"#utility.yul\":3597:3603   */\n      dup5\n        /* \"#utility.yul\":3503:3611   */\n      tag_46\n      jump\t// in\n    tag_87:\n        /* \"#utility.yul\":3495:3611   */\n      swap1\n      pop\n        /* \"#utility.yul\":3245:3618   */\n      swap3\n      swap2\n      pop\n      pop\n      jump\t// out\n        /* \"#utility.yul\":3624:3742   */\n    tag_47:\n        /* \"#utility.yul\":3711:3735   */\n      tag_89\n        /* \"#utility.yul\":3729:3734   */\n      dup2\n        /* \"#utility.yul\":3711:3735   */\n      tag_34\n      jump\t// in\n    tag_89:\n        /* \"#utility.yul\":3706:3709   */\n      dup3\n        /* \"#utility.yul\":3699:3736   */\n      mstore\n        /* \"#utility.yul\":3624:3742   */\n      pop\n      pop\n      jump\t// out\n        /* \"#utility.yul\":3748:4080   */\n    tag_28:\n        /* \"#utility.yul\":3869:3873   */\n      0x00\n        /* \"#utility.yul\":3907:3909   */\n      0x40\n        /* \"#utility.yul\":3896:3905   */\n      dup3\n        /* \"#utility.yul\":3892:3910   */\n      add\n        /* \"#utility.yul\":3884:3910   */\n      swap1\n      pop\n        /* \"#utility.yul\":3920:3991   */\n      tag_91\n        /* \"#utility.yul\":3988:3989   */\n      0x00\n        /* \"#utility.yul\":3977:3986   */\n      dup4\n        /* \"#utility.yul\":3973:3990   */\n      add\n        /* \"#utility.yul\":3964:3970   */\n      dup6\n        /* \"#utility.yul\":3920:3991   */\n      tag_47\n      jump\t// in\n    tag_91:\n        /* \"#utility.yul\":4001:4073   */\n      tag_92\n        /* \"#utility.yul\":4069:4071   */\n      0x20\n        /* \"#utility.yul\":4058:4067   */\n      dup4\n        /* \"#utility.yul\":4054:4072   */\n      add\n        /* \"#utility.yul\":4045:4051   */\n      dup5\n        /* \"#utility.yul\":4001:4073   */\n      tag_39\n      jump\t// in\n    tag_92:\n        /* \"#utility.yul\":3748:4080   */\n      swap4\n      swap3\n      pop\n      pop\n      pop\n      jump\t// out\n    stop\n\n    sub_0: assembly {\n            /* \"contractFileName\":414:2249  contract Compaign{... */\n          mstore(0x40, 0x80)\n            /* \"contractFileName\":943:1058  constructor(uint minimum, address creator){... */\n          callvalue\n          dup1\n          iszero\n          tag_1\n          jumpi\n          0x00\n          dup1\n          revert\n        tag_1:\n          pop\n          mload(0x40)\n          sub(codesize, bytecodeSize)\n          dup1\n          bytecodeSize\n          dup4\n          codecopy\n          dup2\n          dup2\n          add\n          0x40\n          mstore\n          dup2\n          add\n          swap1\n          tag_2\n          swap2\n          swap1\n          tag_3\n          jump\t// in\n        tag_2:\n            /* \"contractFileName\":1005:1012  creator */\n          dup1\n            /* \"contractFileName\":995:1002  manager */\n          0x02\n          0x00\n            /* \"contractFileName\":995:1012  manager = creator */\n          0x0100\n          exp\n          dup2\n          sload\n          dup2\n          0xffffffffffffffffffffffffffffffffffffffff\n          mul\n          not\n          and\n          swap1\n          dup4\n          0xffffffffffffffffffffffffffffffffffffffff\n          and\n          mul\n          or\n          swap1\n          sstore\n          pop\n            /* \"contractFileName\":1044:1051  minimum */\n          dup2\n            /* \"contractFileName\":1022:1041  minimumContribution */\n          0x03\n            /* \"contractFileName\":1022:1051  minimumContribution = minimum */\n          dup2\n          swap1\n          sstore\n          pop\n            /* \"contractFileName\":943:1058  constructor(uint minimum, address creator){... */\n          pop\n          pop\n            /* \"contractFileName\":414:2249  contract Compaign{... */\n          jump(tag_6)\n            /* \"#utility.yul\":88:205   */\n        tag_8:\n            /* \"#utility.yul\":197:198   */\n          0x00\n            /* \"#utility.yul\":194:195   */\n          dup1\n            /* \"#utility.yul\":187:199   */\n          revert\n            /* \"#utility.yul\":334:411   */\n        tag_10:\n            /* \"#utility.yul\":371:378   */\n          0x00\n            /* \"#utility.yul\":400:405   */\n          dup2\n            /* \"#utility.yul\":389:405   */\n          swap1\n          pop\n            /* \"#utility.yul\":334:411   */\n          swap2\n          swap1\n          pop\n          jump\t// out\n            /* \"#utility.yul\":417:539   */\n        tag_11:\n            /* \"#utility.yul\":490:514   */\n          tag_23\n            /* \"#utility.yul\":508:513   */\n          dup2\n            /* \"#utility.yul\":490:514   */\n          tag_10\n          jump\t// in\n        tag_23:\n            /* \"#utility.yul\":483:488   */\n          dup2\n            /* \"#utility.yul\":480:515   */\n          eq\n            /* \"#utility.yul\":470:533   */\n          tag_24\n          jumpi\n            /* \"#utility.yul\":529:530   */\n          0x00\n            /* \"#utility.yul\":526:527   */\n          dup1\n            /* \"#utility.yul\":519:531   */\n          revert\n            /* \"#utility.yul\":470:533   */\n        tag_24:\n            /* \"#utility.yul\":417:539   */\n          pop\n          jump\t// out\n            /* \"#utility.yul\":545:688   */\n        tag_12:\n            /* \"#utility.yul\":602:607   */\n          0x00\n            /* \"#utility.yul\":633:639   */\n          dup2\n            /* \"#utility.yul\":627:640   */\n          mload\n            /* \"#utility.yul\":618:640   */\n          swap1\n          pop\n            /* \"#utility.yul\":649:682   */\n          tag_26\n            /* \"#utility.yul\":676:681   */\n          dup2\n            /* \"#utility.yul\":649:682   */\n          tag_11\n          jump\t// in\n        tag_26:\n            /* \"#utility.yul\":545:688   */\n          swap3\n          swap2\n          pop\n          pop\n          jump\t// out\n            /* \"#utility.yul\":694:820   */\n        tag_13:\n            /* \"#utility.yul\":731:738   */\n          0x00\n            /* \"#utility.yul\":771:813   */\n          0xffffffffffffffffffffffffffffffffffffffff\n            /* \"#utility.yul\":764:769   */\n          dup3\n            /* \"#utility.yul\":760:814   */\n          and\n            /* \"#utility.yul\":749:814   */\n          swap1\n          pop\n            /* \"#utility.yul\":694:820   */\n          swap2\n          swap1\n          pop\n          jump\t// out\n            /* \"#utility.yul\":826:922   */\n        tag_14:\n            /* \"#utility.yul\":863:870   */\n          0x00\n            /* \"#utility.yul\":892:916   */\n          tag_29\n            /* \"#utility.yul\":910:915   */\n          dup3\n            /* \"#utility.yul\":892:916   */\n          tag_13\n          jump\t// in\n        tag_29:\n            /* \"#utility.yul\":881:916   */\n          swap1\n          pop\n            /* \"#utility.yul\":826:922   */\n          swap2\n          swap1\n          pop\n          jump\t// out\n            /* \"#utility.yul\":928:1050   */\n        tag_15:\n            /* \"#utility.yul\":1001:1025   */\n          tag_31\n            /* \"#utility.yul\":1019:1024   */\n          dup2\n            /* \"#utility.yul\":1001:1025   */\n          tag_14\n          jump\t// in\n        tag_31:\n            /* \"#utility.yul\":994:999   */\n          dup2\n            /* \"#utility.yul\":991:1026   */\n          eq\n            /* \"#utility.yul\":981:1044   */\n          tag_32\n          jumpi\n            /* \"#utility.yul\":1040:1041   */\n          0x00\n            /* \"#utility.yul\":1037:1038   */\n          dup1\n            /* \"#utility.yul\":1030:1042   */\n          revert\n            /* \"#utility.yul\":981:1044   */\n        tag_32:\n            /* \"#utility.yul\":928:1050   */\n          pop\n          jump\t// out\n            /* \"#utility.yul\":1056:1199   */\n        tag_16:\n            /* \"#utility.yul\":1113:1118   */\n          0x00\n            /* \"#utility.yul\":1144:1150   */\n          dup2\n            /* \"#utility.yul\":1138:1151   */\n          mload\n            /* \"#utility.yul\":1129:1151   */\n          swap1\n          pop\n            /* \"#utility.yul\":1160:1193   */\n          tag_34\n            /* \"#utility.yul\":1187:1192   */\n          dup2\n            /* \"#utility.yul\":1160:1193   */\n          tag_15\n          jump\t// in\n        tag_34:\n            /* \"#utility.yul\":1056:1199   */\n          swap3\n          swap2\n          pop\n          pop\n          jump\t// out\n            /* \"#utility.yul\":1205:1712   */\n        tag_3:\n            /* \"#utility.yul\":1284:1290   */\n          0x00\n            /* \"#utility.yul\":1292:1298   */\n          dup1\n            /* \"#utility.yul\":1341:1343   */\n          0x40\n            /* \"#utility.yul\":1329:1338   */\n          dup4\n            /* \"#utility.yul\":1320:1327   */\n          dup6\n            /* \"#utility.yul\":1316:1339   */\n          sub\n            /* \"#utility.yul\":1312:1344   */\n          slt\n            /* \"#utility.yul\":1309:1428   */\n          iszero\n          tag_36\n          jumpi\n            /* \"#utility.yul\":1347:1426   */\n          tag_37\n          tag_8\n          jump\t// in\n        tag_37:\n            /* \"#utility.yul\":1309:1428   */\n        tag_36:\n            /* \"#utility.yul\":1467:1468   */\n          0x00\n            /* \"#utility.yul\":1492:1556   */\n          tag_38\n            /* \"#utility.yul\":1548:1555   */\n          dup6\n            /* \"#utility.yul\":1539:1545   */\n          dup3\n            /* \"#utility.yul\":1528:1537   */\n          dup7\n            /* \"#utility.yul\":1524:1546   */\n          add\n            /* \"#utility.yul\":1492:1556   */\n          tag_12\n          jump\t// in\n        tag_38:\n            /* \"#utility.yul\":1482:1556   */\n          swap3\n          pop\n            /* \"#utility.yul\":1438:1566   */\n          pop\n            /* \"#utility.yul\":1605:1607   */\n          0x20\n            /* \"#utility.yul\":1631:1695   */\n          tag_39\n            /* \"#utility.yul\":1687:1694   */\n          dup6\n            /* \"#utility.yul\":1678:1684   */\n          dup3\n            /* \"#utility.yul\":1667:1676   */\n          dup7\n            /* \"#utility.yul\":1663:1685   */\n          add\n            /* \"#utility.yul\":1631:1695   */\n          tag_16\n          jump\t// in\n        tag_39:\n            /* \"#utility.yul\":1621:1695   */\n          swap2\n          pop\n            /* \"#utility.yul\":1576:1705   */\n          pop\n            /* \"#utility.yul\":1205:1712   */\n          swap3\n          pop\n          swap3\n          swap1\n          pop\n          jump\t// out\n            /* \"contractFileName\":414:2249  contract Compaign{... */\n        tag_6:\n          dataSize(sub_0)\n          dup1\n          dataOffset(sub_0)\n          0x00\n          codecopy\n          0x00\n          return\n        stop\n\n        sub_0: assembly {\n                /* \"contractFileName\":414:2249  contract Compaign{... */\n              mstore(0x40, 0x80)\n              jumpi(tag_1, lt(calldatasize, 0x04))\n              shr(0xe0, calldataload(0x00))\n              dup1\n              0x82fde093\n              gt\n              tag_11\n              jumpi\n              dup1\n              0x82fde093\n              eq\n              tag_6\n              jumpi\n              dup1\n              0x8a9cfd55\n              eq\n              tag_7\n              jumpi\n              dup1\n              0x937e09b1\n              eq\n              tag_8\n              jumpi\n              dup1\n              0xd7bb99ba\n              eq\n              tag_9\n              jumpi\n              dup1\n              0xd7d1bbdb\n              eq\n              tag_10\n              jumpi\n              jump(tag_1)\n            tag_11:\n              dup1\n              0x03441006\n              eq\n              tag_2\n              jumpi\n              dup1\n              0x0a144391\n              eq\n              tag_3\n              jumpi\n              dup1\n              0x481c6a75\n              eq\n              tag_4\n              jumpi\n              dup1\n              0x81d12c58\n              eq\n              tag_5\n              jumpi\n            tag_1:\n              0x00\n              dup1\n              revert\n                /* \"contractFileName\":1947:2246  function finalizeRequest(uint index) public restricted {... */\n            tag_2:\n              callvalue\n              dup1\n              iszero\n              tag_12\n              jumpi\n              0x00\n              dup1\n              revert\n            tag_12:\n              pop\n              tag_13\n              0x04\n              dup1\n              calldatasize\n              sub\n              dup2\n              add\n              swap1\n              tag_14\n              swap2\n              swap1\n              tag_15\n              jump\t// in\n            tag_14:\n              tag_16\n              jump\t// in\n            tag_13:\n              stop\n                /* \"contractFileName\":778:819  mapping(address => bool) public approvers */\n            tag_3:\n              callvalue\n              dup1\n              iszero\n              tag_17\n              jumpi\n              0x00\n              dup1\n              revert\n            tag_17:\n              pop\n              tag_18\n              0x04\n              dup1\n              calldatasize\n              sub\n              dup2\n              add\n              swap1\n              tag_19\n              swap2\n              swap1\n              tag_20\n              jump\t// in\n            tag_19:\n              tag_21\n              jump\t// in\n            tag_18:\n              mload(0x40)\n              tag_22\n              swap2\n              swap1\n              tag_23\n              jump\t// in\n            tag_22:\n              mload(0x40)\n              dup1\n              swap2\n              sub\n              swap1\n              return\n                /* \"contractFileName\":713:735  address public manager */\n            tag_4:\n              callvalue\n              dup1\n              iszero\n              tag_24\n              jumpi\n              0x00\n              dup1\n              revert\n            tag_24:\n              pop\n              tag_25\n              tag_26\n              jump\t// in\n            tag_25:\n              mload(0x40)\n              tag_27\n              swap2\n              swap1\n              tag_28\n              jump\t// in\n            tag_27:\n              mload(0x40)\n              dup1\n              swap2\n              sub\n              swap1\n              return\n                /* \"contractFileName\":644:684  mapping(uint => Request) public requests */\n            tag_5:\n              callvalue\n              dup1\n              iszero\n              tag_29\n              jumpi\n              0x00\n              dup1\n              revert\n            tag_29:\n              pop\n              tag_30\n              0x04\n              dup1\n              calldatasize\n              sub\n              dup2\n              add\n              swap1\n              tag_31\n              swap2\n              swap1\n              tag_15\n              jump\t// in\n            tag_31:\n              tag_32\n              jump\t// in\n            tag_30:\n              mload(0x40)\n              tag_33\n              swap6\n              swap5\n              swap4\n              swap3\n              swap2\n              swap1\n              tag_34\n              jump\t// in\n            tag_33:\n              mload(0x40)\n              dup1\n              swap2\n              sub\n              swap1\n              return\n                /* \"contractFileName\":825:851  uint public approversCount */\n            tag_6:\n              callvalue\n              dup1\n              iszero\n              tag_35\n              jumpi\n              0x00\n              dup1\n              revert\n            tag_35:\n              pop\n              tag_36\n              tag_37\n              jump\t// in\n            tag_36:\n              mload(0x40)\n              tag_38\n              swap2\n              swap1\n              tag_39\n              jump\t// in\n            tag_38:\n              mload(0x40)\n              dup1\n              swap2\n              sub\n              swap1\n              return\n                /* \"contractFileName\":1228:1665  function createRequest(string memory description, uint value, address payable recipient) public restricted {... */\n            tag_7:\n              callvalue\n              dup1\n              iszero\n              tag_40\n              jumpi\n              0x00\n              dup1\n              revert\n            tag_40:\n              pop\n              tag_41\n              0x04\n              dup1\n              calldatasize\n              sub\n              dup2\n              add\n              swap1\n              tag_42\n              swap2\n              swap1\n              tag_43\n              jump\t// in\n            tag_42:\n              tag_44\n              jump\t// in\n            tag_41:\n              stop\n                /* \"contractFileName\":741:772  uint public minimumContribution */\n            tag_8:\n              callvalue\n              dup1\n              iszero\n              tag_45\n              jumpi\n              0x00\n              dup1\n              revert\n            tag_45:\n              pop\n              tag_46\n              tag_47\n              jump\t// in\n            tag_46:\n              mload(0x40)\n              tag_48\n              swap2\n              swap1\n              tag_39\n              jump\t// in\n            tag_48:\n              mload(0x40)\n              dup1\n              swap2\n              sub\n              swap1\n              return\n                /* \"contractFileName\":1064:1222  function contribute() public payable {... */\n            tag_9:\n              tag_49\n              tag_50\n              jump\t// in\n            tag_49:\n              stop\n                /* \"contractFileName\":1671:1941  function approveRequest(uint index) public {... */\n            tag_10:\n              callvalue\n              dup1\n              iszero\n              tag_51\n              jumpi\n              0x00\n              dup1\n              revert\n            tag_51:\n              pop\n              tag_52\n              0x04\n              dup1\n              calldatasize\n              sub\n              dup2\n              add\n              swap1\n              tag_53\n              swap2\n              swap1\n              tag_15\n              jump\t// in\n            tag_53:\n              tag_54\n              jump\t// in\n            tag_52:\n              stop\n                /* \"contractFileName\":1947:2246  function finalizeRequest(uint index) public restricted {... */\n            tag_16:\n                /* \"contractFileName\":911:918  manager */\n              0x02\n              0x00\n              swap1\n              sload\n              swap1\n              0x0100\n              exp\n              swap1\n              div\n              0xffffffffffffffffffffffffffffffffffffffff\n              and\n                /* \"contractFileName\":897:918  msg.sender == manager */\n              0xffffffffffffffffffffffffffffffffffffffff\n              and\n                /* \"contractFileName\":897:907  msg.sender */\n              caller\n                /* \"contractFileName\":897:918  msg.sender == manager */\n              0xffffffffffffffffffffffffffffffffffffffff\n              and\n              eq\n                /* \"contractFileName\":889:919  require(msg.sender == manager) */\n              tag_56\n              jumpi\n              0x00\n              dup1\n              revert\n            tag_56:\n                /* \"contractFileName\":2012:2035  Request storage request */\n              0x00\n                /* \"contractFileName\":2038:2046  requests */\n              dup1\n                /* \"contractFileName\":2038:2053  requests[index] */\n              0x00\n                /* \"contractFileName\":2047:2052  index */\n              dup4\n                /* \"contractFileName\":2038:2053  requests[index] */\n              dup2\n              mstore\n              0x20\n              add\n              swap1\n              dup2\n              mstore\n              0x20\n              add\n              0x00\n              keccak256\n                /* \"contractFileName\":2012:2053  Request storage request = requests[index] */\n              swap1\n              pop\n                /* \"contractFileName\":2115:2116  2 */\n              0x02\n                /* \"contractFileName\":2098:2112  approversCount */\n              sload(0x05)\n                /* \"contractFileName\":2098:2116  approversCount / 2 */\n              tag_58\n              swap2\n              swap1\n              tag_59\n              jump\t// in\n            tag_58:\n                /* \"contractFileName\":2072:2079  request */\n              dup2\n                /* \"contractFileName\":2072:2094  request.approvalsCount */\n              0x03\n              add\n              sload\n                /* \"contractFileName\":2072:2117  request.approvalsCount > (approversCount / 2) */\n              gt\n                /* \"contractFileName\":2064:2118  require(request.approvalsCount > (approversCount / 2)) */\n              tag_60\n              jumpi\n              0x00\n              dup1\n              revert\n            tag_60:\n                /* \"contractFileName\":2137:2144  request */\n              dup1\n                /* \"contractFileName\":2137:2153  request.complete */\n              0x02\n              add\n              0x14\n              swap1\n              sload\n              swap1\n              0x0100\n              exp\n              swap1\n              div\n              0xff\n              and\n                /* \"contractFileName\":2136:2153  !request.complete */\n              iszero\n                /* \"contractFileName\":2128:2154  require(!request.complete) */\n              tag_61\n              jumpi\n              0x00\n              dup1\n              revert\n            tag_61:\n                /* \"contractFileName\":2165:2172  request */\n              dup1\n                /* \"contractFileName\":2165:2182  request.recipient */\n              0x02\n              add\n              0x00\n              swap1\n              sload\n              swap1\n              0x0100\n              exp\n              swap1\n              div\n              0xffffffffffffffffffffffffffffffffffffffff\n              and\n                /* \"contractFileName\":2165:2191  request.recipient.transfer */\n              0xffffffffffffffffffffffffffffffffffffffff\n              and\n                /* \"contractFileName\":2165:2206  request.recipient.transfer(request.value) */\n              0x08fc\n                /* \"contractFileName\":2192:2199  request */\n              dup3\n                /* \"contractFileName\":2192:2205  request.value */\n              0x01\n              add\n              sload\n                /* \"contractFileName\":2165:2206  request.recipient.transfer(request.value) */\n              swap1\n              dup2\n              iszero\n              mul\n              swap1\n              mload(0x40)\n              0x00\n              mload(0x40)\n              dup1\n              dup4\n              sub\n              dup2\n              dup6\n              dup9\n              dup9\n              call\n              swap4\n              pop\n              pop\n              pop\n              pop\n              iszero\n              dup1\n              iszero\n              tag_63\n              jumpi\n              returndatasize\n              0x00\n              dup1\n              returndatacopy\n              revert(0x00, returndatasize)\n            tag_63:\n              pop\n                /* \"contractFileName\":2235:2239  true */\n              0x01\n                /* \"contractFileName\":2216:2223  request */\n              dup2\n                /* \"contractFileName\":2216:2232  request.complete */\n              0x02\n              add\n              0x14\n                /* \"contractFileName\":2216:2239  request.complete = true */\n              0x0100\n              exp\n              dup2\n              sload\n              dup2\n              0xff\n              mul\n              not\n              and\n              swap1\n              dup4\n              iszero\n              iszero\n              mul\n              or\n              swap1\n              sstore\n              pop\n                /* \"contractFileName\":2002:2246  {... */\n              pop\n                /* \"contractFileName\":1947:2246  function finalizeRequest(uint index) public restricted {... */\n              pop\n              jump\t// out\n                /* \"contractFileName\":778:819  mapping(address => bool) public approvers */\n            tag_21:\n              mstore(0x20, 0x04)\n              dup1\n              0x00\n              mstore\n              keccak256(0x00, 0x40)\n              0x00\n              swap2\n              pop\n              sload\n              swap1\n              0x0100\n              exp\n              swap1\n              div\n              0xff\n              and\n              dup2\n              jump\t// out\n                /* \"contractFileName\":713:735  address public manager */\n            tag_26:\n              0x02\n              0x00\n              swap1\n              sload\n              swap1\n              0x0100\n              exp\n              swap1\n              div\n              0xffffffffffffffffffffffffffffffffffffffff\n              and\n              dup2\n              jump\t// out\n                /* \"contractFileName\":644:684  mapping(uint => Request) public requests */\n            tag_32:\n              mstore(0x20, 0x00)\n              dup1\n              0x00\n              mstore\n              keccak256(0x00, 0x40)\n              0x00\n              swap2\n              pop\n              swap1\n              pop\n              dup1\n              0x00\n              add\n              dup1\n              sload\n              tag_64\n              swap1\n              tag_65\n              jump\t// in\n            tag_64:\n              dup1\n              0x1f\n              add\n              0x20\n              dup1\n              swap2\n              div\n              mul\n              0x20\n              add\n              mload(0x40)\n              swap1\n              dup2\n              add\n              0x40\n              mstore\n              dup1\n              swap3\n              swap2\n              swap1\n              dup2\n              dup2\n              mstore\n              0x20\n              add\n              dup3\n              dup1\n              sload\n              tag_66\n              swap1\n              tag_65\n              jump\t// in\n            tag_66:\n              dup1\n              iszero\n              tag_67\n              jumpi\n              dup1\n              0x1f\n              lt\n              tag_68\n              jumpi\n              0x0100\n              dup1\n              dup4\n              sload\n              div\n              mul\n              dup4\n              mstore\n              swap2\n              0x20\n              add\n              swap2\n              jump(tag_67)\n            tag_68:\n              dup3\n              add\n              swap2\n              swap1\n              0x00\n              mstore\n              keccak256(0x00, 0x20)\n              swap1\n            tag_69:\n              dup2\n              sload\n              dup2\n              mstore\n              swap1\n              0x01\n              add\n              swap1\n              0x20\n              add\n              dup1\n              dup4\n              gt\n              tag_69\n              jumpi\n              dup3\n              swap1\n              sub\n              0x1f\n              and\n              dup3\n              add\n              swap2\n            tag_67:\n              pop\n              pop\n              pop\n              pop\n              pop\n              swap1\n              dup1\n              0x01\n              add\n              sload\n              swap1\n              dup1\n              0x02\n              add\n              0x00\n              swap1\n              sload\n              swap1\n              0x0100\n              exp\n              swap1\n              div\n              0xffffffffffffffffffffffffffffffffffffffff\n              and\n              swap1\n              dup1\n              0x02\n              add\n              0x14\n              swap1\n              sload\n              swap1\n              0x0100\n              exp\n              swap1\n              div\n              0xff\n              and\n              swap1\n              dup1\n              0x03\n              add\n              sload\n              swap1\n              pop\n              dup6\n              jump\t// out\n                /* \"contractFileName\":825:851  uint public approversCount */\n            tag_37:\n              sload(0x05)\n              dup2\n              jump\t// out\n                /* \"contractFileName\":1228:1665  function createRequest(string memory description, uint value, address payable recipient) public restricted {... */\n            tag_44:\n                /* \"contractFileName\":911:918  manager */\n              0x02\n              0x00\n              swap1\n              sload\n              swap1\n              0x0100\n              exp\n              swap1\n              div\n              0xffffffffffffffffffffffffffffffffffffffff\n              and\n                /* \"contractFileName\":897:918  msg.sender == manager */\n              0xffffffffffffffffffffffffffffffffffffffff\n              and\n                /* \"contractFileName\":897:907  msg.sender */\n              caller\n                /* \"contractFileName\":897:918  msg.sender == manager */\n              0xffffffffffffffffffffffffffffffffffffffff\n              and\n              eq\n                /* \"contractFileName\":889:919  require(msg.sender == manager) */\n              tag_71\n              jumpi\n              0x00\n              dup1\n              revert\n            tag_71:\n                /* \"contractFileName\":1421:1438  Request storage r */\n              0x00\n                /* \"contractFileName\":1441:1449  requests */\n              dup1\n                /* \"contractFileName\":1441:1464  requests[numRequests++] */\n              0x00\n                /* \"contractFileName\":1450:1461  numRequests */\n              0x01\n              0x00\n                /* \"contractFileName\":1450:1463  numRequests++ */\n              dup2\n              sload\n              dup1\n              swap3\n              swap2\n              swap1\n              tag_73\n              swap1\n              tag_74\n              jump\t// in\n            tag_73:\n              swap2\n              swap1\n              pop\n              sstore\n                /* \"contractFileName\":1441:1464  requests[numRequests++] */\n              dup2\n              mstore\n              0x20\n              add\n              swap1\n              dup2\n              mstore\n              0x20\n              add\n              0x00\n              keccak256\n                /* \"contractFileName\":1421:1464  Request storage r = requests[numRequests++] */\n              swap1\n              pop\n                /* \"contractFileName\":1498:1509  description */\n              dup4\n                /* \"contractFileName\":1482:1483  r */\n              dup2\n                /* \"contractFileName\":1482:1495  r.description */\n              0x00\n              add\n                /* \"contractFileName\":1482:1509  r.description = description */\n              swap1\n              dup1\n              mload\n              swap1\n              0x20\n              add\n              swap1\n              tag_75\n              swap3\n              swap2\n              swap1\n              tag_76\n              jump\t// in\n            tag_75:\n              pop\n                /* \"contractFileName\":1537:1542  value */\n              dup3\n                /* \"contractFileName\":1527:1528  r */\n              dup2\n                /* \"contractFileName\":1527:1534  r.value */\n              0x01\n              add\n                /* \"contractFileName\":1527:1542  r.value = value */\n              dup2\n              swap1\n              sstore\n              pop\n                /* \"contractFileName\":1574:1583  recipient */\n              dup2\n                /* \"contractFileName\":1560:1561  r */\n              dup2\n                /* \"contractFileName\":1560:1571  r.recipient */\n              0x02\n              add\n              0x00\n                /* \"contractFileName\":1560:1583  r.recipient = recipient */\n              0x0100\n              exp\n              dup2\n              sload\n              dup2\n              0xffffffffffffffffffffffffffffffffffffffff\n              mul\n              not\n              and\n              swap1\n              dup4\n              0xffffffffffffffffffffffffffffffffffffffff\n              and\n              mul\n              or\n              swap1\n              sstore\n              pop\n                /* \"contractFileName\":1614:1619  false */\n              0x00\n                /* \"contractFileName\":1601:1602  r */\n              dup2\n                /* \"contractFileName\":1601:1611  r.complete */\n              0x02\n              add\n              0x14\n                /* \"contractFileName\":1601:1619  r.complete = false */\n              0x0100\n              exp\n              dup2\n              sload\n              dup2\n              0xff\n              mul\n              not\n              and\n              swap1\n              dup4\n              iszero\n              iszero\n              mul\n              or\n              swap1\n              sstore\n              pop\n                /* \"contractFileName\":1656:1657  0 */\n              0x00\n                /* \"contractFileName\":1637:1638  r */\n              dup2\n                /* \"contractFileName\":1637:1653  r.approvalsCount */\n              0x03\n              add\n                /* \"contractFileName\":1637:1657  r.approvalsCount = 0 */\n              dup2\n              swap1\n              sstore\n              pop\n                /* \"contractFileName\":1335:1665  {... */\n              pop\n                /* \"contractFileName\":1228:1665  function createRequest(string memory description, uint value, address payable recipient) public restricted {... */\n              pop\n              pop\n              pop\n              jump\t// out\n                /* \"contractFileName\":741:772  uint public minimumContribution */\n            tag_47:\n              sload(0x03)\n              dup2\n              jump\t// out\n                /* \"contractFileName\":1064:1222  function contribute() public payable {... */\n            tag_50:\n                /* \"contractFileName\":1131:1150  minimumContribution */\n              sload(0x03)\n                /* \"contractFileName\":1119:1128  msg.value */\n              callvalue\n                /* \"contractFileName\":1119:1150  msg.value > minimumContribution */\n              gt\n                /* \"contractFileName\":1111:1151  require(msg.value > minimumContribution) */\n              tag_78\n              jumpi\n              0x00\n              dup1\n              revert\n            tag_78:\n                /* \"contractFileName\":1185:1189  true */\n              0x01\n                /* \"contractFileName\":1161:1170  approvers */\n              0x04\n                /* \"contractFileName\":1161:1182  approvers[msg.sender] */\n              0x00\n                /* \"contractFileName\":1171:1181  msg.sender */\n              caller\n                /* \"contractFileName\":1161:1182  approvers[msg.sender] */\n              0xffffffffffffffffffffffffffffffffffffffff\n              and\n              0xffffffffffffffffffffffffffffffffffffffff\n              and\n              dup2\n              mstore\n              0x20\n              add\n              swap1\n              dup2\n              mstore\n              0x20\n              add\n              0x00\n              keccak256\n              0x00\n                /* \"contractFileName\":1161:1189  approvers[msg.sender] = true */\n              0x0100\n              exp\n              dup2\n              sload\n              dup2\n              0xff\n              mul\n              not\n              and\n              swap1\n              dup4\n              iszero\n              iszero\n              mul\n              or\n              swap1\n              sstore\n              pop\n                /* \"contractFileName\":1199:1213  approversCount */\n              0x05\n              0x00\n                /* \"contractFileName\":1199:1215  approversCount++ */\n              dup2\n              sload\n              dup1\n              swap3\n              swap2\n              swap1\n              tag_79\n              swap1\n              tag_74\n              jump\t// in\n            tag_79:\n              swap2\n              swap1\n              pop\n              sstore\n              pop\n                /* \"contractFileName\":1064:1222  function contribute() public payable {... */\n              jump\t// out\n                /* \"contractFileName\":1671:1941  function approveRequest(uint index) public {... */\n            tag_54:\n                /* \"contractFileName\":1724:1747  Request storage request */\n              0x00\n                /* \"contractFileName\":1750:1758  requests */\n              dup1\n                /* \"contractFileName\":1750:1765  requests[index] */\n              0x00\n                /* \"contractFileName\":1759:1764  index */\n              dup4\n                /* \"contractFileName\":1750:1765  requests[index] */\n              dup2\n              mstore\n              0x20\n              add\n              swap1\n              dup2\n              mstore\n              0x20\n              add\n              0x00\n              keccak256\n                /* \"contractFileName\":1724:1765  Request storage request = requests[index] */\n              swap1\n              pop\n                /* \"contractFileName\":1783:1792  approvers */\n              0x04\n                /* \"contractFileName\":1783:1804  approvers[msg.sender] */\n              0x00\n                /* \"contractFileName\":1793:1803  msg.sender */\n              caller\n                /* \"contractFileName\":1783:1804  approvers[msg.sender] */\n              0xffffffffffffffffffffffffffffffffffffffff\n              and\n              0xffffffffffffffffffffffffffffffffffffffff\n              and\n              dup2\n              mstore\n              0x20\n              add\n              swap1\n              dup2\n              mstore\n              0x20\n              add\n              0x00\n              keccak256\n              0x00\n              swap1\n              sload\n              swap1\n              0x0100\n              exp\n              swap1\n              div\n              0xff\n              and\n                /* \"contractFileName\":1775:1805  require(approvers[msg.sender]) */\n              tag_81\n              jumpi\n              0x00\n              dup1\n              revert\n            tag_81:\n                /* \"contractFileName\":1824:1831  request */\n              dup1\n                /* \"contractFileName\":1824:1841  request.approvals */\n              0x04\n              add\n                /* \"contractFileName\":1824:1853  request.approvals[msg.sender] */\n              0x00\n                /* \"contractFileName\":1842:1852  msg.sender */\n              caller\n                /* \"contractFileName\":1824:1853  request.approvals[msg.sender] */\n              0xffffffffffffffffffffffffffffffffffffffff\n              and\n              0xffffffffffffffffffffffffffffffffffffffff\n              and\n              dup2\n              mstore\n              0x20\n              add\n              swap1\n              dup2\n              mstore\n              0x20\n              add\n              0x00\n              keccak256\n              0x00\n              swap1\n              sload\n              swap1\n              0x0100\n              exp\n              swap1\n              div\n              0xff\n              and\n                /* \"contractFileName\":1823:1853  !request.approvals[msg.sender] */\n              iszero\n                /* \"contractFileName\":1815:1854  require(!request.approvals[msg.sender]) */\n              tag_82\n              jumpi\n              0x00\n              dup1\n              revert\n            tag_82:\n                /* \"contractFileName\":1895:1899  true */\n              0x01\n                /* \"contractFileName\":1865:1872  request */\n              dup2\n                /* \"contractFileName\":1865:1882  request.approvals */\n              0x04\n              add\n                /* \"contractFileName\":1865:1894  request.approvals[msg.sender] */\n              0x00\n                /* \"contractFileName\":1883:1893  msg.sender */\n              caller\n                /* \"contractFileName\":1865:1894  request.approvals[msg.sender] */\n              0xffffffffffffffffffffffffffffffffffffffff\n              and\n              0xffffffffffffffffffffffffffffffffffffffff\n              and\n              dup2\n              mstore\n              0x20\n              add\n              swap1\n              dup2\n              mstore\n              0x20\n              add\n              0x00\n              keccak256\n              0x00\n                /* \"contractFileName\":1865:1899  request.approvals[msg.sender]=true */\n              0x0100\n              exp\n              dup2\n              sload\n              dup2\n              0xff\n              mul\n              not\n              and\n              swap1\n              dup4\n              iszero\n              iszero\n              mul\n              or\n              swap1\n              sstore\n              pop\n                /* \"contractFileName\":1909:1916  request */\n              dup1\n                /* \"contractFileName\":1909:1931  request.approvalsCount */\n              0x03\n              add\n              0x00\n                /* \"contractFileName\":1909:1933  request.approvalsCount++ */\n              dup2\n              sload\n              dup1\n              swap3\n              swap2\n              swap1\n              tag_83\n              swap1\n              tag_74\n              jump\t// in\n            tag_83:\n              swap2\n              swap1\n              pop\n              sstore\n              pop\n                /* \"contractFileName\":1714:1941  {... */\n              pop\n                /* \"contractFileName\":1671:1941  function approveRequest(uint index) public {... */\n              pop\n              jump\t// out\n            tag_76:\n              dup3\n              dup1\n              sload\n              tag_84\n              swap1\n              tag_65\n              jump\t// in\n            tag_84:\n              swap1\n              0x00\n              mstore\n              keccak256(0x00, 0x20)\n              swap1\n              0x1f\n              add\n              0x20\n              swap1\n              div\n              dup2\n              add\n              swap3\n              dup3\n              tag_86\n              jumpi\n              0x00\n              dup6\n              sstore\n              jump(tag_85)\n            tag_86:\n              dup3\n              0x1f\n              lt\n              tag_87\n              jumpi\n              dup1\n              mload\n              not(0xff)\n              and\n              dup4\n              dup1\n              add\n              or\n              dup6\n              sstore\n              jump(tag_85)\n            tag_87:\n              dup3\n              dup1\n              add\n              0x01\n              add\n              dup6\n              sstore\n              dup3\n              iszero\n              tag_85\n              jumpi\n              swap2\n              dup3\n              add\n            tag_88:\n              dup3\n              dup2\n              gt\n              iszero\n              tag_89\n              jumpi\n              dup3\n              mload\n              dup3\n              sstore\n              swap2\n              0x20\n              add\n              swap2\n              swap1\n              0x01\n              add\n              swap1\n              jump(tag_88)\n            tag_89:\n            tag_85:\n              pop\n              swap1\n              pop\n              tag_90\n              swap2\n              swap1\n              tag_91\n              jump\t// in\n            tag_90:\n              pop\n              swap1\n              jump\t// out\n            tag_91:\n            tag_92:\n              dup1\n              dup3\n              gt\n              iszero\n              tag_93\n              jumpi\n              0x00\n              dup2\n              0x00\n              swap1\n              sstore\n              pop\n              0x01\n              add\n              jump(tag_92)\n            tag_93:\n              pop\n              swap1\n              jump\t// out\n                /* \"#utility.yul\":7:82   */\n            tag_94:\n                /* \"#utility.yul\":40:46   */\n              0x00\n                /* \"#utility.yul\":73:75   */\n              0x40\n                /* \"#utility.yul\":67:76   */\n              mload\n                /* \"#utility.yul\":57:76   */\n              swap1\n              pop\n                /* \"#utility.yul\":7:82   */\n              swap1\n              jump\t// out\n                /* \"#utility.yul\":88:205   */\n            tag_95:\n                /* \"#utility.yul\":197:198   */\n              0x00\n                /* \"#utility.yul\":194:195   */\n              dup1\n                /* \"#utility.yul\":187:199   */\n              revert\n                /* \"#utility.yul\":211:328   */\n            tag_96:\n                /* \"#utility.yul\":320:321   */\n              0x00\n                /* \"#utility.yul\":317:318   */\n              dup1\n                /* \"#utility.yul\":310:322   */\n              revert\n                /* \"#utility.yul\":334:411   */\n            tag_97:\n                /* \"#utility.yul\":371:378   */\n              0x00\n                /* \"#utility.yul\":400:405   */\n              dup2\n                /* \"#utility.yul\":389:405   */\n              swap1\n              pop\n                /* \"#utility.yul\":334:411   */\n              swap2\n              swap1\n              pop\n              jump\t// out\n                /* \"#utility.yul\":417:539   */\n            tag_98:\n                /* \"#utility.yul\":490:514   */\n              tag_135\n                /* \"#utility.yul\":508:513   */\n              dup2\n                /* \"#utility.yul\":490:514   */\n              tag_97\n              jump\t// in\n            tag_135:\n                /* \"#utility.yul\":483:488   */\n              dup2\n                /* \"#utility.yul\":480:515   */\n              eq\n                /* \"#utility.yul\":470:533   */\n              tag_136\n              jumpi\n                /* \"#utility.yul\":529:530   */\n              0x00\n                /* \"#utility.yul\":526:527   */\n              dup1\n                /* \"#utility.yul\":519:531   */\n              revert\n                /* \"#utility.yul\":470:533   */\n            tag_136:\n                /* \"#utility.yul\":417:539   */\n              pop\n              jump\t// out\n                /* \"#utility.yul\":545:684   */\n            tag_99:\n                /* \"#utility.yul\":591:596   */\n              0x00\n                /* \"#utility.yul\":629:635   */\n              dup2\n                /* \"#utility.yul\":616:636   */\n              calldataload\n                /* \"#utility.yul\":607:636   */\n              swap1\n              pop\n                /* \"#utility.yul\":645:678   */\n              tag_138\n                /* \"#utility.yul\":672:677   */\n              dup2\n                /* \"#utility.yul\":645:678   */\n              tag_98\n              jump\t// in\n            tag_138:\n                /* \"#utility.yul\":545:684   */\n              swap3\n              swap2\n              pop\n              pop\n              jump\t// out\n                /* \"#utility.yul\":690:1019   */\n            tag_15:\n                /* \"#utility.yul\":749:755   */\n              0x00\n                /* \"#utility.yul\":798:800   */\n              0x20\n                /* \"#utility.yul\":786:795   */\n              dup3\n                /* \"#utility.yul\":777:784   */\n              dup5\n                /* \"#utility.yul\":773:796   */\n              sub\n                /* \"#utility.yul\":769:801   */\n              slt\n                /* \"#utility.yul\":766:885   */\n              iszero\n              tag_140\n              jumpi\n                /* \"#utility.yul\":804:883   */\n              tag_141\n              tag_95\n              jump\t// in\n            tag_141:\n                /* \"#utility.yul\":766:885   */\n            tag_140:\n                /* \"#utility.yul\":924:925   */\n              0x00\n                /* \"#utility.yul\":949:1002   */\n              tag_142\n                /* \"#utility.yul\":994:1001   */\n              dup5\n                /* \"#utility.yul\":985:991   */\n              dup3\n                /* \"#utility.yul\":974:983   */\n              dup6\n                /* \"#utility.yul\":970:992   */\n              add\n                /* \"#utility.yul\":949:1002   */\n              tag_99\n              jump\t// in\n            tag_142:\n                /* \"#utility.yul\":939:1002   */\n              swap2\n              pop\n                /* \"#utility.yul\":895:1012   */\n              pop\n                /* \"#utility.yul\":690:1019   */\n              swap3\n              swap2\n              pop\n              pop\n              jump\t// out\n                /* \"#utility.yul\":1025:1151   */\n            tag_100:\n                /* \"#utility.yul\":1062:1069   */\n              0x00\n                /* \"#utility.yul\":1102:1144   */\n              0xffffffffffffffffffffffffffffffffffffffff\n                /* \"#utility.yul\":1095:1100   */\n              dup3\n                /* \"#utility.yul\":1091:1145   */\n              and\n                /* \"#utility.yul\":1080:1145   */\n              swap1\n              pop\n                /* \"#utility.yul\":1025:1151   */\n              swap2\n              swap1\n              pop\n              jump\t// out\n                /* \"#utility.yul\":1157:1253   */\n            tag_101:\n                /* \"#utility.yul\":1194:1201   */\n              0x00\n                /* \"#utility.yul\":1223:1247   */\n              tag_145\n                /* \"#utility.yul\":1241:1246   */\n              dup3\n                /* \"#utility.yul\":1223:1247   */\n              tag_100\n              jump\t// in\n            tag_145:\n                /* \"#utility.yul\":1212:1247   */\n              swap1\n              pop\n                /* \"#utility.yul\":1157:1253   */\n              swap2\n              swap1\n              pop\n              jump\t// out\n                /* \"#utility.yul\":1259:1381   */\n            tag_102:\n                /* \"#utility.yul\":1332:1356   */\n              tag_147\n                /* \"#utility.yul\":1350:1355   */\n              dup2\n                /* \"#utility.yul\":1332:1356   */\n              tag_101\n              jump\t// in\n            tag_147:\n                /* \"#utility.yul\":1325:1330   */\n              dup2\n                /* \"#utility.yul\":1322:1357   */\n              eq\n                /* \"#utility.yul\":1312:1375   */\n              tag_148\n              jumpi\n                /* \"#utility.yul\":1371:1372   */\n              0x00\n                /* \"#utility.yul\":1368:1369   */\n              dup1\n                /* \"#utility.yul\":1361:1373   */\n              revert\n                /* \"#utility.yul\":1312:1375   */\n            tag_148:\n                /* \"#utility.yul\":1259:1381   */\n              pop\n              jump\t// out\n                /* \"#utility.yul\":1387:1526   */\n            tag_103:\n                /* \"#utility.yul\":1433:1438   */\n              0x00\n                /* \"#utility.yul\":1471:1477   */\n              dup2\n                /* \"#utility.yul\":1458:1478   */\n              calldataload\n                /* \"#utility.yul\":1449:1478   */\n              swap1\n              pop\n                /* \"#utility.yul\":1487:1520   */\n              tag_150\n                /* \"#utility.yul\":1514:1519   */\n              dup2\n                /* \"#utility.yul\":1487:1520   */\n              tag_102\n              jump\t// in\n            tag_150:\n                /* \"#utility.yul\":1387:1526   */\n              swap3\n              swap2\n              pop\n              pop\n              jump\t// out\n                /* \"#utility.yul\":1532:1861   */\n            tag_20:\n                /* \"#utility.yul\":1591:1597   */\n              0x00\n                /* \"#utility.yul\":1640:1642   */\n              0x20\n                /* \"#utility.yul\":1628:1637   */\n              dup3\n                /* \"#utility.yul\":1619:1626   */\n              dup5\n                /* \"#utility.yul\":1615:1638   */\n              sub\n                /* \"#utility.yul\":1611:1643   */\n              slt\n                /* \"#utility.yul\":1608:1727   */\n              iszero\n              tag_152\n              jumpi\n                /* \"#utility.yul\":1646:1725   */\n              tag_153\n              tag_95\n              jump\t// in\n            tag_153:\n                /* \"#utility.yul\":1608:1727   */\n            tag_152:\n                /* \"#utility.yul\":1766:1767   */\n              0x00\n                /* \"#utility.yul\":1791:1844   */\n              tag_154\n                /* \"#utility.yul\":1836:1843   */\n              dup5\n                /* \"#utility.yul\":1827:1833   */\n              dup3\n                /* \"#utility.yul\":1816:1825   */\n              dup6\n                /* \"#utility.yul\":1812:1834   */\n              add\n                /* \"#utility.yul\":1791:1844   */\n              tag_103\n              jump\t// in\n            tag_154:\n                /* \"#utility.yul\":1781:1844   */\n              swap2\n              pop\n                /* \"#utility.yul\":1737:1854   */\n              pop\n                /* \"#utility.yul\":1532:1861   */\n              swap3\n              swap2\n              pop\n              pop\n              jump\t// out\n                /* \"#utility.yul\":1867:1957   */\n            tag_104:\n                /* \"#utility.yul\":1901:1908   */\n              0x00\n                /* \"#utility.yul\":1944:1949   */\n              dup2\n                /* \"#utility.yul\":1937:1950   */\n              iszero\n                /* \"#utility.yul\":1930:1951   */\n              iszero\n                /* \"#utility.yul\":1919:1951   */\n              swap1\n              pop\n                /* \"#utility.yul\":1867:1957   */\n              swap2\n              swap1\n              pop\n              jump\t// out\n                /* \"#utility.yul\":1963:2072   */\n            tag_105:\n                /* \"#utility.yul\":2044:2065   */\n              tag_157\n                /* \"#utility.yul\":2059:2064   */\n              dup2\n                /* \"#utility.yul\":2044:2065   */\n              tag_104\n              jump\t// in\n            tag_157:\n                /* \"#utility.yul\":2039:2042   */\n              dup3\n                /* \"#utility.yul\":2032:2066   */\n              mstore\n                /* \"#utility.yul\":1963:2072   */\n              pop\n              pop\n              jump\t// out\n                /* \"#utility.yul\":2078:2288   */\n            tag_23:\n                /* \"#utility.yul\":2165:2169   */\n              0x00\n                /* \"#utility.yul\":2203:2205   */\n              0x20\n                /* \"#utility.yul\":2192:2201   */\n              dup3\n                /* \"#utility.yul\":2188:2206   */\n              add\n                /* \"#utility.yul\":2180:2206   */\n              swap1\n              pop\n                /* \"#utility.yul\":2216:2281   */\n              tag_159\n                /* \"#utility.yul\":2278:2279   */\n              0x00\n                /* \"#utility.yul\":2267:2276   */\n              dup4\n                /* \"#utility.yul\":2263:2280   */\n              add\n                /* \"#utility.yul\":2254:2260   */\n              dup5\n                /* \"#utility.yul\":2216:2281   */\n              tag_105\n              jump\t// in\n            tag_159:\n                /* \"#utility.yul\":2078:2288   */\n              swap3\n              swap2\n              pop\n              pop\n              jump\t// out\n                /* \"#utility.yul\":2294:2412   */\n            tag_106:\n                /* \"#utility.yul\":2381:2405   */\n              tag_161\n                /* \"#utility.yul\":2399:2404   */\n              dup2\n                /* \"#utility.yul\":2381:2405   */\n              tag_101\n              jump\t// in\n            tag_161:\n                /* \"#utility.yul\":2376:2379   */\n              dup3\n                /* \"#utility.yul\":2369:2406   */\n              mstore\n                /* \"#utility.yul\":2294:2412   */\n              pop\n              pop\n              jump\t// out\n                /* \"#utility.yul\":2418:2640   */\n            tag_28:\n                /* \"#utility.yul\":2511:2515   */\n              0x00\n                /* \"#utility.yul\":2549:2551   */\n              0x20\n                /* \"#utility.yul\":2538:2547   */\n              dup3\n                /* \"#utility.yul\":2534:2552   */\n              add\n                /* \"#utility.yul\":2526:2552   */\n              swap1\n              pop\n                /* \"#utility.yul\":2562:2633   */\n              tag_163\n                /* \"#utility.yul\":2630:2631   */\n              0x00\n                /* \"#utility.yul\":2619:2628   */\n              dup4\n                /* \"#utility.yul\":2615:2632   */\n              add\n                /* \"#utility.yul\":2606:2612   */\n              dup5\n                /* \"#utility.yul\":2562:2633   */\n              tag_106\n              jump\t// in\n            tag_163:\n                /* \"#utility.yul\":2418:2640   */\n              swap3\n              swap2\n              pop\n              pop\n              jump\t// out\n                /* \"#utility.yul\":2646:2745   */\n            tag_107:\n                /* \"#utility.yul\":2698:2704   */\n              0x00\n                /* \"#utility.yul\":2732:2737   */\n              dup2\n                /* \"#utility.yul\":2726:2738   */\n              mload\n                /* \"#utility.yul\":2716:2738   */\n              swap1\n              pop\n                /* \"#utility.yul\":2646:2745   */\n              swap2\n              swap1\n              pop\n              jump\t// out\n                /* \"#utility.yul\":2751:2920   */\n            tag_108:\n                /* \"#utility.yul\":2835:2846   */\n              0x00\n                /* \"#utility.yul\":2869:2875   */\n              dup3\n                /* \"#utility.yul\":2864:2867   */\n              dup3\n                /* \"#utility.yul\":2857:2876   */\n              mstore\n                /* \"#utility.yul\":2909:2913   */\n              0x20\n                /* \"#utility.yul\":2904:2907   */\n              dup3\n                /* \"#utility.yul\":2900:2914   */\n              add\n                /* \"#utility.yul\":2885:2914   */\n              swap1\n              pop\n                /* \"#utility.yul\":2751:2920   */\n              swap3\n              swap2\n              pop\n              pop\n              jump\t// out\n                /* \"#utility.yul\":2926:3233   */\n            tag_109:\n                /* \"#utility.yul\":2994:2995   */\n              0x00\n                /* \"#utility.yul\":3004:3117   */\n            tag_167:\n                /* \"#utility.yul\":3018:3024   */\n              dup4\n                /* \"#utility.yul\":3015:3016   */\n              dup2\n                /* \"#utility.yul\":3012:3025   */\n              lt\n                /* \"#utility.yul\":3004:3117   */\n              iszero\n              tag_169\n              jumpi\n                /* \"#utility.yul\":3103:3104   */\n              dup1\n                /* \"#utility.yul\":3098:3101   */\n              dup3\n                /* \"#utility.yul\":3094:3105   */\n              add\n                /* \"#utility.yul\":3088:3106   */\n              mload\n                /* \"#utility.yul\":3084:3085   */\n              dup2\n                /* \"#utility.yul\":3079:3082   */\n              dup5\n                /* \"#utility.yul\":3075:3086   */\n              add\n                /* \"#utility.yul\":3068:3107   */\n              mstore\n                /* \"#utility.yul\":3040:3042   */\n              0x20\n                /* \"#utility.yul\":3037:3038   */\n              dup2\n                /* \"#utility.yul\":3033:3043   */\n              add\n                /* \"#utility.yul\":3028:3043   */\n              swap1\n              pop\n                /* \"#utility.yul\":3004:3117   */\n              jump(tag_167)\n            tag_169:\n                /* \"#utility.yul\":3135:3141   */\n              dup4\n                /* \"#utility.yul\":3132:3133   */\n              dup2\n                /* \"#utility.yul\":3129:3142   */\n              gt\n                /* \"#utility.yul\":3126:3227   */\n              iszero\n              tag_170\n              jumpi\n                /* \"#utility.yul\":3215:3216   */\n              0x00\n                /* \"#utility.yul\":3206:3212   */\n              dup5\n                /* \"#utility.yul\":3201:3204   */\n              dup5\n                /* \"#utility.yul\":3197:3213   */\n              add\n                /* \"#utility.yul\":3190:3217   */\n              mstore\n                /* \"#utility.yul\":3126:3227   */\n            tag_170:\n                /* \"#utility.yul\":2975:3233   */\n              pop\n                /* \"#utility.yul\":2926:3233   */\n              pop\n              pop\n              pop\n              jump\t// out\n                /* \"#utility.yul\":3239:3341   */\n            tag_110:\n                /* \"#utility.yul\":3280:3286   */\n              0x00\n                /* \"#utility.yul\":3331:3333   */\n              0x1f\n                /* \"#utility.yul\":3327:3334   */\n              not\n                /* \"#utility.yul\":3322:3324   */\n              0x1f\n                /* \"#utility.yul\":3315:3320   */\n              dup4\n                /* \"#utility.yul\":3311:3325   */\n              add\n                /* \"#utility.yul\":3307:3335   */\n              and\n                /* \"#utility.yul\":3297:3335   */\n              swap1\n              pop\n                /* \"#utility.yul\":3239:3341   */\n              swap2\n              swap1\n              pop\n              jump\t// out\n                /* \"#utility.yul\":3347:3711   */\n            tag_111:\n                /* \"#utility.yul\":3435:3438   */\n              0x00\n                /* \"#utility.yul\":3463:3502   */\n              tag_173\n                /* \"#utility.yul\":3496:3501   */\n              dup3\n                /* \"#utility.yul\":3463:3502   */\n              tag_107\n              jump\t// in\n            tag_173:\n                /* \"#utility.yul\":3518:3589   */\n              tag_174\n                /* \"#utility.yul\":3582:3588   */\n              dup2\n                /* \"#utility.yul\":3577:3580   */\n              dup6\n                /* \"#utility.yul\":3518:3589   */\n              tag_108\n              jump\t// in\n            tag_174:\n                /* \"#utility.yul\":3511:3589   */\n              swap4\n              pop\n                /* \"#utility.yul\":3598:3650   */\n              tag_175\n                /* \"#utility.yul\":3643:3649   */\n              dup2\n                /* \"#utility.yul\":3638:3641   */\n              dup6\n                /* \"#utility.yul\":3631:3635   */\n              0x20\n                /* \"#utility.yul\":3624:3629   */\n              dup7\n                /* \"#utility.yul\":3620:3636   */\n              add\n                /* \"#utility.yul\":3598:3650   */\n              tag_109\n              jump\t// in\n            tag_175:\n                /* \"#utility.yul\":3675:3704   */\n              tag_176\n                /* \"#utility.yul\":3697:3703   */\n              dup2\n                /* \"#utility.yul\":3675:3704   */\n              tag_110\n              jump\t// in\n            tag_176:\n                /* \"#utility.yul\":3670:3673   */\n              dup5\n                /* \"#utility.yul\":3666:3705   */\n              add\n                /* \"#utility.yul\":3659:3705   */\n              swap2\n              pop\n                /* \"#utility.yul\":3439:3711   */\n              pop\n                /* \"#utility.yul\":3347:3711   */\n              swap3\n              swap2\n              pop\n              pop\n              jump\t// out\n                /* \"#utility.yul\":3717:3835   */\n            tag_112:\n                /* \"#utility.yul\":3804:3828   */\n              tag_178\n                /* \"#utility.yul\":3822:3827   */\n              dup2\n                /* \"#utility.yul\":3804:3828   */\n              tag_97\n              jump\t// in\n            tag_178:\n                /* \"#utility.yul\":3799:3802   */\n              dup3\n                /* \"#utility.yul\":3792:3829   */\n              mstore\n                /* \"#utility.yul\":3717:3835   */\n              pop\n              pop\n              jump\t// out\n                /* \"#utility.yul\":3841:3945   */\n            tag_113:\n                /* \"#utility.yul\":3886:3893   */\n              0x00\n                /* \"#utility.yul\":3915:3939   */\n              tag_180\n                /* \"#utility.yul\":3933:3938   */\n              dup3\n                /* \"#utility.yul\":3915:3939   */\n              tag_100\n              jump\t// in\n            tag_180:\n                /* \"#utility.yul\":3904:3939   */\n              swap1\n              pop\n                /* \"#utility.yul\":3841:3945   */\n              swap2\n              swap1\n              pop\n              jump\t// out\n                /* \"#utility.yul\":3951:4093   */\n            tag_114:\n                /* \"#utility.yul\":4054:4086   */\n              tag_182\n                /* \"#utility.yul\":4080:4085   */\n              dup2\n                /* \"#utility.yul\":4054:4086   */\n              tag_113\n              jump\t// in\n            tag_182:\n                /* \"#utility.yul\":4049:4052   */\n              dup3\n                /* \"#utility.yul\":4042:4087   */\n              mstore\n                /* \"#utility.yul\":3951:4093   */\n              pop\n              pop\n              jump\t// out\n                /* \"#utility.yul\":4099:4874   */\n            tag_34:\n                /* \"#utility.yul\":4334:4338   */\n              0x00\n                /* \"#utility.yul\":4372:4375   */\n              0xa0\n                /* \"#utility.yul\":4361:4370   */\n              dup3\n                /* \"#utility.yul\":4357:4376   */\n              add\n                /* \"#utility.yul\":4349:4376   */\n              swap1\n              pop\n                /* \"#utility.yul\":4422:4431   */\n              dup2\n                /* \"#utility.yul\":4416:4420   */\n              dup2\n                /* \"#utility.yul\":4412:4432   */\n              sub\n                /* \"#utility.yul\":4408:4409   */\n              0x00\n                /* \"#utility.yul\":4397:4406   */\n              dup4\n                /* \"#utility.yul\":4393:4410   */\n              add\n                /* \"#utility.yul\":4386:4433   */\n              mstore\n                /* \"#utility.yul\":4450:4528   */\n              tag_184\n                /* \"#utility.yul\":4523:4527   */\n              dup2\n                /* \"#utility.yul\":4514:4520   */\n              dup9\n                /* \"#utility.yul\":4450:4528   */\n              tag_111\n              jump\t// in\n            tag_184:\n                /* \"#utility.yul\":4442:4528   */\n              swap1\n              pop\n                /* \"#utility.yul\":4538:4610   */\n              tag_185\n                /* \"#utility.yul\":4606:4608   */\n              0x20\n                /* \"#utility.yul\":4595:4604   */\n              dup4\n                /* \"#utility.yul\":4591:4609   */\n              add\n                /* \"#utility.yul\":4582:4588   */\n              dup8\n                /* \"#utility.yul\":4538:4610   */\n              tag_112\n              jump\t// in\n            tag_185:\n                /* \"#utility.yul\":4620:4708   */\n              tag_186\n                /* \"#utility.yul\":4704:4706   */\n              0x40\n                /* \"#utility.yul\":4693:4702   */\n              dup4\n                /* \"#utility.yul\":4689:4707   */\n              add\n                /* \"#utility.yul\":4680:4686   */\n              dup7\n                /* \"#utility.yul\":4620:4708   */\n              tag_114\n              jump\t// in\n            tag_186:\n                /* \"#utility.yul\":4718:4784   */\n              tag_187\n                /* \"#utility.yul\":4780:4782   */\n              0x60\n                /* \"#utility.yul\":4769:4778   */\n              dup4\n                /* \"#utility.yul\":4765:4783   */\n              add\n                /* \"#utility.yul\":4756:4762   */\n              dup6\n                /* \"#utility.yul\":4718:4784   */\n              tag_105\n              jump\t// in\n            tag_187:\n                /* \"#utility.yul\":4794:4867   */\n              tag_188\n                /* \"#utility.yul\":4862:4865   */\n              0x80\n                /* \"#utility.yul\":4851:4860   */\n              dup4\n                /* \"#utility.yul\":4847:4866   */\n              add\n                /* \"#utility.yul\":4838:4844   */\n              dup5\n                /* \"#utility.yul\":4794:4867   */\n              tag_112\n              jump\t// in\n            tag_188:\n                /* \"#utility.yul\":4099:4874   */\n              swap7\n              swap6\n              pop\n              pop\n              pop\n              pop\n              pop\n              pop\n              jump\t// out\n                /* \"#utility.yul\":4880:5102   */\n            tag_39:\n                /* \"#utility.yul\":4973:4977   */\n              0x00\n                /* \"#utility.yul\":5011:5013   */\n              0x20\n                /* \"#utility.yul\":5000:5009   */\n              dup3\n                /* \"#utility.yul\":4996:5014   */\n              add\n                /* \"#utility.yul\":4988:5014   */\n              swap1\n              pop\n                /* \"#utility.yul\":5024:5095   */\n              tag_190\n                /* \"#utility.yul\":5092:5093   */\n              0x00\n                /* \"#utility.yul\":5081:5090   */\n              dup4\n                /* \"#utility.yul\":5077:5094   */\n              add\n                /* \"#utility.yul\":5068:5074   */\n              dup5\n                /* \"#utility.yul\":5024:5095   */\n              tag_112\n              jump\t// in\n            tag_190:\n                /* \"#utility.yul\":4880:5102   */\n              swap3\n              swap2\n              pop\n              pop\n              jump\t// out\n                /* \"#utility.yul\":5108:5225   */\n            tag_115:\n                /* \"#utility.yul\":5217:5218   */\n              0x00\n                /* \"#utility.yul\":5214:5215   */\n              dup1\n                /* \"#utility.yul\":5207:5219   */\n              revert\n                /* \"#utility.yul\":5231:5348   */\n            tag_116:\n                /* \"#utility.yul\":5340:5341   */\n              0x00\n                /* \"#utility.yul\":5337:5338   */\n              dup1\n                /* \"#utility.yul\":5330:5342   */\n              revert\n                /* \"#utility.yul\":5354:5534   */\n            tag_117:\n                /* \"#utility.yul\":5402:5479   */\n              0x4e487b7100000000000000000000000000000000000000000000000000000000\n                /* \"#utility.yul\":5399:5400   */\n              0x00\n                /* \"#utility.yul\":5392:5480   */\n              mstore\n                /* \"#utility.yul\":5499:5503   */\n              0x41\n                /* \"#utility.yul\":5496:5497   */\n              0x04\n                /* \"#utility.yul\":5489:5504   */\n              mstore\n                /* \"#utility.yul\":5523:5527   */\n              0x24\n                /* \"#utility.yul\":5520:5521   */\n              0x00\n                /* \"#utility.yul\":5513:5528   */\n              revert\n                /* \"#utility.yul\":5540:5821   */\n            tag_118:\n                /* \"#utility.yul\":5623:5650   */\n              tag_195\n                /* \"#utility.yul\":5645:5649   */\n              dup3\n                /* \"#utility.yul\":5623:5650   */\n              tag_110\n              jump\t// in\n            tag_195:\n                /* \"#utility.yul\":5615:5621   */\n              dup2\n                /* \"#utility.yul\":5611:5651   */\n              add\n                /* \"#utility.yul\":5753:5759   */\n              dup2\n                /* \"#utility.yul\":5741:5751   */\n              dup2\n                /* \"#utility.yul\":5738:5760   */\n              lt\n                /* \"#utility.yul\":5717:5735   */\n              0xffffffffffffffff\n                /* \"#utility.yul\":5705:5715   */\n              dup3\n                /* \"#utility.yul\":5702:5736   */\n              gt\n                /* \"#utility.yul\":5699:5761   */\n              or\n                /* \"#utility.yul\":5696:5784   */\n              iszero\n              tag_196\n              jumpi\n                /* \"#utility.yul\":5764:5782   */\n              tag_197\n              tag_117\n              jump\t// in\n            tag_197:\n                /* \"#utility.yul\":5696:5784   */\n            tag_196:\n                /* \"#utility.yul\":5804:5814   */\n              dup1\n                /* \"#utility.yul\":5800:5802   */\n              0x40\n                /* \"#utility.yul\":5793:5815   */\n              mstore\n                /* \"#utility.yul\":5583:5821   */\n              pop\n                /* \"#utility.yul\":5540:5821   */\n              pop\n              pop\n              jump\t// out\n                /* \"#utility.yul\":5827:5956   */\n            tag_119:\n                /* \"#utility.yul\":5861:5867   */\n              0x00\n                /* \"#utility.yul\":5888:5908   */\n              tag_199\n              tag_94\n              jump\t// in\n            tag_199:\n                /* \"#utility.yul\":5878:5908   */\n              swap1\n              pop\n                /* \"#utility.yul\":5917:5950   */\n              tag_200\n                /* \"#utility.yul\":5945:5949   */\n              dup3\n                /* \"#utility.yul\":5937:5943   */\n              dup3\n                /* \"#utility.yul\":5917:5950   */\n              tag_118\n              jump\t// in\n            tag_200:\n                /* \"#utility.yul\":5827:5956   */\n              swap2\n              swap1\n              pop\n              jump\t// out\n                /* \"#utility.yul\":5962:6270   */\n            tag_120:\n                /* \"#utility.yul\":6024:6028   */\n              0x00\n                /* \"#utility.yul\":6114:6132   */\n              0xffffffffffffffff\n                /* \"#utility.yul\":6106:6112   */\n              dup3\n                /* \"#utility.yul\":6103:6133   */\n              gt\n                /* \"#utility.yul\":6100:6156   */\n              iszero\n              tag_202\n              jumpi\n                /* \"#utility.yul\":6136:6154   */\n              tag_203\n              tag_117\n              jump\t// in\n            tag_203:\n                /* \"#utility.yul\":6100:6156   */\n            tag_202:\n                /* \"#utility.yul\":6174:6203   */\n              tag_204\n                /* \"#utility.yul\":6196:6202   */\n              dup3\n                /* \"#utility.yul\":6174:6203   */\n              tag_110\n              jump\t// in\n            tag_204:\n                /* \"#utility.yul\":6166:6203   */\n              swap1\n              pop\n                /* \"#utility.yul\":6258:6262   */\n              0x20\n                /* \"#utility.yul\":6252:6256   */\n              dup2\n                /* \"#utility.yul\":6248:6263   */\n              add\n                /* \"#utility.yul\":6240:6263   */\n              swap1\n              pop\n                /* \"#utility.yul\":5962:6270   */\n              swap2\n              swap1\n              pop\n              jump\t// out\n                /* \"#utility.yul\":6276:6430   */\n            tag_121:\n                /* \"#utility.yul\":6360:6366   */\n              dup3\n                /* \"#utility.yul\":6355:6358   */\n              dup2\n                /* \"#utility.yul\":6350:6353   */\n              dup4\n                /* \"#utility.yul\":6337:6367   */\n              calldatacopy\n                /* \"#utility.yul\":6422:6423   */\n              0x00\n                /* \"#utility.yul\":6413:6419   */\n              dup4\n                /* \"#utility.yul\":6408:6411   */\n              dup4\n                /* \"#utility.yul\":6404:6420   */\n              add\n                /* \"#utility.yul\":6397:6424   */\n              mstore\n                /* \"#utility.yul\":6276:6430   */\n              pop\n              pop\n              pop\n              jump\t// out\n                /* \"#utility.yul\":6436:6848   */\n            tag_122:\n                /* \"#utility.yul\":6514:6519   */\n              0x00\n                /* \"#utility.yul\":6539:6605   */\n              tag_207\n                /* \"#utility.yul\":6555:6604   */\n              tag_208\n                /* \"#utility.yul\":6597:6603   */\n              dup5\n                /* \"#utility.yul\":6555:6604   */\n              tag_120\n              jump\t// in\n            tag_208:\n                /* \"#utility.yul\":6539:6605   */\n              tag_119\n              jump\t// in\n            tag_207:\n                /* \"#utility.yul\":6530:6605   */\n              swap1\n              pop\n                /* \"#utility.yul\":6628:6634   */\n              dup3\n                /* \"#utility.yul\":6621:6626   */\n              dup2\n                /* \"#utility.yul\":6614:6635   */\n              mstore\n                /* \"#utility.yul\":6666:6670   */\n              0x20\n                /* \"#utility.yul\":6659:6664   */\n              dup2\n                /* \"#utility.yul\":6655:6671   */\n              add\n                /* \"#utility.yul\":6704:6707   */\n              dup5\n                /* \"#utility.yul\":6695:6701   */\n              dup5\n                /* \"#utility.yul\":6690:6693   */\n              dup5\n                /* \"#utility.yul\":6686:6702   */\n              add\n                /* \"#utility.yul\":6683:6708   */\n              gt\n                /* \"#utility.yul\":6680:6792   */\n              iszero\n              tag_209\n              jumpi\n                /* \"#utility.yul\":6711:6790   */\n              tag_210\n              tag_116\n              jump\t// in\n            tag_210:\n                /* \"#utility.yul\":6680:6792   */\n            tag_209:\n                /* \"#utility.yul\":6801:6842   */\n              tag_211\n                /* \"#utility.yul\":6835:6841   */\n              dup5\n                /* \"#utility.yul\":6830:6833   */\n              dup3\n                /* \"#utility.yul\":6825:6828   */\n              dup6\n                /* \"#utility.yul\":6801:6842   */\n              tag_121\n              jump\t// in\n            tag_211:\n                /* \"#utility.yul\":6520:6848   */\n              pop\n                /* \"#utility.yul\":6436:6848   */\n              swap4\n              swap3\n              pop\n              pop\n              pop\n              jump\t// out\n                /* \"#utility.yul\":6868:7208   */\n            tag_123:\n                /* \"#utility.yul\":6924:6929   */\n              0x00\n                /* \"#utility.yul\":6973:6976   */\n              dup3\n                /* \"#utility.yul\":6966:6970   */\n              0x1f\n                /* \"#utility.yul\":6958:6964   */\n              dup4\n                /* \"#utility.yul\":6954:6971   */\n              add\n                /* \"#utility.yul\":6950:6977   */\n              slt\n                /* \"#utility.yul\":6940:7062   */\n              tag_213\n              jumpi\n                /* \"#utility.yul\":6981:7060   */\n              tag_214\n              tag_115\n              jump\t// in\n            tag_214:\n                /* \"#utility.yul\":6940:7062   */\n            tag_213:\n                /* \"#utility.yul\":7098:7104   */\n              dup2\n                /* \"#utility.yul\":7085:7105   */\n              calldataload\n                /* \"#utility.yul\":7123:7202   */\n              tag_215\n                /* \"#utility.yul\":7198:7201   */\n              dup5\n                /* \"#utility.yul\":7190:7196   */\n              dup3\n                /* \"#utility.yul\":7183:7187   */\n              0x20\n                /* \"#utility.yul\":7175:7181   */\n              dup7\n                /* \"#utility.yul\":7171:7188   */\n              add\n                /* \"#utility.yul\":7123:7202   */\n              tag_122\n              jump\t// in\n            tag_215:\n                /* \"#utility.yul\":7114:7202   */\n              swap2\n              pop\n                /* \"#utility.yul\":6930:7208   */\n              pop\n                /* \"#utility.yul\":6868:7208   */\n              swap3\n              swap2\n              pop\n              pop\n              jump\t// out\n                /* \"#utility.yul\":7214:7352   */\n            tag_124:\n                /* \"#utility.yul\":7295:7327   */\n              tag_217\n                /* \"#utility.yul\":7321:7326   */\n              dup2\n                /* \"#utility.yul\":7295:7327   */\n              tag_113\n              jump\t// in\n            tag_217:\n                /* \"#utility.yul\":7288:7293   */\n              dup2\n                /* \"#utility.yul\":7285:7328   */\n              eq\n                /* \"#utility.yul\":7275:7346   */\n              tag_218\n              jumpi\n                /* \"#utility.yul\":7342:7343   */\n              0x00\n                /* \"#utility.yul\":7339:7340   */\n              dup1\n                /* \"#utility.yul\":7332:7344   */\n              revert\n                /* \"#utility.yul\":7275:7346   */\n            tag_218:\n                /* \"#utility.yul\":7214:7352   */\n              pop\n              jump\t// out\n                /* \"#utility.yul\":7358:7513   */\n            tag_125:\n                /* \"#utility.yul\":7412:7417   */\n              0x00\n                /* \"#utility.yul\":7450:7456   */\n              dup2\n                /* \"#utility.yul\":7437:7457   */\n              calldataload\n                /* \"#utility.yul\":7428:7457   */\n              swap1\n              pop\n                /* \"#utility.yul\":7466:7507   */\n              tag_220\n                /* \"#utility.yul\":7501:7506   */\n              dup2\n                /* \"#utility.yul\":7466:7507   */\n              tag_124\n              jump\t// in\n            tag_220:\n                /* \"#utility.yul\":7358:7513   */\n              swap3\n              swap2\n              pop\n              pop\n              jump\t// out\n                /* \"#utility.yul\":7519:8334   */\n            tag_43:\n                /* \"#utility.yul\":7614:7620   */\n              0x00\n                /* \"#utility.yul\":7622:7628   */\n              dup1\n                /* \"#utility.yul\":7630:7636   */\n              0x00\n                /* \"#utility.yul\":7679:7681   */\n              0x60\n                /* \"#utility.yul\":7667:7676   */\n              dup5\n                /* \"#utility.yul\":7658:7665   */\n              dup7\n                /* \"#utility.yul\":7654:7677   */\n              sub\n                /* \"#utility.yul\":7650:7682   */\n              slt\n                /* \"#utility.yul\":7647:7766   */\n              iszero\n              tag_222\n              jumpi\n                /* \"#utility.yul\":7685:7764   */\n              tag_223\n              tag_95\n              jump\t// in\n            tag_223:\n                /* \"#utility.yul\":7647:7766   */\n            tag_222:\n                /* \"#utility.yul\":7833:7834   */\n              0x00\n                /* \"#utility.yul\":7822:7831   */\n              dup5\n                /* \"#utility.yul\":7818:7835   */\n              add\n                /* \"#utility.yul\":7805:7836   */\n              calldataload\n                /* \"#utility.yul\":7863:7881   */\n              0xffffffffffffffff\n                /* \"#utility.yul\":7855:7861   */\n              dup2\n                /* \"#utility.yul\":7852:7882   */\n              gt\n                /* \"#utility.yul\":7849:7966   */\n              iszero\n              tag_224\n              jumpi\n                /* \"#utility.yul\":7885:7964   */\n              tag_225\n              tag_96\n              jump\t// in\n            tag_225:\n                /* \"#utility.yul\":7849:7966   */\n            tag_224:\n                /* \"#utility.yul\":7990:8053   */\n              tag_226\n                /* \"#utility.yul\":8045:8052   */\n              dup7\n                /* \"#utility.yul\":8036:8042   */\n              dup3\n                /* \"#utility.yul\":8025:8034   */\n              dup8\n                /* \"#utility.yul\":8021:8043   */\n              add\n                /* \"#utility.yul\":7990:8053   */\n              tag_123\n              jump\t// in\n            tag_226:\n                /* \"#utility.yul\":7980:8053   */\n              swap4\n              pop\n                /* \"#utility.yul\":7776:8063   */\n              pop\n                /* \"#utility.yul\":8102:8104   */\n              0x20\n                /* \"#utility.yul\":8128:8181   */\n              tag_227\n                /* \"#utility.yul\":8173:8180   */\n              dup7\n                /* \"#utility.yul\":8164:8170   */\n              dup3\n                /* \"#utility.yul\":8153:8162   */\n              dup8\n                /* \"#utility.yul\":8149:8171   */\n              add\n                /* \"#utility.yul\":8128:8181   */\n              tag_99\n              jump\t// in\n            tag_227:\n                /* \"#utility.yul\":8118:8181   */\n              swap3\n              pop\n                /* \"#utility.yul\":8073:8191   */\n              pop\n                /* \"#utility.yul\":8230:8232   */\n              0x40\n                /* \"#utility.yul\":8256:8317   */\n              tag_228\n                /* \"#utility.yul\":8309:8316   */\n              dup7\n                /* \"#utility.yul\":8300:8306   */\n              dup3\n                /* \"#utility.yul\":8289:8298   */\n              dup8\n                /* \"#utility.yul\":8285:8307   */\n              add\n                /* \"#utility.yul\":8256:8317   */\n              tag_125\n              jump\t// in\n            tag_228:\n                /* \"#utility.yul\":8246:8317   */\n              swap2\n              pop\n                /* \"#utility.yul\":8201:8327   */\n              pop\n                /* \"#utility.yul\":7519:8334   */\n              swap3\n              pop\n              swap3\n              pop\n              swap3\n              jump\t// out\n                /* \"#utility.yul\":8340:8520   */\n            tag_126:\n                /* \"#utility.yul\":8388:8465   */\n              0x4e487b7100000000000000000000000000000000000000000000000000000000\n                /* \"#utility.yul\":8385:8386   */\n              0x00\n                /* \"#utility.yul\":8378:8466   */\n              mstore\n                /* \"#utility.yul\":8485:8489   */\n              0x12\n                /* \"#utility.yul\":8482:8483   */\n              0x04\n                /* \"#utility.yul\":8475:8490   */\n              mstore\n                /* \"#utility.yul\":8509:8513   */\n              0x24\n                /* \"#utility.yul\":8506:8507   */\n              0x00\n                /* \"#utility.yul\":8499:8514   */\n              revert\n                /* \"#utility.yul\":8526:8706   */\n            tag_127:\n                /* \"#utility.yul\":8574:8651   */\n              0x4e487b7100000000000000000000000000000000000000000000000000000000\n                /* \"#utility.yul\":8571:8572   */\n              0x00\n                /* \"#utility.yul\":8564:8652   */\n              mstore\n                /* \"#utility.yul\":8671:8675   */\n              0x11\n                /* \"#utility.yul\":8668:8669   */\n              0x04\n                /* \"#utility.yul\":8661:8676   */\n              mstore\n                /* \"#utility.yul\":8695:8699   */\n              0x24\n                /* \"#utility.yul\":8692:8693   */\n              0x00\n                /* \"#utility.yul\":8685:8700   */\n              revert\n                /* \"#utility.yul\":8712:8897   */\n            tag_59:\n                /* \"#utility.yul\":8752:8753   */\n              0x00\n                /* \"#utility.yul\":8769:8789   */\n              tag_232\n                /* \"#utility.yul\":8787:8788   */\n              dup3\n                /* \"#utility.yul\":8769:8789   */\n              tag_97\n              jump\t// in\n            tag_232:\n                /* \"#utility.yul\":8764:8789   */\n              swap2\n              pop\n                /* \"#utility.yul\":8803:8823   */\n              tag_233\n                /* \"#utility.yul\":8821:8822   */\n              dup4\n                /* \"#utility.yul\":8803:8823   */\n              tag_97\n              jump\t// in\n            tag_233:\n                /* \"#utility.yul\":8798:8823   */\n              swap3\n              pop\n                /* \"#utility.yul\":8842:8843   */\n              dup3\n                /* \"#utility.yul\":8832:8867   */\n              tag_234\n              jumpi\n                /* \"#utility.yul\":8847:8865   */\n              tag_235\n              tag_126\n              jump\t// in\n            tag_235:\n                /* \"#utility.yul\":8832:8867   */\n            tag_234:\n                /* \"#utility.yul\":8889:8890   */\n              dup3\n                /* \"#utility.yul\":8886:8887   */\n              dup3\n                /* \"#utility.yul\":8882:8891   */\n              div\n                /* \"#utility.yul\":8877:8891   */\n              swap1\n              pop\n                /* \"#utility.yul\":8712:8897   */\n              swap3\n              swap2\n              pop\n              pop\n              jump\t// out\n                /* \"#utility.yul\":8903:9083   */\n            tag_128:\n                /* \"#utility.yul\":8951:9028   */\n              0x4e487b7100000000000000000000000000000000000000000000000000000000\n                /* \"#utility.yul\":8948:8949   */\n              0x00\n                /* \"#utility.yul\":8941:9029   */\n              mstore\n                /* \"#utility.yul\":9048:9052   */\n              0x22\n                /* \"#utility.yul\":9045:9046   */\n              0x04\n                /* \"#utility.yul\":9038:9053   */\n              mstore\n                /* \"#utility.yul\":9072:9076   */\n              0x24\n                /* \"#utility.yul\":9069:9070   */\n              0x00\n                /* \"#utility.yul\":9062:9077   */\n              revert\n                /* \"#utility.yul\":9089:9409   */\n            tag_65:\n                /* \"#utility.yul\":9133:9139   */\n              0x00\n                /* \"#utility.yul\":9170:9171   */\n              0x02\n                /* \"#utility.yul\":9164:9168   */\n              dup3\n                /* \"#utility.yul\":9160:9172   */\n              div\n                /* \"#utility.yul\":9150:9172   */\n              swap1\n              pop\n                /* \"#utility.yul\":9217:9218   */\n              0x01\n                /* \"#utility.yul\":9211:9215   */\n              dup3\n                /* \"#utility.yul\":9207:9219   */\n              and\n                /* \"#utility.yul\":9238:9256   */\n              dup1\n                /* \"#utility.yul\":9228:9309   */\n              tag_238\n              jumpi\n                /* \"#utility.yul\":9294:9298   */\n              0x7f\n                /* \"#utility.yul\":9286:9292   */\n              dup3\n                /* \"#utility.yul\":9282:9299   */\n              and\n                /* \"#utility.yul\":9272:9299   */\n              swap2\n              pop\n                /* \"#utility.yul\":9228:9309   */\n            tag_238:\n                /* \"#utility.yul\":9356:9358   */\n              0x20\n                /* \"#utility.yul\":9348:9354   */\n              dup3\n                /* \"#utility.yul\":9345:9359   */\n              lt\n                /* \"#utility.yul\":9325:9343   */\n              dup2\n                /* \"#utility.yul\":9322:9360   */\n              sub\n                /* \"#utility.yul\":9319:9403   */\n              tag_239\n              jumpi\n                /* \"#utility.yul\":9375:9393   */\n              tag_240\n              tag_128\n              jump\t// in\n            tag_240:\n                /* \"#utility.yul\":9319:9403   */\n            tag_239:\n                /* \"#utility.yul\":9140:9409   */\n              pop\n                /* \"#utility.yul\":9089:9409   */\n              swap2\n              swap1\n              pop\n              jump\t// out\n                /* \"#utility.yul\":9415:9648   */\n            tag_74:\n                /* \"#utility.yul\":9454:9457   */\n              0x00\n                /* \"#utility.yul\":9477:9501   */\n              tag_242\n                /* \"#utility.yul\":9495:9500   */\n              dup3\n                /* \"#utility.yul\":9477:9501   */\n              tag_97\n              jump\t// in\n            tag_242:\n                /* \"#utility.yul\":9468:9501   */\n              swap2\n              pop\n                /* \"#utility.yul\":9523:9589   */\n              0xffffffffffffffffffffffffffffffffffffffffffffffffffffffffffffffff\n                /* \"#utility.yul\":9516:9521   */\n              dup3\n                /* \"#utility.yul\":9513:9590   */\n              sub\n                /* \"#utility.yul\":9510:9613   */\n              tag_243\n              jumpi\n                /* \"#utility.yul\":9593:9611   */\n              tag_244\n              tag_127\n              jump\t// in\n            tag_244:\n                /* \"#utility.yul\":9510:9613   */\n            tag_243:\n                /* \"#utility.yul\":9640:9641   */\n              0x01\n                /* \"#utility.yul\":9633:9638   */\n              dup3\n                /* \"#utility.yul\":9629:9642   */\n              add\n                /* \"#utility.yul\":9622:9642   */\n              swap1\n              pop\n                /* \"#utility.yul\":9415:9648   */\n              swap2\n              swap1\n              pop\n              jump\t// out\n\n            auxdata: 0xa2646970667358221220ac21fee278e225409521a45b287e56dfae7fbcfac0164ad956cdd358d4a9e4c864736f6c634300080d0033\n        }\n    }\n\n    auxdata: 0xa26469706673582212206ce25fc24435d2b1446973d0e87c9e24ab85ba8d2578950b87502ed958b4a04564736f6c634300080d0033\n}\n","bytecode":{"linkReferences":{},"object":"608060405234801561001057600080fd5b5061139b806100206000396000f3fe608060405234801561001057600080fd5b50600436106100415760003560e01c80631104f603146100465780635faa865d14610076578063d37b127b14610094575b600080fd5b610060600480360381019061005b9190610266565b6100b0565b60405161006d91906102d4565b60405180910390f35b61007e6100ef565b60405161008b91906103ad565b60405180910390f35b6100ae60048036038101906100a99190610266565b61017d565b005b600081815481106100c057600080fd5b906000526020600020016000915054906101000a900473ffffffffffffffffffffffffffffffffffffffff1681565b6060600080548060200260200160405190810160405280929190818152602001828054801561017357602002820191906000526020600020905b8160009054906101000a900473ffffffffffffffffffffffffffffffffffffffff1673ffffffffffffffffffffffffffffffffffffffff1681526020019060010190808311610129575b5050505050905090565b6000813360405161018d9061021e565b6101989291906103de565b604051809103906000f0801580156101b4573d6000803e3d6000fd5b5090506000819080600181540180825580915050600190039060005260206000200160009091909190916101000a81548173ffffffffffffffffffffffffffffffffffffffff021916908373ffffffffffffffffffffffffffffffffffffffff1602179055505050565b610f5e8061040883390190565b600080fd5b6000819050919050565b61024381610230565b811461024e57600080fd5b50565b6000813590506102608161023a565b92915050565b60006020828403121561027c5761027b61022b565b5b600061028a84828501610251565b91505092915050565b600073ffffffffffffffffffffffffffffffffffffffff82169050919050565b60006102be82610293565b9050919050565b6102ce816102b3565b82525050565b60006020820190506102e960008301846102c5565b92915050565b600081519050919050565b600082825260208201905092915050565b6000819050602082019050919050565b610324816102b3565b82525050565b6000610336838361031b565b60208301905092915050565b6000602082019050919050565b600061035a826102ef565b61036481856102fa565b935061036f8361030b565b8060005b838110156103a0578151610387888261032a565b975061039283610342565b925050600181019050610373565b5085935050505092915050565b600060208201905081810360008301526103c7818461034f565b905092915050565b6103d881610230565b82525050565b60006040820190506103f360008301856103cf565b61040060208301846102c5565b939250505056fe60806040523480156200001157600080fd5b5060405162000f5e38038062000f5e83398181016040528101906200003791906200012c565b80600260006101000a81548173ffffffffffffffffffffffffffffffffffffffff021916908373ffffffffffffffffffffffffffffffffffffffff16021790555081600381905550505062000173565b600080fd5b6000819050919050565b620000a1816200008c565b8114620000ad57600080fd5b50565b600081519050620000c18162000096565b92915050565b600073ffffffffffffffffffffffffffffffffffffffff82169050919050565b6000620000f482620000c7565b9050919050565b6200010681620000e7565b81146200011257600080fd5b50565b6000815190506200012681620000fb565b92915050565b6000806040838503121562000146576200014562000087565b5b60006200015685828601620000b0565b9250506020620001698582860162000115565b9150509250929050565b610ddb80620001836000396000f3fe6080604052600436106100865760003560e01c806382fde0931161005957806382fde0931461015d5780638a9cfd5514610188578063937e09b1146101b1578063d7bb99ba146101dc578063d7d1bbdb146101e657610086565b8063034410061461008b5780630a144391146100b4578063481c6a75146100f157806381d12c581461011c575b600080fd5b34801561009757600080fd5b506100b260048036038101906100ad9190610848565b61020f565b005b3480156100c057600080fd5b506100db60048036038101906100d691906108d3565b610349565b6040516100e8919061091b565b60405180910390f35b3480156100fd57600080fd5b50610106610369565b6040516101139190610945565b60405180910390f35b34801561012857600080fd5b50610143600480360381019061013e9190610848565b61038f565b604051610154959493929190610a29565b60405180910390f35b34801561016957600080fd5b5061017261047a565b60405161017f9190610a83565b60405180910390f35b34801561019457600080fd5b506101af60048036038101906101aa9190610bff565b610480565b005b3480156101bd57600080fd5b506101c6610598565b6040516101d39190610a83565b60405180910390f35b6101e461059e565b005b3480156101f257600080fd5b5061020d60048036038101906102089190610848565b61061e565b005b600260009054906101000a900473ffffffffffffffffffffffffffffffffffffffff1673ffffffffffffffffffffffffffffffffffffffff163373ffffffffffffffffffffffffffffffffffffffff161461026957600080fd5b60008060008381526020019081526020016000209050600260055461028e9190610ccc565b81600301541161029d57600080fd5b8060020160149054906101000a900460ff16156102b957600080fd5b8060020160009054906101000a900473ffffffffffffffffffffffffffffffffffffffff1673ffffffffffffffffffffffffffffffffffffffff166108fc82600101549081150290604051600060405180830381858888f19350505050158015610327573d6000803e3d6000fd5b5060018160020160146101000a81548160ff0219169083151502179055505050565b60046020528060005260406000206000915054906101000a900460ff1681565b600260009054906101000a900473ffffffffffffffffffffffffffffffffffffffff1681565b60006020528060005260406000206000915090508060000180546103b290610d2c565b80601f01602080910402602001604051908101604052809291908181526020018280546103de90610d2c565b801561042b5780601f106104005761010080835404028352916020019161042b565b820191906000526020600020905b81548152906001019060200180831161040e57829003601f168201915b5050505050908060010154908060020160009054906101000a900473ffffffffffffffffffffffffffffffffffffffff16908060020160149054906101000a900460ff16908060030154905085565b60055481565b600260009054906101000a900473ffffffffffffffffffffffffffffffffffffffff1673ffffffffffffffffffffffffffffffffffffffff163373ffffffffffffffffffffffffffffffffffffffff16146104da57600080fd5b6000806000600160008154809291906104f290610d5d565b91905055815260200190815260200160002090508381600001908051906020019061051e92919061075b565b50828160010181905550818160020160006101000a81548173ffffffffffffffffffffffffffffffffffffffff021916908373ffffffffffffffffffffffffffffffffffffffff16021790555060008160020160146101000a81548160ff0219169083151502179055506000816003018190555050505050565b60035481565b60035434116105ac57600080fd5b6001600460003373ffffffffffffffffffffffffffffffffffffffff1673ffffffffffffffffffffffffffffffffffffffff16815260200190815260200160002060006101000a81548160ff0219169083151502179055506005600081548092919061061790610d5d565b9190505550565b60008060008381526020019081526020016000209050600460003373ffffffffffffffffffffffffffffffffffffffff1673ffffffffffffffffffffffffffffffffffffffff16815260200190815260200160002060009054906101000a900460ff1661068a57600080fd5b8060040160003373ffffffffffffffffffffffffffffffffffffffff1673ffffffffffffffffffffffffffffffffffffffff16815260200190815260200160002060009054906101000a900460ff16156106e357600080fd5b60018160040160003373ffffffffffffffffffffffffffffffffffffffff1673ffffffffffffffffffffffffffffffffffffffff16815260200190815260200160002060006101000a81548160ff02191690831515021790555080600301600081548092919061075290610d5d565b91905055505050565b82805461076790610d2c565b90600052602060002090601f01602090048101928261078957600085556107d0565b82601f106107a257805160ff19168380011785556107d0565b828001600101855582156107d0579182015b828111156107cf5782518255916020019190600101906107b4565b5b5090506107dd91906107e1565b5090565b5b808211156107fa5760008160009055506001016107e2565b5090565b6000604051905090565b600080fd5b600080fd5b6000819050919050565b61082581610812565b811461083057600080fd5b50565b6000813590506108428161081c565b92915050565b60006020828403121561085e5761085d610808565b5b600061086c84828501610833565b91505092915050565b600073ffffffffffffffffffffffffffffffffffffffff82169050919050565b60006108a082610875565b9050919050565b6108b081610895565b81146108bb57600080fd5b50565b6000813590506108cd816108a7565b92915050565b6000602082840312156108e9576108e8610808565b5b60006108f7848285016108be565b91505092915050565b60008115159050919050565b61091581610900565b82525050565b6000602082019050610930600083018461090c565b92915050565b61093f81610895565b82525050565b600060208201905061095a6000830184610936565b92915050565b600081519050919050565b600082825260208201905092915050565b60005b8381101561099a57808201518184015260208101905061097f565b838111156109a9576000848401525b50505050565b6000601f19601f8301169050919050565b60006109cb82610960565b6109d5818561096b565b93506109e581856020860161097c565b6109ee816109af565b840191505092915050565b610a0281610812565b82525050565b6000610a1382610875565b9050919050565b610a2381610a08565b82525050565b600060a0820190508181036000830152610a4381886109c0565b9050610a5260208301876109f9565b610a5f6040830186610a1a565b610a6c606083018561090c565b610a7960808301846109f9565b9695505050505050565b6000602082019050610a9860008301846109f9565b92915050565b600080fd5b600080fd5b7f4e487b7100000000000000000000000000000000000000000000000000000000600052604160045260246000fd5b610ae0826109af565b810181811067ffffffffffffffff82111715610aff57610afe610aa8565b5b80604052505050565b6000610b126107fe565b9050610b1e8282610ad7565b919050565b600067ffffffffffffffff821115610b3e57610b3d610aa8565b5b610b47826109af565b9050602081019050919050565b82818337600083830152505050565b6000610b76610b7184610b23565b610b08565b905082815260208101848484011115610b9257610b91610aa3565b5b610b9d848285610b54565b509392505050565b600082601f830112610bba57610bb9610a9e565b5b8135610bca848260208601610b63565b91505092915050565b610bdc81610a08565b8114610be757600080fd5b50565b600081359050610bf981610bd3565b92915050565b600080600060608486031215610c1857610c17610808565b5b600084013567ffffffffffffffff811115610c3657610c3561080d565b5b610c4286828701610ba5565b9350506020610c5386828701610833565b9250506040610c6486828701610bea565b9150509250925092565b7f4e487b7100000000000000000000000000000000000000000000000000000000600052601260045260246000fd5b7f4e487b7100000000000000000000000000000000000000000000000000000000600052601160045260246000fd5b6000610cd782610812565b9150610ce283610812565b925082610cf257610cf1610c6e565b5b828204905092915050565b7f4e487b7100000000000000000000000000000000000000000000000000000000600052602260045260246000fd5b60006002820490506001821680610d4457607f821691505b602082108103610d5757610d56610cfd565b5b50919050565b6000610d6882610812565b91507fffffffffffffffffffffffffffffffffffffffffffffffffffffffffffffffff8203610d9a57610d99610c9d565b5b60018201905091905056fea2646970667358221220ac21fee278e225409521a45b287e56dfae7fbcfac0164ad956cdd358d4a9e4c864736f6c634300080d0033a26469706673582212206ce25fc24435d2b1446973d0e87c9e24ab85ba8d2578950b87502ed958b4a04564736f6c634300080d0033","opcodes":"PUSH1 0x80 PUSH1 0x40 MSTORE CALLVALUE DUP1 ISZERO PUSH2 0x10 JUMPI PUSH1 0x0 DUP1 REVERT JUMPDEST POP PUSH2 0x139B DUP1 PUSH2 0x20 PUSH1 0x0 CODECOPY PUSH1 0x0 RETURN INVALID PUSH1 0x80 PUSH1 0x40 MSTORE CALLVALUE DUP1 ISZERO PUSH2 0x10 JUMPI PUSH1 0x0 DUP1 REVERT JUMPDEST POP PUSH1 0x4 CALLDATASIZE LT PUSH2 0x41 JUMPI PUSH1 0x0 CALLDATALOAD PUSH1 0xE0 SHR DUP1 PUSH4 0x1104F603 EQ PUSH2 0x46 JUMPI DUP1 PUSH4 0x5FAA865D EQ PUSH2 0x76 JUMPI DUP1 PUSH4 0xD37B127B EQ PUSH2 0x94 JUMPI JUMPDEST PUSH1 0x0 DUP1 REVERT JUMPDEST PUSH2 0x60 PUSH1 0x4 DUP1 CALLDATASIZE SUB DUP2 ADD SWAP1 PUSH2 0x5B SWAP2 SWAP1 PUSH2 0x266 JUMP JUMPDEST PUSH2 0xB0 JUMP JUMPDEST PUSH1 0x40 MLOAD PUSH2 0x6D SWAP2 SWAP1 PUSH2 0x2D4 JUMP JUMPDEST PUSH1 0x40 MLOAD DUP1 SWAP2 SUB SWAP1 RETURN JUMPDEST PUSH2 0x7E PUSH2 0xEF JUMP JUMPDEST PUSH1 0x40 MLOAD PUSH2 0x8B SWAP2 SWAP1 PUSH2 0x3AD JUMP JUMPDEST PUSH1 0x40 MLOAD DUP1 SWAP2 SUB SWAP1 RETURN JUMPDEST PUSH2 0xAE PUSH1 0x4 DUP1 CALLDATASIZE SUB DUP2 ADD SWAP1 PUSH2 0xA9 SWAP2 SWAP1 PUSH2 0x266 JUMP JUMPDEST PUSH2 0x17D JUMP JUMPDEST STOP JUMPDEST PUSH1 0x0 DUP2 DUP2 SLOAD DUP2 LT PUSH2 0xC0 JUMPI PUSH1 0x0 DUP1 REVERT JUMPDEST SWAP1 PUSH1 0x0 MSTORE PUSH1 0x20 PUSH1 0x0 KECCAK256 ADD PUSH1 0x0 SWAP2 POP SLOAD SWAP1 PUSH2 0x100 EXP SWAP1 DIV PUSH20 0xFFFFFFFFFFFFFFFFFFFFFFFFFFFFFFFFFFFFFFFF AND DUP2 JUMP JUMPDEST PUSH1 0x60 PUSH1 0x0 DUP1 SLOAD DUP1 PUSH1 0x20 MUL PUSH1 0x20 ADD PUSH1 0x40 MLOAD SWAP1 DUP2 ADD PUSH1 0x40 MSTORE DUP1 SWAP3 SWAP2 SWAP1 DUP2 DUP2 MSTORE PUSH1 0x20 ADD DUP3 DUP1 SLOAD DUP1 ISZERO PUSH2 0x173 JUMPI PUSH1 0x20 MUL DUP3 ADD SWAP2 SWAP1 PUSH1 0x0 MSTORE PUSH1 0x20 PUSH1 0x0 KECCAK256 SWAP1 JUMPDEST DUP2 PUSH1 0x0 SWAP1 SLOAD SWAP1 PUSH2 0x100 EXP SWAP1 DIV PUSH20 0xFFFFFFFFFFFFFFFFFFFFFFFFFFFFFFFFFFFFFFFF AND PUSH20 0xFFFFFFFFFFFFFFFFFFFFFFFFFFFFFFFFFFFFFFFF AND DUP2 MSTORE PUSH1 0x20 ADD SWAP1 PUSH1 0x1 ADD SWAP1 DUP1 DUP4 GT PUSH2 0x129 JUMPI JUMPDEST POP POP POP POP POP SWAP1 POP SWAP1 JUMP JUMPDEST PUSH1 0x0 DUP2 CALLER PUSH1 0x40 MLOAD PUSH2 0x18D SWAP1 PUSH2 0x21E JUMP JUMPDEST PUSH2 0x198 SWAP3 SWAP2 SWAP1 PUSH2 0x3DE JUMP JUMPDEST PUSH1 0x40 MLOAD DUP1 SWAP2 SUB SWAP1 PUSH1 0x0 CREATE DUP1 ISZERO DUP1 ISZERO PUSH2 0x1B4 JUMPI RETURNDATASIZE PUSH1 0x0 DUP1 RETURNDATACOPY RETURNDATASIZE PUSH1 0x0 REVERT JUMPDEST POP SWAP1 POP PUSH1 0x0 DUP2 SWAP1 DUP1 PUSH1 0x1 DUP2 SLOAD ADD DUP1 DUP3 SSTORE DUP1 SWAP2 POP POP PUSH1 0x1 SWAP1 SUB SWAP1 PUSH1 0x0 MSTORE PUSH1 0x20 PUSH1 0x0 KECCAK256 ADD PUSH1 0x0 SWAP1 SWAP2 SWAP1 SWAP2 SWAP1 SWAP2 PUSH2 0x100 EXP DUP2 SLOAD DUP2 PUSH20 0xFFFFFFFFFFFFFFFFFFFFFFFFFFFFFFFFFFFFFFFF MUL NOT AND SWAP1 DUP4 PUSH20 0xFFFFFFFFFFFFFFFFFFFFFFFFFFFFFFFFFFFFFFFF AND MUL OR SWAP1 SSTORE POP POP POP JUMP JUMPDEST PUSH2 0xF5E DUP1 PUSH2 0x408 DUP4 CODECOPY ADD SWAP1 JUMP JUMPDEST PUSH1 0x0 DUP1 REVERT JUMPDEST PUSH1 0x0 DUP2 SWAP1 POP SWAP2 SWAP1 POP JUMP JUMPDEST PUSH2 0x243 DUP2 PUSH2 0x230 JUMP JUMPDEST DUP2 EQ PUSH2 0x24E JUMPI PUSH1 0x0 DUP1 REVERT JUMPDEST POP JUMP JUMPDEST PUSH1 0x0 DUP2 CALLDATALOAD SWAP1 POP PUSH2 0x260 DUP2 PUSH2 0x23A JUMP JUMPDEST SWAP3 SWAP2 POP POP JUMP JUMPDEST PUSH1 0x0 PUSH1 0x20 DUP3 DUP5 SUB SLT ISZERO PUSH2 0x27C JUMPI PUSH2 0x27B PUSH2 0x22B JUMP JUMPDEST JUMPDEST PUSH1 0x0 PUSH2 0x28A DUP5 DUP3 DUP6 ADD PUSH2 0x251 JUMP JUMPDEST SWAP2 POP POP SWAP3 SWAP2 POP POP JUMP JUMPDEST PUSH1 0x0 PUSH20 0xFFFFFFFFFFFFFFFFFFFFFFFFFFFFFFFFFFFFFFFF DUP3 AND SWAP1 POP SWAP2 SWAP1 POP JUMP JUMPDEST PUSH1 0x0 PUSH2 0x2BE DUP3 PUSH2 0x293 JUMP JUMPDEST SWAP1 POP SWAP2 SWAP1 POP JUMP JUMPDEST PUSH2 0x2CE DUP2 PUSH2 0x2B3 JUMP JUMPDEST DUP3 MSTORE POP POP JUMP JUMPDEST PUSH1 0x0 PUSH1 0x20 DUP3 ADD SWAP1 POP PUSH2 0x2E9 PUSH1 0x0 DUP4 ADD DUP5 PUSH2 0x2C5 JUMP JUMPDEST SWAP3 SWAP2 POP POP JUMP JUMPDEST PUSH1 0x0 DUP2 MLOAD SWAP1 POP SWAP2 SWAP1 POP JUMP JUMPDEST PUSH1 0x0 DUP3 DUP3 MSTORE PUSH1 0x20 DUP3 ADD SWAP1 POP SWAP3 SWAP2 POP POP JUMP JUMPDEST PUSH1 0x0 DUP2 SWAP1 POP PUSH1 0x20 DUP3 ADD SWAP1 POP SWAP2 SWAP1 POP JUMP JUMPDEST PUSH2 0x324 DUP2 PUSH2 0x2B3 JUMP JUMPDEST DUP3 MSTORE POP POP JUMP JUMPDEST PUSH1 0x0 PUSH2 0x336 DUP4 DUP4 PUSH2 0x31B JUMP JUMPDEST PUSH1 0x20 DUP4 ADD SWAP1 POP SWAP3 SWAP2 POP POP JUMP JUMPDEST PUSH1 0x0 PUSH1 0x20 DUP3 ADD SWAP1 POP SWAP2 SWAP1 POP JUMP JUMPDEST PUSH1 0x0 PUSH2 0x35A DUP3 PUSH2 0x2EF JUMP JUMPDEST PUSH2 0x364 DUP2 DUP6 PUSH2 0x2FA JUMP JUMPDEST SWAP4 POP PUSH2 0x36F DUP4 PUSH2 0x30B JUMP JUMPDEST DUP1 PUSH1 0x0 JUMPDEST DUP4 DUP2 LT ISZERO PUSH2 0x3A0 JUMPI DUP2 MLOAD PUSH2 0x387 DUP9 DUP3 PUSH2 0x32A JUMP JUMPDEST SWAP8 POP PUSH2 0x392 DUP4 PUSH2 0x342 JUMP JUMPDEST SWAP3 POP POP PUSH1 0x1 DUP2 ADD SWAP1 POP PUSH2 0x373 JUMP JUMPDEST POP DUP6 SWAP4 POP POP POP POP SWAP3 SWAP2 POP POP JUMP JUMPDEST PUSH1 0x0 PUSH1 0x20 DUP3 ADD SWAP1 POP DUP2 DUP2 SUB PUSH1 0x0 DUP4 ADD MSTORE PUSH2 0x3C7 DUP2 DUP5 PUSH2 0x34F JUMP JUMPDEST SWAP1 POP SWAP3 SWAP2 POP POP JUMP JUMPDEST PUSH2 0x3D8 DUP2 PUSH2 0x230 JUMP JUMPDEST DUP3 MSTORE POP POP JUMP JUMPDEST PUSH1 0x0 PUSH1 0x40 DUP3 ADD SWAP1 POP PUSH2 0x3F3 PUSH1 0x0 DUP4 ADD DUP6 PUSH2 0x3CF JUMP JUMPDEST PUSH2 0x400 PUSH1 0x20 DUP4 ADD DUP5 PUSH2 0x2C5 JUMP JUMPDEST SWAP4 SWAP3 POP POP POP JUMP INVALID PUSH1 0x80 PUSH1 0x40 MSTORE CALLVALUE DUP1 ISZERO PUSH3 0x11 JUMPI PUSH1 0x0 DUP1 REVERT JUMPDEST POP PUSH1 0x40 MLOAD PUSH3 0xF5E CODESIZE SUB DUP1 PUSH3 0xF5E DUP4 CODECOPY DUP2 DUP2 ADD PUSH1 0x40 MSTORE DUP2 ADD SWAP1 PUSH3 0x37 SWAP2 SWAP1 PUSH3 0x12C JUMP JUMPDEST DUP1 PUSH1 0x2 PUSH1 0x0 PUSH2 0x100 EXP DUP2 SLOAD DUP2 PUSH20 0xFFFFFFFFFFFFFFFFFFFFFFFFFFFFFFFFFFFFFFFF MUL NOT AND SWAP1 DUP4 PUSH20 0xFFFFFFFFFFFFFFFFFFFFFFFFFFFFFFFFFFFFFFFF AND MUL OR SWAP1 SSTORE POP DUP2 PUSH1 0x3 DUP2 SWAP1 SSTORE POP POP POP PUSH3 0x173 JUMP JUMPDEST PUSH1 0x0 DUP1 REVERT JUMPDEST PUSH1 0x0 DUP2 SWAP1 POP SWAP2 SWAP1 POP JUMP JUMPDEST PUSH3 0xA1 DUP2 PUSH3 0x8C JUMP JUMPDEST DUP2 EQ PUSH3 0xAD JUMPI PUSH1 0x0 DUP1 REVERT JUMPDEST POP JUMP JUMPDEST PUSH1 0x0 DUP2 MLOAD SWAP1 POP PUSH3 0xC1 DUP2 PUSH3 0x96 JUMP JUMPDEST SWAP3 SWAP2 POP POP JUMP JUMPDEST PUSH1 0x0 PUSH20 0xFFFFFFFFFFFFFFFFFFFFFFFFFFFFFFFFFFFFFFFF DUP3 AND SWAP1 POP SWAP2 SWAP1 POP JUMP JUMPDEST PUSH1 0x0 PUSH3 0xF4 DUP3 PUSH3 0xC7 JUMP JUMPDEST SWAP1 POP SWAP2 SWAP1 POP JUMP JUMPDEST PUSH3 0x106 DUP2 PUSH3 0xE7 JUMP JUMPDEST DUP2 EQ PUSH3 0x112 JUMPI PUSH1 0x0 DUP1 REVERT JUMPDEST POP JUMP JUMPDEST PUSH1 0x0 DUP2 MLOAD SWAP1 POP PUSH3 0x126 DUP2 PUSH3 0xFB JUMP JUMPDEST SWAP3 SWAP2 POP POP JUMP JUMPDEST PUSH1 0x0 DUP1 PUSH1 0x40 DUP4 DUP6 SUB SLT ISZERO PUSH3 0x146 JUMPI PUSH3 0x145 PUSH3 0x87 JUMP JUMPDEST JUMPDEST PUSH1 0x0 PUSH3 0x156 DUP6 DUP3 DUP7 ADD PUSH3 0xB0 JUMP JUMPDEST SWAP3 POP POP PUSH1 0x20 PUSH3 0x169 DUP6 DUP3 DUP7 ADD PUSH3 0x115 JUMP JUMPDEST SWAP2 POP POP SWAP3 POP SWAP3 SWAP1 POP JUMP JUMPDEST PUSH2 0xDDB DUP1 PUSH3 0x183 PUSH1 0x0 CODECOPY PUSH1 0x0 RETURN INVALID PUSH1 0x80 PUSH1 0x40 MSTORE PUSH1 0x4 CALLDATASIZE LT PUSH2 0x86 JUMPI PUSH1 0x0 CALLDATALOAD PUSH1 0xE0 SHR DUP1 PUSH4 0x82FDE093 GT PUSH2 0x59 JUMPI DUP1 PUSH4 0x82FDE093 EQ PUSH2 0x15D JUMPI DUP1 PUSH4 0x8A9CFD55 EQ PUSH2 0x188 JUMPI DUP1 PUSH4 0x937E09B1 EQ PUSH2 0x1B1 JUMPI DUP1 PUSH4 0xD7BB99BA EQ PUSH2 0x1DC JUMPI DUP1 PUSH4 0xD7D1BBDB EQ PUSH2 0x1E6 JUMPI PUSH2 0x86 JUMP JUMPDEST DUP1 PUSH4 0x3441006 EQ PUSH2 0x8B JUMPI DUP1 PUSH4 0xA144391 EQ PUSH2 0xB4 JUMPI DUP1 PUSH4 0x481C6A75 EQ PUSH2 0xF1 JUMPI DUP1 PUSH4 0x81D12C58 EQ PUSH2 0x11C JUMPI JUMPDEST PUSH1 0x0 DUP1 REVERT JUMPDEST CALLVALUE DUP1 ISZERO PUSH2 0x97 JUMPI PUSH1 0x0 DUP1 REVERT JUMPDEST POP PUSH2 0xB2 PUSH1 0x4 DUP1 CALLDATASIZE SUB DUP2 ADD SWAP1 PUSH2 0xAD SWAP2 SWAP1 PUSH2 0x848 JUMP JUMPDEST PUSH2 0x20F JUMP JUMPDEST STOP JUMPDEST CALLVALUE DUP1 ISZERO PUSH2 0xC0 JUMPI PUSH1 0x0 DUP1 REVERT JUMPDEST POP PUSH2 0xDB PUSH1 0x4 DUP1 CALLDATASIZE SUB DUP2 ADD SWAP1 PUSH2 0xD6 SWAP2 SWAP1 PUSH2 0x8D3 JUMP JUMPDEST PUSH2 0x349 JUMP JUMPDEST PUSH1 0x40 MLOAD PUSH2 0xE8 SWAP2 SWAP1 PUSH2 0x91B JUMP JUMPDEST PUSH1 0x40 MLOAD DUP1 SWAP2 SUB SWAP1 RETURN JUMPDEST CALLVALUE DUP1 ISZERO PUSH2 0xFD JUMPI PUSH1 0x0 DUP1 REVERT JUMPDEST POP PUSH2 0x106 PUSH2 0x369 JUMP JUMPDEST PUSH1 0x40 MLOAD PUSH2 0x113 SWAP2 SWAP1 PUSH2 0x945 JUMP JUMPDEST PUSH1 0x40 MLOAD DUP1 SWAP2 SUB SWAP1 RETURN JUMPDEST CALLVALUE DUP1 ISZERO PUSH2 0x128 JUMPI PUSH1 0x0 DUP1 REVERT JUMPDEST POP PUSH2 0x143 PUSH1 0x4 DUP1 CALLDATASIZE SUB DUP2 ADD SWAP1 PUSH2 0x13E SWAP2 SWAP1 PUSH2 0x848 JUMP JUMPDEST PUSH2 0x38F JUMP JUMPDEST PUSH1 0x40 MLOAD PUSH2 0x154 SWAP6 SWAP5 SWAP4 SWAP3 SWAP2 SWAP1 PUSH2 0xA29 JUMP JUMPDEST PUSH1 0x40 MLOAD DUP1 SWAP2 SUB SWAP1 RETURN JUMPDEST CALLVALUE DUP1 ISZERO PUSH2 0x169 JUMPI PUSH1 0x0 DUP1 REVERT JUMPDEST POP PUSH2 0x172 PUSH2 0x47A JUMP JUMPDEST PUSH1 0x40 MLOAD PUSH2 0x17F SWAP2 SWAP1 PUSH2 0xA83 JUMP JUMPDEST PUSH1 0x40 MLOAD DUP1 SWAP2 SUB SWAP1 RETURN JUMPDEST CALLVALUE DUP1 ISZERO PUSH2 0x194 JUMPI PUSH1 0x0 DUP1 REVERT JUMPDEST POP PUSH2 0x1AF PUSH1 0x4 DUP1 CALLDATASIZE SUB DUP2 ADD SWAP1 PUSH2 0x1AA SWAP2 SWAP1 PUSH2 0xBFF JUMP JUMPDEST PUSH2 0x480 JUMP JUMPDEST STOP JUMPDEST CALLVALUE DUP1 ISZERO PUSH2 0x1BD JUMPI PUSH1 0x0 DUP1 REVERT JUMPDEST POP PUSH2 0x1C6 PUSH2 0x598 JUMP JUMPDEST PUSH1 0x40 MLOAD PUSH2 0x1D3 SWAP2 SWAP1 PUSH2 0xA83 JUMP JUMPDEST PUSH1 0x40 MLOAD DUP1 SWAP2 SUB SWAP1 RETURN JUMPDEST PUSH2 0x1E4 PUSH2 0x59E JUMP JUMPDEST STOP JUMPDEST CALLVALUE DUP1 ISZERO PUSH2 0x1F2 JUMPI PUSH1 0x0 DUP1 REVERT JUMPDEST POP PUSH2 0x20D PUSH1 0x4 DUP1 CALLDATASIZE SUB DUP2 ADD SWAP1 PUSH2 0x208 SWAP2 SWAP1 PUSH2 0x848 JUMP JUMPDEST PUSH2 0x61E JUMP JUMPDEST STOP JUMPDEST PUSH1 0x2 PUSH1 0x0 SWAP1 SLOAD SWAP1 PUSH2 0x100 EXP SWAP1 DIV PUSH20 0xFFFFFFFFFFFFFFFFFFFFFFFFFFFFFFFFFFFFFFFF AND PUSH20 0xFFFFFFFFFFFFFFFFFFFFFFFFFFFFFFFFFFFFFFFF AND CALLER PUSH20 0xFFFFFFFFFFFFFFFFFFFFFFFFFFFFFFFFFFFFFFFF AND EQ PUSH2 0x269 JUMPI PUSH1 0x0 DUP1 REVERT JUMPDEST PUSH1 0x0 DUP1 PUSH1 0x0 DUP4 DUP2 MSTORE PUSH1 0x20 ADD SWAP1 DUP2 MSTORE PUSH1 0x20 ADD PUSH1 0x0 KECCAK256 SWAP1 POP PUSH1 0x2 PUSH1 0x5 SLOAD PUSH2 0x28E SWAP2 SWAP1 PUSH2 0xCCC JUMP JUMPDEST DUP2 PUSH1 0x3 ADD SLOAD GT PUSH2 0x29D JUMPI PUSH1 0x0 DUP1 REVERT JUMPDEST DUP1 PUSH1 0x2 ADD PUSH1 0x14 SWAP1 SLOAD SWAP1 PUSH2 0x100 EXP SWAP1 DIV PUSH1 0xFF AND ISZERO PUSH2 0x2B9 JUMPI PUSH1 0x0 DUP1 REVERT JUMPDEST DUP1 PUSH1 0x2 ADD PUSH1 0x0 SWAP1 SLOAD SWAP1 PUSH2 0x100 EXP SWAP1 DIV PUSH20 0xFFFFFFFFFFFFFFFFFFFFFFFFFFFFFFFFFFFFFFFF AND PUSH20 0xFFFFFFFFFFFFFFFFFFFFFFFFFFFFFFFFFFFFFFFF AND PUSH2 0x8FC DUP3 PUSH1 0x1 ADD SLOAD SWAP1 DUP2 ISZERO MUL SWAP1 PUSH1 0x40 MLOAD PUSH1 0x0 PUSH1 0x40 MLOAD DUP1 DUP4 SUB DUP2 DUP6 DUP9 DUP9 CALL SWAP4 POP POP POP POP ISZERO DUP1 ISZERO PUSH2 0x327 JUMPI RETURNDATASIZE PUSH1 0x0 DUP1 RETURNDATACOPY RETURNDATASIZE PUSH1 0x0 REVERT JUMPDEST POP PUSH1 0x1 DUP2 PUSH1 0x2 ADD PUSH1 0x14 PUSH2 0x100 EXP DUP2 SLOAD DUP2 PUSH1 0xFF MUL NOT AND SWAP1 DUP4 ISZERO ISZERO MUL OR SWAP1 SSTORE POP POP POP JUMP JUMPDEST PUSH1 0x4 PUSH1 0x20 MSTORE DUP1 PUSH1 0x0 MSTORE PUSH1 0x40 PUSH1 0x0 KECCAK256 PUSH1 0x0 SWAP2 POP SLOAD SWAP1 PUSH2 0x100 EXP SWAP1 DIV PUSH1 0xFF AND DUP2 JUMP JUMPDEST PUSH1 0x2 PUSH1 0x0 SWAP1 SLOAD SWAP1 PUSH2 0x100 EXP SWAP1 DIV PUSH20 0xFFFFFFFFFFFFFFFFFFFFFFFFFFFFFFFFFFFFFFFF AND DUP2 JUMP JUMPDEST PUSH1 0x0 PUSH1 0x20 MSTORE DUP1 PUSH1 0x0 MSTORE PUSH1 0x40 PUSH1 0x0 KECCAK256 PUSH1 0x0 SWAP2 POP SWAP1 POP DUP1 PUSH1 0x0 ADD DUP1 SLOAD PUSH2 0x3B2 SWAP1 PUSH2 0xD2C JUMP JUMPDEST DUP1 PUSH1 0x1F ADD PUSH1 0x20 DUP1 SWAP2 DIV MUL PUSH1 0x20 ADD PUSH1 0x40 MLOAD SWAP1 DUP2 ADD PUSH1 0x40 MSTORE DUP1 SWAP3 SWAP2 SWAP1 DUP2 DUP2 MSTORE PUSH1 0x20 ADD DUP3 DUP1 SLOAD PUSH2 0x3DE SWAP1 PUSH2 0xD2C JUMP JUMPDEST DUP1 ISZERO PUSH2 0x42B JUMPI DUP1 PUSH1 0x1F LT PUSH2 0x400 JUMPI PUSH2 0x100 DUP1 DUP4 SLOAD DIV MUL DUP4 MSTORE SWAP2 PUSH1 0x20 ADD SWAP2 PUSH2 0x42B JUMP JUMPDEST DUP3 ADD SWAP2 SWAP1 PUSH1 0x0 MSTORE PUSH1 0x20 PUSH1 0x0 KECCAK256 SWAP1 JUMPDEST DUP2 SLOAD DUP2 MSTORE SWAP1 PUSH1 0x1 ADD SWAP1 PUSH1 0x20 ADD DUP1 DUP4 GT PUSH2 0x40E JUMPI DUP3 SWAP1 SUB PUSH1 0x1F AND DUP3 ADD SWAP2 JUMPDEST POP POP POP POP POP SWAP1 DUP1 PUSH1 0x1 ADD SLOAD SWAP1 DUP1 PUSH1 0x2 ADD PUSH1 0x0 SWAP1 SLOAD SWAP1 PUSH2 0x100 EXP SWAP1 DIV PUSH20 0xFFFFFFFFFFFFFFFFFFFFFFFFFFFFFFFFFFFFFFFF AND SWAP1 DUP1 PUSH1 0x2 ADD PUSH1 0x14 SWAP1 SLOAD SWAP1 PUSH2 0x100 EXP SWAP1 DIV PUSH1 0xFF AND SWAP1 DUP1 PUSH1 0x3 ADD SLOAD SWAP1 POP DUP6 JUMP JUMPDEST PUSH1 0x5 SLOAD DUP2 JUMP JUMPDEST PUSH1 0x2 PUSH1 0x0 SWAP1 SLOAD SWAP1 PUSH2 0x100 EXP SWAP1 DIV PUSH20 0xFFFFFFFFFFFFFFFFFFFFFFFFFFFFFFFFFFFFFFFF AND PUSH20 0xFFFFFFFFFFFFFFFFFFFFFFFFFFFFFFFFFFFFFFFF AND CALLER PUSH20 0xFFFFFFFFFFFFFFFFFFFFFFFFFFFFFFFFFFFFFFFF AND EQ PUSH2 0x4DA JUMPI PUSH1 0x0 DUP1 REVERT JUMPDEST PUSH1 0x0 DUP1 PUSH1 0x0 PUSH1 0x1 PUSH1 0x0 DUP2 SLOAD DUP1 SWAP3 SWAP2 SWAP1 PUSH2 0x4F2 SWAP1 PUSH2 0xD5D JUMP JUMPDEST SWAP2 SWAP1 POP SSTORE DUP2 MSTORE PUSH1 0x20 ADD SWAP1 DUP2 MSTORE PUSH1 0x20 ADD PUSH1 0x0 KECCAK256 SWAP1 POP DUP4 DUP2 PUSH1 0x0 ADD SWAP1 DUP1 MLOAD SWAP1 PUSH1 0x20 ADD SWAP1 PUSH2 0x51E SWAP3 SWAP2 SWAP1 PUSH2 0x75B JUMP JUMPDEST POP DUP3 DUP2 PUSH1 0x1 ADD DUP2 SWAP1 SSTORE POP DUP2 DUP2 PUSH1 0x2 ADD PUSH1 0x0 PUSH2 0x100 EXP DUP2 SLOAD DUP2 PUSH20 0xFFFFFFFFFFFFFFFFFFFFFFFFFFFFFFFFFFFFFFFF MUL NOT AND SWAP1 DUP4 PUSH20 0xFFFFFFFFFFFFFFFFFFFFFFFFFFFFFFFFFFFFFFFF AND MUL OR SWAP1 SSTORE POP PUSH1 0x0 DUP2 PUSH1 0x2 ADD PUSH1 0x14 PUSH2 0x100 EXP DUP2 SLOAD DUP2 PUSH1 0xFF MUL NOT AND SWAP1 DUP4 ISZERO ISZERO MUL OR SWAP1 SSTORE POP PUSH1 0x0 DUP2 PUSH1 0x3 ADD DUP2 SWAP1 SSTORE POP POP POP POP POP JUMP JUMPDEST PUSH1 0x3 SLOAD DUP2 JUMP JUMPDEST PUSH1 0x3 SLOAD CALLVALUE GT PUSH2 0x5AC JUMPI PUSH1 0x0 DUP1 REVERT JUMPDEST PUSH1 0x1 PUSH1 0x4 PUSH1 0x0 CALLER PUSH20 0xFFFFFFFFFFFFFFFFFFFFFFFFFFFFFFFFFFFFFFFF AND PUSH20 0xFFFFFFFFFFFFFFFFFFFFFFFFFFFFFFFFFFFFFFFF AND DUP2 MSTORE PUSH1 0x20 ADD SWAP1 DUP2 MSTORE PUSH1 0x20 ADD PUSH1 0x0 KECCAK256 PUSH1 0x0 PUSH2 0x100 EXP DUP2 SLOAD DUP2 PUSH1 0xFF MUL NOT AND SWAP1 DUP4 ISZERO ISZERO MUL OR SWAP1 SSTORE POP PUSH1 0x5 PUSH1 0x0 DUP2 SLOAD DUP1 SWAP3 SWAP2 SWAP1 PUSH2 0x617 SWAP1 PUSH2 0xD5D JUMP JUMPDEST SWAP2 SWAP1 POP SSTORE POP JUMP JUMPDEST PUSH1 0x0 DUP1 PUSH1 0x0 DUP4 DUP2 MSTORE PUSH1 0x20 ADD SWAP1 DUP2 MSTORE PUSH1 0x20 ADD PUSH1 0x0 KECCAK256 SWAP1 POP PUSH1 0x4 PUSH1 0x0 CALLER PUSH20 0xFFFFFFFFFFFFFFFFFFFFFFFFFFFFFFFFFFFFFFFF AND PUSH20 0xFFFFFFFFFFFFFFFFFFFFFFFFFFFFFFFFFFFFFFFF AND DUP2 MSTORE PUSH1 0x20 ADD SWAP1 DUP2 MSTORE PUSH1 0x20 ADD PUSH1 0x0 KECCAK256 PUSH1 0x0 SWAP1 SLOAD SWAP1 PUSH2 0x100 EXP SWAP1 DIV PUSH1 0xFF AND PUSH2 0x68A JUMPI PUSH1 0x0 DUP1 REVERT JUMPDEST DUP1 PUSH1 0x4 ADD PUSH1 0x0 CALLER PUSH20 0xFFFFFFFFFFFFFFFFFFFFFFFFFFFFFFFFFFFFFFFF AND PUSH20 0xFFFFFFFFFFFFFFFFFFFFFFFFFFFFFFFFFFFFFFFF AND DUP2 MSTORE PUSH1 0x20 ADD SWAP1 DUP2 MSTORE PUSH1 0x20 ADD PUSH1 0x0 KECCAK256 PUSH1 0x0 SWAP1 SLOAD SWAP1 PUSH2 0x100 EXP SWAP1 DIV PUSH1 0xFF AND ISZERO PUSH2 0x6E3 JUMPI PUSH1 0x0 DUP1 REVERT JUMPDEST PUSH1 0x1 DUP2 PUSH1 0x4 ADD PUSH1 0x0 CALLER PUSH20 0xFFFFFFFFFFFFFFFFFFFFFFFFFFFFFFFFFFFFFFFF AND PUSH20 0xFFFFFFFFFFFFFFFFFFFFFFFFFFFFFFFFFFFFFFFF AND DUP2 MSTORE PUSH1 0x20 ADD SWAP1 DUP2 MSTORE PUSH1 0x20 ADD PUSH1 0x0 KECCAK256 PUSH1 0x0 PUSH2 0x100 EXP DUP2 SLOAD DUP2 PUSH1 0xFF MUL NOT AND SWAP1 DUP4 ISZERO ISZERO MUL OR SWAP1 SSTORE POP DUP1 PUSH1 0x3 ADD PUSH1 0x0 DUP2 SLOAD DUP1 SWAP3 SWAP2 SWAP1 PUSH2 0x752 SWAP1 PUSH2 0xD5D JUMP JUMPDEST SWAP2 SWAP1 POP SSTORE POP POP POP JUMP JUMPDEST DUP3 DUP1 SLOAD PUSH2 0x767 SWAP1 PUSH2 0xD2C JUMP JUMPDEST SWAP1 PUSH1 0x0 MSTORE PUSH1 0x20 PUSH1 0x0 KECCAK256 SWAP1 PUSH1 0x1F ADD PUSH1 0x20 SWAP1 DIV DUP2 ADD SWAP3 DUP3 PUSH2 0x789 JUMPI PUSH1 0x0 DUP6 SSTORE PUSH2 0x7D0 JUMP JUMPDEST DUP3 PUSH1 0x1F LT PUSH2 0x7A2 JUMPI DUP1 MLOAD PUSH1 0xFF NOT AND DUP4 DUP1 ADD OR DUP6 SSTORE PUSH2 0x7D0 JUMP JUMPDEST DUP3 DUP1 ADD PUSH1 0x1 ADD DUP6 SSTORE DUP3 ISZERO PUSH2 0x7D0 JUMPI SWAP2 DUP3 ADD JUMPDEST DUP3 DUP2 GT ISZERO PUSH2 0x7CF JUMPI DUP3 MLOAD DUP3 SSTORE SWAP2 PUSH1 0x20 ADD SWAP2 SWAP1 PUSH1 0x1 ADD SWAP1 PUSH2 0x7B4 JUMP JUMPDEST JUMPDEST POP SWAP1 POP PUSH2 0x7DD SWAP2 SWAP1 PUSH2 0x7E1 JUMP JUMPDEST POP SWAP1 JUMP JUMPDEST JUMPDEST DUP1 DUP3 GT ISZERO PUSH2 0x7FA JUMPI PUSH1 0x0 DUP2 PUSH1 0x0 SWAP1 SSTORE POP PUSH1 0x1 ADD PUSH2 0x7E2 JUMP JUMPDEST POP SWAP1 JUMP JUMPDEST PUSH1 0x0 PUSH1 0x40 MLOAD SWAP1 POP SWAP1 JUMP JUMPDEST PUSH1 0x0 DUP1 REVERT JUMPDEST PUSH1 0x0 DUP1 REVERT JUMPDEST PUSH1 0x0 DUP2 SWAP1 POP SWAP2 SWAP1 POP JUMP JUMPDEST PUSH2 0x825 DUP2 PUSH2 0x812 JUMP JUMPDEST DUP2 EQ PUSH2 0x830 JUMPI PUSH1 0x0 DUP1 REVERT JUMPDEST POP JUMP JUMPDEST PUSH1 0x0 DUP2 CALLDATALOAD SWAP1 POP PUSH2 0x842 DUP2 PUSH2 0x81C JUMP JUMPDEST SWAP3 SWAP2 POP POP JUMP JUMPDEST PUSH1 0x0 PUSH1 0x20 DUP3 DUP5 SUB SLT ISZERO PUSH2 0x85E JUMPI PUSH2 0x85D PUSH2 0x808 JUMP JUMPDEST JUMPDEST PUSH1 0x0 PUSH2 0x86C DUP5 DUP3 DUP6 ADD PUSH2 0x833 JUMP JUMPDEST SWAP2 POP POP SWAP3 SWAP2 POP POP JUMP JUMPDEST PUSH1 0x0 PUSH20 0xFFFFFFFFFFFFFFFFFFFFFFFFFFFFFFFFFFFFFFFF DUP3 AND SWAP1 POP SWAP2 SWAP1 POP JUMP JUMPDEST PUSH1 0x0 PUSH2 0x8A0 DUP3 PUSH2 0x875 JUMP JUMPDEST SWAP1 POP SWAP2 SWAP1 POP JUMP JUMPDEST PUSH2 0x8B0 DUP2 PUSH2 0x895 JUMP JUMPDEST DUP2 EQ PUSH2 0x8BB JUMPI PUSH1 0x0 DUP1 REVERT JUMPDEST POP JUMP JUMPDEST PUSH1 0x0 DUP2 CALLDATALOAD SWAP1 POP PUSH2 0x8CD DUP2 PUSH2 0x8A7 JUMP JUMPDEST SWAP3 SWAP2 POP POP JUMP JUMPDEST PUSH1 0x0 PUSH1 0x20 DUP3 DUP5 SUB SLT ISZERO PUSH2 0x8E9 JUMPI PUSH2 0x8E8 PUSH2 0x808 JUMP JUMPDEST JUMPDEST PUSH1 0x0 PUSH2 0x8F7 DUP5 DUP3 DUP6 ADD PUSH2 0x8BE JUMP JUMPDEST SWAP2 POP POP SWAP3 SWAP2 POP POP JUMP JUMPDEST PUSH1 0x0 DUP2 ISZERO ISZERO SWAP1 POP SWAP2 SWAP1 POP JUMP JUMPDEST PUSH2 0x915 DUP2 PUSH2 0x900 JUMP JUMPDEST DUP3 MSTORE POP POP JUMP JUMPDEST PUSH1 0x0 PUSH1 0x20 DUP3 ADD SWAP1 POP PUSH2 0x930 PUSH1 0x0 DUP4 ADD DUP5 PUSH2 0x90C JUMP JUMPDEST SWAP3 SWAP2 POP POP JUMP JUMPDEST PUSH2 0x93F DUP2 PUSH2 0x895 JUMP JUMPDEST DUP3 MSTORE POP POP JUMP JUMPDEST PUSH1 0x0 PUSH1 0x20 DUP3 ADD SWAP1 POP PUSH2 0x95A PUSH1 0x0 DUP4 ADD DUP5 PUSH2 0x936 JUMP JUMPDEST SWAP3 SWAP2 POP POP JUMP JUMPDEST PUSH1 0x0 DUP2 MLOAD SWAP1 POP SWAP2 SWAP1 POP JUMP JUMPDEST PUSH1 0x0 DUP3 DUP3 MSTORE PUSH1 0x20 DUP3 ADD SWAP1 POP SWAP3 SWAP2 POP POP JUMP JUMPDEST PUSH1 0x0 JUMPDEST DUP4 DUP2 LT ISZERO PUSH2 0x99A JUMPI DUP1 DUP3 ADD MLOAD DUP2 DUP5 ADD MSTORE PUSH1 0x20 DUP2 ADD SWAP1 POP PUSH2 0x97F JUMP JUMPDEST DUP4 DUP2 GT ISZERO PUSH2 0x9A9 JUMPI PUSH1 0x0 DUP5 DUP5 ADD MSTORE JUMPDEST POP POP POP POP JUMP JUMPDEST PUSH1 0x0 PUSH1 0x1F NOT PUSH1 0x1F DUP4 ADD AND SWAP1 POP SWAP2 SWAP1 POP JUMP JUMPDEST PUSH1 0x0 PUSH2 0x9CB DUP3 PUSH2 0x960 JUMP JUMPDEST PUSH2 0x9D5 DUP2 DUP6 PUSH2 0x96B JUMP JUMPDEST SWAP4 POP PUSH2 0x9E5 DUP2 DUP6 PUSH1 0x20 DUP7 ADD PUSH2 0x97C JUMP JUMPDEST PUSH2 0x9EE DUP2 PUSH2 0x9AF JUMP JUMPDEST DUP5 ADD SWAP2 POP POP SWAP3 SWAP2 POP POP JUMP JUMPDEST PUSH2 0xA02 DUP2 PUSH2 0x812 JUMP JUMPDEST DUP3 MSTORE POP POP JUMP JUMPDEST PUSH1 0x0 PUSH2 0xA13 DUP3 PUSH2 0x875 JUMP JUMPDEST SWAP1 POP SWAP2 SWAP1 POP JUMP JUMPDEST PUSH2 0xA23 DUP2 PUSH2 0xA08 JUMP JUMPDEST DUP3 MSTORE POP POP JUMP JUMPDEST PUSH1 0x0 PUSH1 0xA0 DUP3 ADD SWAP1 POP DUP2 DUP2 SUB PUSH1 0x0 DUP4 ADD MSTORE PUSH2 0xA43 DUP2 DUP9 PUSH2 0x9C0 JUMP JUMPDEST SWAP1 POP PUSH2 0xA52 PUSH1 0x20 DUP4 ADD DUP8 PUSH2 0x9F9 JUMP JUMPDEST PUSH2 0xA5F PUSH1 0x40 DUP4 ADD DUP7 PUSH2 0xA1A JUMP JUMPDEST PUSH2 0xA6C PUSH1 0x60 DUP4 ADD DUP6 PUSH2 0x90C JUMP JUMPDEST PUSH2 0xA79 PUSH1 0x80 DUP4 ADD DUP5 PUSH2 0x9F9 JUMP JUMPDEST SWAP7 SWAP6 POP POP POP POP POP POP JUMP JUMPDEST PUSH1 0x0 PUSH1 0x20 DUP3 ADD SWAP1 POP PUSH2 0xA98 PUSH1 0x0 DUP4 ADD DUP5 PUSH2 0x9F9 JUMP JUMPDEST SWAP3 SWAP2 POP POP JUMP JUMPDEST PUSH1 0x0 DUP1 REVERT JUMPDEST PUSH1 0x0 DUP1 REVERT JUMPDEST PUSH32 0x4E487B7100000000000000000000000000000000000000000000000000000000 PUSH1 0x0 MSTORE PUSH1 0x41 PUSH1 0x4 MSTORE PUSH1 0x24 PUSH1 0x0 REVERT JUMPDEST PUSH2 0xAE0 DUP3 PUSH2 0x9AF JUMP JUMPDEST DUP2 ADD DUP2 DUP2 LT PUSH8 0xFFFFFFFFFFFFFFFF DUP3 GT OR ISZERO PUSH2 0xAFF JUMPI PUSH2 0xAFE PUSH2 0xAA8 JUMP JUMPDEST JUMPDEST DUP1 PUSH1 0x40 MSTORE POP POP POP JUMP JUMPDEST PUSH1 0x0 PUSH2 0xB12 PUSH2 0x7FE JUMP JUMPDEST SWAP1 POP PUSH2 0xB1E DUP3 DUP3 PUSH2 0xAD7 JUMP JUMPDEST SWAP2 SWAP1 POP JUMP JUMPDEST PUSH1 0x0 PUSH8 0xFFFFFFFFFFFFFFFF DUP3 GT ISZERO PUSH2 0xB3E JUMPI PUSH2 0xB3D PUSH2 0xAA8 JUMP JUMPDEST JUMPDEST PUSH2 0xB47 DUP3 PUSH2 0x9AF JUMP JUMPDEST SWAP1 POP PUSH1 0x20 DUP2 ADD SWAP1 POP SWAP2 SWAP1 POP JUMP JUMPDEST DUP3 DUP2 DUP4 CALLDATACOPY PUSH1 0x0 DUP4 DUP4 ADD MSTORE POP POP POP JUMP JUMPDEST PUSH1 0x0 PUSH2 0xB76 PUSH2 0xB71 DUP5 PUSH2 0xB23 JUMP JUMPDEST PUSH2 0xB08 JUMP JUMPDEST SWAP1 POP DUP3 DUP2 MSTORE PUSH1 0x20 DUP2 ADD DUP5 DUP5 DUP5 ADD GT ISZERO PUSH2 0xB92 JUMPI PUSH2 0xB91 PUSH2 0xAA3 JUMP JUMPDEST JUMPDEST PUSH2 0xB9D DUP5 DUP3 DUP6 PUSH2 0xB54 JUMP JUMPDEST POP SWAP4 SWAP3 POP POP POP JUMP JUMPDEST PUSH1 0x0 DUP3 PUSH1 0x1F DUP4 ADD SLT PUSH2 0xBBA JUMPI PUSH2 0xBB9 PUSH2 0xA9E JUMP JUMPDEST JUMPDEST DUP2 CALLDATALOAD PUSH2 0xBCA DUP5 DUP3 PUSH1 0x20 DUP7 ADD PUSH2 0xB63 JUMP JUMPDEST SWAP2 POP POP SWAP3 SWAP2 POP POP JUMP JUMPDEST PUSH2 0xBDC DUP2 PUSH2 0xA08 JUMP JUMPDEST DUP2 EQ PUSH2 0xBE7 JUMPI PUSH1 0x0 DUP1 REVERT JUMPDEST POP JUMP JUMPDEST PUSH1 0x0 DUP2 CALLDATALOAD SWAP1 POP PUSH2 0xBF9 DUP2 PUSH2 0xBD3 JUMP JUMPDEST SWAP3 SWAP2 POP POP JUMP JUMPDEST PUSH1 0x0 DUP1 PUSH1 0x0 PUSH1 0x60 DUP5 DUP7 SUB SLT ISZERO PUSH2 0xC18 JUMPI PUSH2 0xC17 PUSH2 0x808 JUMP JUMPDEST JUMPDEST PUSH1 0x0 DUP5 ADD CALLDATALOAD PUSH8 0xFFFFFFFFFFFFFFFF DUP2 GT ISZERO PUSH2 0xC36 JUMPI PUSH2 0xC35 PUSH2 0x80D JUMP JUMPDEST JUMPDEST PUSH2 0xC42 DUP7 DUP3 DUP8 ADD PUSH2 0xBA5 JUMP JUMPDEST SWAP4 POP POP PUSH1 0x20 PUSH2 0xC53 DUP7 DUP3 DUP8 ADD PUSH2 0x833 JUMP JUMPDEST SWAP3 POP POP PUSH1 0x40 PUSH2 0xC64 DUP7 DUP3 DUP8 ADD PUSH2 0xBEA JUMP JUMPDEST SWAP2 POP POP SWAP3 POP SWAP3 POP SWAP3 JUMP JUMPDEST PUSH32 0x4E487B7100000000000000000000000000000000000000000000000000000000 PUSH1 0x0 MSTORE PUSH1 0x12 PUSH1 0x4 MSTORE PUSH1 0x24 PUSH1 0x0 REVERT JUMPDEST PUSH32 0x4E487B7100000000000000000000000000000000000000000000000000000000 PUSH1 0x0 MSTORE PUSH1 0x11 PUSH1 0x4 MSTORE PUSH1 0x24 PUSH1 0x0 REVERT JUMPDEST PUSH1 0x0 PUSH2 0xCD7 DUP3 PUSH2 0x812 JUMP JUMPDEST SWAP2 POP PUSH2 0xCE2 DUP4 PUSH2 0x812 JUMP JUMPDEST SWAP3 POP DUP3 PUSH2 0xCF2 JUMPI PUSH2 0xCF1 PUSH2 0xC6E JUMP JUMPDEST JUMPDEST DUP3 DUP3 DIV SWAP1 POP SWAP3 SWAP2 POP POP JUMP JUMPDEST PUSH32 0x4E487B7100000000000000000000000000000000000000000000000000000000 PUSH1 0x0 MSTORE PUSH1 0x22 PUSH1 0x4 MSTORE PUSH1 0x24 PUSH1 0x0 REVERT JUMPDEST PUSH1 0x0 PUSH1 0x2 DUP3 DIV SWAP1 POP PUSH1 0x1 DUP3 AND DUP1 PUSH2 0xD44 JUMPI PUSH1 0x7F DUP3 AND SWAP2 POP JUMPDEST PUSH1 0x20 DUP3 LT DUP2 SUB PUSH2 0xD57 JUMPI PUSH2 0xD56 PUSH2 0xCFD JUMP JUMPDEST JUMPDEST POP SWAP2 SWAP1 POP JUMP JUMPDEST PUSH1 0x0 PUSH2 0xD68 DUP3 PUSH2 0x812 JUMP JUMPDEST SWAP2 POP PUSH32 0xFFFFFFFFFFFFFFFFFFFFFFFFFFFFFFFFFFFFFFFFFFFFFFFFFFFFFFFFFFFFFFFF DUP3 SUB PUSH2 0xD9A JUMPI PUSH2 0xD99 PUSH2 0xC9D JUMP JUMPDEST JUMPDEST PUSH1 0x1 DUP3 ADD SWAP1 POP SWAP2 SWAP1 POP JUMP INVALID LOG2 PUSH5 0x6970667358 0x22 SLT KECCAK256 0xAC 0x21 INVALID 0xE2 PUSH25 0xE225409521A45B287E56DFAE7FBCFAC0164AD956CDD358D4A9 0xE4 0xC8 PUSH5 0x736F6C6343 STOP ADDMOD 0xD STOP CALLER LOG2 PUSH5 0x6970667358 0x22 SLT KECCAK256 PUSH13 0xE25FC24435D2B1446973D0E87C SWAP15 0x24 0xAB DUP6 0xBA DUP14 0x25 PUSH25 0x950B87502ED958B4A04564736F6C634300080D003300000000 "},"gasEstimates":{"creation":{"codeDepositCost":"1003800","executionCost":"1041","totalCost":"1004841"},"external":{"createCompaign(uint256)":"infinite","deployedCompaign(uint256)":"4934","getDeployedCompaign()":"infinite"}},"methodIdentifiers":{"createCompaign(uint256)":"d37b127b","deployedCompaign(uint256)":"1104f603","getDeployedCompaign()":"5faa865d"}},"storageLayout":{"storage":[{"astId":4,"contract":"contractFileName:CompaignFactory","label":"deployedCompaign","offset":0,"slot":"0","type":"t_array(t_address)dyn_storage"}],"types":{"t_address":{"encoding":"inplace","label":"address","numberOfBytes":"20"},"t_array(t_address)dyn_storage":{"base":"t_address","encoding":"dynamic_array","label":"address[]","numberOfBytes":"32"}}},"userdoc":{"kind":"user","methods":{},"version":1}}