{"abi":[{"inputs":[{"internalType":"uint256","name":"minimum","type":"uint256"},{"internalType":"address","name":"creator","type":"address"}],"stateMutability":"nonpayable","type":"constructor"},{"inputs":[{"internalType":"uint256","name":"index","type":"uint256"}],"name":"approveRequest","outputs":[],"stateMutability":"nonpayable","type":"function"},{"inputs":[{"internalType":"address","name":"","type":"address"}],"name":"approvers","outputs":[{"internalType":"bool","name":"","type":"bool"}],"stateMutability":"view","type":"function"},{"inputs":[],"name":"approversCount","outputs":[{"internalType":"uint256","name":"","type":"uint256"}],"stateMutability":"view","type":"function"},{"inputs":[],"name":"contribute","outputs":[],"stateMutability":"payable","type":"function"},{"inputs":[{"internalType":"string","name":"description","type":"string"},{"internalType":"uint256","name":"value","type":"uint256"},{"internalType":"address payable","name":"recipient","type":"address"}],"name":"createRequest","outputs":[],"stateMutability":"nonpayable","type":"function"},{"inputs":[{"internalType":"uint256","name":"index","type":"uint256"}],"name":"finalizeRequest","outputs":[],"stateMutability":"nonpayable","type":"function"},{"inputs":[],"name":"getSummary","outputs":[{"internalType":"uint256","name":"","type":"uint256"},{"internalType":"uint256","name":"","type":"uint256"},{"internalType":"uint256","name":"","type":"uint256"},{"internalType":"uint256","name":"","type":"uint256"},{"internalType":"address","name":"","type":"address"}],"stateMutability":"view","type":"function"},{"inputs":[],"name":"manager","outputs":[{"internalType":"address","name":"","type":"address"}],"stateMutability":"view","type":"function"},{"inputs":[],"name":"minimumContribution","outputs":[{"internalType":"uint256","name":"","type":"uint256"}],"stateMutability":"view","type":"function"},{"inputs":[{"internalType":"uint256","name":"","type":"uint256"}],"name":"requests","outputs":[{"internalType":"string","name":"description","type":"string"},{"internalType":"uint256","name":"value","type":"uint256"},{"internalType":"address payable","name":"recipient","type":"address"},{"internalType":"bool","name":"complete","type":"bool"},{"internalType":"uint256","name":"approvalsCount","type":"uint256"}],"stateMutability":"view","type":"function"}],"devdoc":{"kind":"dev","methods":{},"version":1},"evm":{"assembly":"    /* \"Compaign.sol\":414:2507  contract Compaign{... */\n  mstore(0x40, 0x80)\n    /* \"Compaign.sol\":943:1058  constructor(uint minimum, address creator){... */\n  callvalue\n  dup1\n  iszero\n  tag_1\n  jumpi\n  0x00\n  dup1\n  revert\ntag_1:\n  pop\n  mload(0x40)\n  sub(codesize, bytecodeSize)\n  dup1\n  bytecodeSize\n  dup4\n  codecopy\n  dup2\n  dup2\n  add\n  0x40\n  mstore\n  dup2\n  add\n  swap1\n  tag_2\n  swap2\n  swap1\n  tag_3\n  jump\t// in\ntag_2:\n    /* \"Compaign.sol\":1005:1012  creator */\n  dup1\n    /* \"Compaign.sol\":995:1002  manager */\n  0x02\n  0x00\n    /* \"Compaign.sol\":995:1012  manager = creator */\n  0x0100\n  exp\n  dup2\n  sload\n  dup2\n  0xffffffffffffffffffffffffffffffffffffffff\n  mul\n  not\n  and\n  swap1\n  dup4\n  0xffffffffffffffffffffffffffffffffffffffff\n  and\n  mul\n  or\n  swap1\n  sstore\n  pop\n    /* \"Compaign.sol\":1044:1051  minimum */\n  dup2\n    /* \"Compaign.sol\":1022:1041  minimumContribution */\n  0x03\n    /* \"Compaign.sol\":1022:1051  minimumContribution = minimum */\n  dup2\n  swap1\n  sstore\n  pop\n    /* \"Compaign.sol\":943:1058  constructor(uint minimum, address creator){... */\n  pop\n  pop\n    /* \"Compaign.sol\":414:2507  contract Compaign{... */\n  jump(tag_6)\n    /* \"#utility.yul\":88:205   */\ntag_8:\n    /* \"#utility.yul\":197:198   */\n  0x00\n    /* \"#utility.yul\":194:195   */\n  dup1\n    /* \"#utility.yul\":187:199   */\n  revert\n    /* \"#utility.yul\":334:411   */\ntag_10:\n    /* \"#utility.yul\":371:378   */\n  0x00\n    /* \"#utility.yul\":400:405   */\n  dup2\n    /* \"#utility.yul\":389:405   */\n  swap1\n  pop\n    /* \"#utility.yul\":334:411   */\n  swap2\n  swap1\n  pop\n  jump\t// out\n    /* \"#utility.yul\":417:539   */\ntag_11:\n    /* \"#utility.yul\":490:514   */\n  tag_23\n    /* \"#utility.yul\":508:513   */\n  dup2\n    /* \"#utility.yul\":490:514   */\n  tag_10\n  jump\t// in\ntag_23:\n    /* \"#utility.yul\":483:488   */\n  dup2\n    /* \"#utility.yul\":480:515   */\n  eq\n    /* \"#utility.yul\":470:533   */\n  tag_24\n  jumpi\n    /* \"#utility.yul\":529:530   */\n  0x00\n    /* \"#utility.yul\":526:527   */\n  dup1\n    /* \"#utility.yul\":519:531   */\n  revert\n    /* \"#utility.yul\":470:533   */\ntag_24:\n    /* \"#utility.yul\":417:539   */\n  pop\n  jump\t// out\n    /* \"#utility.yul\":545:688   */\ntag_12:\n    /* \"#utility.yul\":602:607   */\n  0x00\n    /* \"#utility.yul\":633:639   */\n  dup2\n    /* \"#utility.yul\":627:640   */\n  mload\n    /* \"#utility.yul\":618:640   */\n  swap1\n  pop\n    /* \"#utility.yul\":649:682   */\n  tag_26\n    /* \"#utility.yul\":676:681   */\n  dup2\n    /* \"#utility.yul\":649:682   */\n  tag_11\n  jump\t// in\ntag_26:\n    /* \"#utility.yul\":545:688   */\n  swap3\n  swap2\n  pop\n  pop\n  jump\t// out\n    /* \"#utility.yul\":694:820   */\ntag_13:\n    /* \"#utility.yul\":731:738   */\n  0x00\n    /* \"#utility.yul\":771:813   */\n  0xffffffffffffffffffffffffffffffffffffffff\n    /* \"#utility.yul\":764:769   */\n  dup3\n    /* \"#utility.yul\":760:814   */\n  and\n    /* \"#utility.yul\":749:814   */\n  swap1\n  pop\n    /* \"#utility.yul\":694:820   */\n  swap2\n  swap1\n  pop\n  jump\t// out\n    /* \"#utility.yul\":826:922   */\ntag_14:\n    /* \"#utility.yul\":863:870   */\n  0x00\n    /* \"#utility.yul\":892:916   */\n  tag_29\n    /* \"#utility.yul\":910:915   */\n  dup3\n    /* \"#utility.yul\":892:916   */\n  tag_13\n  jump\t// in\ntag_29:\n    /* \"#utility.yul\":881:916   */\n  swap1\n  pop\n    /* \"#utility.yul\":826:922   */\n  swap2\n  swap1\n  pop\n  jump\t// out\n    /* \"#utility.yul\":928:1050   */\ntag_15:\n    /* \"#utility.yul\":1001:1025   */\n  tag_31\n    /* \"#utility.yul\":1019:1024   */\n  dup2\n    /* \"#utility.yul\":1001:1025   */\n  tag_14\n  jump\t// in\ntag_31:\n    /* \"#utility.yul\":994:999   */\n  dup2\n    /* \"#utility.yul\":991:1026   */\n  eq\n    /* \"#utility.yul\":981:1044   */\n  tag_32\n  jumpi\n    /* \"#utility.yul\":1040:1041   */\n  0x00\n    /* \"#utility.yul\":1037:1038   */\n  dup1\n    /* \"#utility.yul\":1030:1042   */\n  revert\n    /* \"#utility.yul\":981:1044   */\ntag_32:\n    /* \"#utility.yul\":928:1050   */\n  pop\n  jump\t// out\n    /* \"#utility.yul\":1056:1199   */\ntag_16:\n    /* \"#utility.yul\":1113:1118   */\n  0x00\n    /* \"#utility.yul\":1144:1150   */\n  dup2\n    /* \"#utility.yul\":1138:1151   */\n  mload\n    /* \"#utility.yul\":1129:1151   */\n  swap1\n  pop\n    /* \"#utility.yul\":1160:1193   */\n  tag_34\n    /* \"#utility.yul\":1187:1192   */\n  dup2\n    /* \"#utility.yul\":1160:1193   */\n  tag_15\n  jump\t// in\ntag_34:\n    /* \"#utility.yul\":1056:1199   */\n  swap3\n  swap2\n  pop\n  pop\n  jump\t// out\n    /* \"#utility.yul\":1205:1712   */\ntag_3:\n    /* \"#utility.yul\":1284:1290   */\n  0x00\n    /* \"#utility.yul\":1292:1298   */\n  dup1\n    /* \"#utility.yul\":1341:1343   */\n  0x40\n    /* \"#utility.yul\":1329:1338   */\n  dup4\n    /* \"#utility.yul\":1320:1327   */\n  dup6\n    /* \"#utility.yul\":1316:1339   */\n  sub\n    /* \"#utility.yul\":1312:1344   */\n  slt\n    /* \"#utility.yul\":1309:1428   */\n  iszero\n  tag_36\n  jumpi\n    /* \"#utility.yul\":1347:1426   */\n  tag_37\n  tag_8\n  jump\t// in\ntag_37:\n    /* \"#utility.yul\":1309:1428   */\ntag_36:\n    /* \"#utility.yul\":1467:1468   */\n  0x00\n    /* \"#utility.yul\":1492:1556   */\n  tag_38\n    /* \"#utility.yul\":1548:1555   */\n  dup6\n    /* \"#utility.yul\":1539:1545   */\n  dup3\n    /* \"#utility.yul\":1528:1537   */\n  dup7\n    /* \"#utility.yul\":1524:1546   */\n  add\n    /* \"#utility.yul\":1492:1556   */\n  tag_12\n  jump\t// in\ntag_38:\n    /* \"#utility.yul\":1482:1556   */\n  swap3\n  pop\n    /* \"#utility.yul\":1438:1566   */\n  pop\n    /* \"#utility.yul\":1605:1607   */\n  0x20\n    /* \"#utility.yul\":1631:1695   */\n  tag_39\n    /* \"#utility.yul\":1687:1694   */\n  dup6\n    /* \"#utility.yul\":1678:1684   */\n  dup3\n    /* \"#utility.yul\":1667:1676   */\n  dup7\n    /* \"#utility.yul\":1663:1685   */\n  add\n    /* \"#utility.yul\":1631:1695   */\n  tag_16\n  jump\t// in\ntag_39:\n    /* \"#utility.yul\":1621:1695   */\n  swap2\n  pop\n    /* \"#utility.yul\":1576:1705   */\n  pop\n    /* \"#utility.yul\":1205:1712   */\n  swap3\n  pop\n  swap3\n  swap1\n  pop\n  jump\t// out\n    /* \"Compaign.sol\":414:2507  contract Compaign{... */\ntag_6:\n  dataSize(sub_0)\n  dup1\n  dataOffset(sub_0)\n  0x00\n  codecopy\n  0x00\n  return\nstop\n\nsub_0: assembly {\n        /* \"Compaign.sol\":414:2507  contract Compaign{... */\n      mstore(0x40, 0x80)\n      jumpi(tag_1, lt(calldatasize, 0x04))\n      shr(0xe0, calldataload(0x00))\n      dup1\n      0x82fde093\n      gt\n      tag_12\n      jumpi\n      dup1\n      0x82fde093\n      eq\n      tag_7\n      jumpi\n      dup1\n      0x8a9cfd55\n      eq\n      tag_8\n      jumpi\n      dup1\n      0x937e09b1\n      eq\n      tag_9\n      jumpi\n      dup1\n      0xd7bb99ba\n      eq\n      tag_10\n      jumpi\n      dup1\n      0xd7d1bbdb\n      eq\n      tag_11\n      jumpi\n      jump(tag_1)\n    tag_12:\n      dup1\n      0x03441006\n      eq\n      tag_2\n      jumpi\n      dup1\n      0x0a144391\n      eq\n      tag_3\n      jumpi\n      dup1\n      0x4051ddac\n      eq\n      tag_4\n      jumpi\n      dup1\n      0x481c6a75\n      eq\n      tag_5\n      jumpi\n      dup1\n      0x81d12c58\n      eq\n      tag_6\n      jumpi\n    tag_1:\n      0x00\n      dup1\n      revert\n        /* \"Compaign.sol\":1947:2246  function finalizeRequest(uint index) public restricted {... */\n    tag_2:\n      callvalue\n      dup1\n      iszero\n      tag_13\n      jumpi\n      0x00\n      dup1\n      revert\n    tag_13:\n      pop\n      tag_14\n      0x04\n      dup1\n      calldatasize\n      sub\n      dup2\n      add\n      swap1\n      tag_15\n      swap2\n      swap1\n      tag_16\n      jump\t// in\n    tag_15:\n      tag_17\n      jump\t// in\n    tag_14:\n      stop\n        /* \"Compaign.sol\":778:819  mapping(address => bool) public approvers */\n    tag_3:\n      callvalue\n      dup1\n      iszero\n      tag_18\n      jumpi\n      0x00\n      dup1\n      revert\n    tag_18:\n      pop\n      tag_19\n      0x04\n      dup1\n      calldatasize\n      sub\n      dup2\n      add\n      swap1\n      tag_20\n      swap2\n      swap1\n      tag_21\n      jump\t// in\n    tag_20:\n      tag_22\n      jump\t// in\n    tag_19:\n      mload(0x40)\n      tag_23\n      swap2\n      swap1\n      tag_24\n      jump\t// in\n    tag_23:\n      mload(0x40)\n      dup1\n      swap2\n      sub\n      swap1\n      return\n        /* \"Compaign.sol\":2252:2504  function getSummary() public view returns(... */\n    tag_4:\n      callvalue\n      dup1\n      iszero\n      tag_25\n      jumpi\n      0x00\n      dup1\n      revert\n    tag_25:\n      pop\n      tag_26\n      tag_27\n      jump\t// in\n    tag_26:\n      mload(0x40)\n      tag_28\n      swap6\n      swap5\n      swap4\n      swap3\n      swap2\n      swap1\n      tag_29\n      jump\t// in\n    tag_28:\n      mload(0x40)\n      dup1\n      swap2\n      sub\n      swap1\n      return\n        /* \"Compaign.sol\":713:735  address public manager */\n    tag_5:\n      callvalue\n      dup1\n      iszero\n      tag_30\n      jumpi\n      0x00\n      dup1\n      revert\n    tag_30:\n      pop\n      tag_31\n      tag_32\n      jump\t// in\n    tag_31:\n      mload(0x40)\n      tag_33\n      swap2\n      swap1\n      tag_34\n      jump\t// in\n    tag_33:\n      mload(0x40)\n      dup1\n      swap2\n      sub\n      swap1\n      return\n        /* \"Compaign.sol\":644:684  mapping(uint => Request) public requests */\n    tag_6:\n      callvalue\n      dup1\n      iszero\n      tag_35\n      jumpi\n      0x00\n      dup1\n      revert\n    tag_35:\n      pop\n      tag_36\n      0x04\n      dup1\n      calldatasize\n      sub\n      dup2\n      add\n      swap1\n      tag_37\n      swap2\n      swap1\n      tag_16\n      jump\t// in\n    tag_37:\n      tag_38\n      jump\t// in\n    tag_36:\n      mload(0x40)\n      tag_39\n      swap6\n      swap5\n      swap4\n      swap3\n      swap2\n      swap1\n      tag_40\n      jump\t// in\n    tag_39:\n      mload(0x40)\n      dup1\n      swap2\n      sub\n      swap1\n      return\n        /* \"Compaign.sol\":825:851  uint public approversCount */\n    tag_7:\n      callvalue\n      dup1\n      iszero\n      tag_41\n      jumpi\n      0x00\n      dup1\n      revert\n    tag_41:\n      pop\n      tag_42\n      tag_43\n      jump\t// in\n    tag_42:\n      mload(0x40)\n      tag_44\n      swap2\n      swap1\n      tag_45\n      jump\t// in\n    tag_44:\n      mload(0x40)\n      dup1\n      swap2\n      sub\n      swap1\n      return\n        /* \"Compaign.sol\":1228:1665  function createRequest(string memory description, uint value, address payable recipient) public restricted {... */\n    tag_8:\n      callvalue\n      dup1\n      iszero\n      tag_46\n      jumpi\n      0x00\n      dup1\n      revert\n    tag_46:\n      pop\n      tag_47\n      0x04\n      dup1\n      calldatasize\n      sub\n      dup2\n      add\n      swap1\n      tag_48\n      swap2\n      swap1\n      tag_49\n      jump\t// in\n    tag_48:\n      tag_50\n      jump\t// in\n    tag_47:\n      stop\n        /* \"Compaign.sol\":741:772  uint public minimumContribution */\n    tag_9:\n      callvalue\n      dup1\n      iszero\n      tag_51\n      jumpi\n      0x00\n      dup1\n      revert\n    tag_51:\n      pop\n      tag_52\n      tag_53\n      jump\t// in\n    tag_52:\n      mload(0x40)\n      tag_54\n      swap2\n      swap1\n      tag_45\n      jump\t// in\n    tag_54:\n      mload(0x40)\n      dup1\n      swap2\n      sub\n      swap1\n      return\n        /* \"Compaign.sol\":1064:1222  function contribute() public payable {... */\n    tag_10:\n      tag_55\n      tag_56\n      jump\t// in\n    tag_55:\n      stop\n        /* \"Compaign.sol\":1671:1941  function approveRequest(uint index) public {... */\n    tag_11:\n      callvalue\n      dup1\n      iszero\n      tag_57\n      jumpi\n      0x00\n      dup1\n      revert\n    tag_57:\n      pop\n      tag_58\n      0x04\n      dup1\n      calldatasize\n      sub\n      dup2\n      add\n      swap1\n      tag_59\n      swap2\n      swap1\n      tag_16\n      jump\t// in\n    tag_59:\n      tag_60\n      jump\t// in\n    tag_58:\n      stop\n        /* \"Compaign.sol\":1947:2246  function finalizeRequest(uint index) public restricted {... */\n    tag_17:\n        /* \"Compaign.sol\":911:918  manager */\n      0x02\n      0x00\n      swap1\n      sload\n      swap1\n      0x0100\n      exp\n      swap1\n      div\n      0xffffffffffffffffffffffffffffffffffffffff\n      and\n        /* \"Compaign.sol\":897:918  msg.sender == manager */\n      0xffffffffffffffffffffffffffffffffffffffff\n      and\n        /* \"Compaign.sol\":897:907  msg.sender */\n      caller\n        /* \"Compaign.sol\":897:918  msg.sender == manager */\n      0xffffffffffffffffffffffffffffffffffffffff\n      and\n      eq\n        /* \"Compaign.sol\":889:919  require(msg.sender == manager) */\n      tag_62\n      jumpi\n      0x00\n      dup1\n      revert\n    tag_62:\n        /* \"Compaign.sol\":2012:2035  Request storage request */\n      0x00\n        /* \"Compaign.sol\":2038:2046  requests */\n      dup1\n        /* \"Compaign.sol\":2038:2053  requests[index] */\n      0x00\n        /* \"Compaign.sol\":2047:2052  index */\n      dup4\n        /* \"Compaign.sol\":2038:2053  requests[index] */\n      dup2\n      mstore\n      0x20\n      add\n      swap1\n      dup2\n      mstore\n      0x20\n      add\n      0x00\n      keccak256\n        /* \"Compaign.sol\":2012:2053  Request storage request = requests[index] */\n      swap1\n      pop\n        /* \"Compaign.sol\":2115:2116  2 */\n      0x02\n        /* \"Compaign.sol\":2098:2112  approversCount */\n      sload(0x05)\n        /* \"Compaign.sol\":2098:2116  approversCount / 2 */\n      tag_64\n      swap2\n      swap1\n      tag_65\n      jump\t// in\n    tag_64:\n        /* \"Compaign.sol\":2072:2079  request */\n      dup2\n        /* \"Compaign.sol\":2072:2094  request.approvalsCount */\n      0x03\n      add\n      sload\n        /* \"Compaign.sol\":2072:2117  request.approvalsCount > (approversCount / 2) */\n      gt\n        /* \"Compaign.sol\":2064:2118  require(request.approvalsCount > (approversCount / 2)) */\n      tag_66\n      jumpi\n      0x00\n      dup1\n      revert\n    tag_66:\n        /* \"Compaign.sol\":2137:2144  request */\n      dup1\n        /* \"Compaign.sol\":2137:2153  request.complete */\n      0x02\n      add\n      0x14\n      swap1\n      sload\n      swap1\n      0x0100\n      exp\n      swap1\n      div\n      0xff\n      and\n        /* \"Compaign.sol\":2136:2153  !request.complete */\n      iszero\n        /* \"Compaign.sol\":2128:2154  require(!request.complete) */\n      tag_67\n      jumpi\n      0x00\n      dup1\n      revert\n    tag_67:\n        /* \"Compaign.sol\":2165:2172  request */\n      dup1\n        /* \"Compaign.sol\":2165:2182  request.recipient */\n      0x02\n      add\n      0x00\n      swap1\n      sload\n      swap1\n      0x0100\n      exp\n      swap1\n      div\n      0xffffffffffffffffffffffffffffffffffffffff\n      and\n        /* \"Compaign.sol\":2165:2191  request.recipient.transfer */\n      0xffffffffffffffffffffffffffffffffffffffff\n      and\n        /* \"Compaign.sol\":2165:2206  request.recipient.transfer(request.value) */\n      0x08fc\n        /* \"Compaign.sol\":2192:2199  request */\n      dup3\n        /* \"Compaign.sol\":2192:2205  request.value */\n      0x01\n      add\n      sload\n        /* \"Compaign.sol\":2165:2206  request.recipient.transfer(request.value) */\n      swap1\n      dup2\n      iszero\n      mul\n      swap1\n      mload(0x40)\n      0x00\n      mload(0x40)\n      dup1\n      dup4\n      sub\n      dup2\n      dup6\n      dup9\n      dup9\n      call\n      swap4\n      pop\n      pop\n      pop\n      pop\n      iszero\n      dup1\n      iszero\n      tag_69\n      jumpi\n      returndatasize\n      0x00\n      dup1\n      returndatacopy\n      revert(0x00, returndatasize)\n    tag_69:\n      pop\n        /* \"Compaign.sol\":2235:2239  true */\n      0x01\n        /* \"Compaign.sol\":2216:2223  request */\n      dup2\n        /* \"Compaign.sol\":2216:2232  request.complete */\n      0x02\n      add\n      0x14\n        /* \"Compaign.sol\":2216:2239  request.complete = true */\n      0x0100\n      exp\n      dup2\n      sload\n      dup2\n      0xff\n      mul\n      not\n      and\n      swap1\n      dup4\n      iszero\n      iszero\n      mul\n      or\n      swap1\n      sstore\n      pop\n        /* \"Compaign.sol\":2002:2246  {... */\n      pop\n        /* \"Compaign.sol\":1947:2246  function finalizeRequest(uint index) public restricted {... */\n      pop\n      jump\t// out\n        /* \"Compaign.sol\":778:819  mapping(address => bool) public approvers */\n    tag_22:\n      mstore(0x20, 0x04)\n      dup1\n      0x00\n      mstore\n      keccak256(0x00, 0x40)\n      0x00\n      swap2\n      pop\n      sload\n      swap1\n      0x0100\n      exp\n      swap1\n      div\n      0xff\n      and\n      dup2\n      jump\t// out\n        /* \"Compaign.sol\":2252:2504  function getSummary() public view returns(... */\n    tag_27:\n        /* \"Compaign.sol\":2301:2305  uint */\n      0x00\n        /* \"Compaign.sol\":2307:2311  uint */\n      dup1\n        /* \"Compaign.sol\":2313:2317  uint */\n      0x00\n        /* \"Compaign.sol\":2319:2323  uint */\n      dup1\n        /* \"Compaign.sol\":2325:2332  address */\n      0x00\n        /* \"Compaign.sol\":2367:2386  minimumContribution */\n      sload(0x03)\n        /* \"Compaign.sol\":2398:2419  address(this).balance */\n      selfbalance\n        /* \"Compaign.sol\":2431:2445  approversCount */\n      sload(0x05)\n        /* \"Compaign.sol\":2457:2468  numRequests */\n      sload(0x01)\n        /* \"Compaign.sol\":2480:2487  manager */\n      0x02\n      0x00\n      swap1\n      sload\n      swap1\n      0x0100\n      exp\n      swap1\n      div\n      0xffffffffffffffffffffffffffffffffffffffff\n      and\n        /* \"Compaign.sol\":2348:2497  return (... */\n      swap5\n      pop\n      swap5\n      pop\n      swap5\n      pop\n      swap5\n      pop\n      swap5\n      pop\n        /* \"Compaign.sol\":2252:2504  function getSummary() public view returns(... */\n      swap1\n      swap2\n      swap3\n      swap4\n      swap5\n      jump\t// out\n        /* \"Compaign.sol\":713:735  address public manager */\n    tag_32:\n      0x02\n      0x00\n      swap1\n      sload\n      swap1\n      0x0100\n      exp\n      swap1\n      div\n      0xffffffffffffffffffffffffffffffffffffffff\n      and\n      dup2\n      jump\t// out\n        /* \"Compaign.sol\":644:684  mapping(uint => Request) public requests */\n    tag_38:\n      mstore(0x20, 0x00)\n      dup1\n      0x00\n      mstore\n      keccak256(0x00, 0x40)\n      0x00\n      swap2\n      pop\n      swap1\n      pop\n      dup1\n      0x00\n      add\n      dup1\n      sload\n      tag_71\n      swap1\n      tag_72\n      jump\t// in\n    tag_71:\n      dup1\n      0x1f\n      add\n      0x20\n      dup1\n      swap2\n      div\n      mul\n      0x20\n      add\n      mload(0x40)\n      swap1\n      dup2\n      add\n      0x40\n      mstore\n      dup1\n      swap3\n      swap2\n      swap1\n      dup2\n      dup2\n      mstore\n      0x20\n      add\n      dup3\n      dup1\n      sload\n      tag_73\n      swap1\n      tag_72\n      jump\t// in\n    tag_73:\n      dup1\n      iszero\n      tag_74\n      jumpi\n      dup1\n      0x1f\n      lt\n      tag_75\n      jumpi\n      0x0100\n      dup1\n      dup4\n      sload\n      div\n      mul\n      dup4\n      mstore\n      swap2\n      0x20\n      add\n      swap2\n      jump(tag_74)\n    tag_75:\n      dup3\n      add\n      swap2\n      swap1\n      0x00\n      mstore\n      keccak256(0x00, 0x20)\n      swap1\n    tag_76:\n      dup2\n      sload\n      dup2\n      mstore\n      swap1\n      0x01\n      add\n      swap1\n      0x20\n      add\n      dup1\n      dup4\n      gt\n      tag_76\n      jumpi\n      dup3\n      swap1\n      sub\n      0x1f\n      and\n      dup3\n      add\n      swap2\n    tag_74:\n      pop\n      pop\n      pop\n      pop\n      pop\n      swap1\n      dup1\n      0x01\n      add\n      sload\n      swap1\n      dup1\n      0x02\n      add\n      0x00\n      swap1\n      sload\n      swap1\n      0x0100\n      exp\n      swap1\n      div\n      0xffffffffffffffffffffffffffffffffffffffff\n      and\n      swap1\n      dup1\n      0x02\n      add\n      0x14\n      swap1\n      sload\n      swap1\n      0x0100\n      exp\n      swap1\n      div\n      0xff\n      and\n      swap1\n      dup1\n      0x03\n      add\n      sload\n      swap1\n      pop\n      dup6\n      jump\t// out\n        /* \"Compaign.sol\":825:851  uint public approversCount */\n    tag_43:\n      sload(0x05)\n      dup2\n      jump\t// out\n        /* \"Compaign.sol\":1228:1665  function createRequest(string memory description, uint value, address payable recipient) public restricted {... */\n    tag_50:\n        /* \"Compaign.sol\":911:918  manager */\n      0x02\n      0x00\n      swap1\n      sload\n      swap1\n      0x0100\n      exp\n      swap1\n      div\n      0xffffffffffffffffffffffffffffffffffffffff\n      and\n        /* \"Compaign.sol\":897:918  msg.sender == manager */\n      0xffffffffffffffffffffffffffffffffffffffff\n      and\n        /* \"Compaign.sol\":897:907  msg.sender */\n      caller\n        /* \"Compaign.sol\":897:918  msg.sender == manager */\n      0xffffffffffffffffffffffffffffffffffffffff\n      and\n      eq\n        /* \"Compaign.sol\":889:919  require(msg.sender == manager) */\n      tag_78\n      jumpi\n      0x00\n      dup1\n      revert\n    tag_78:\n        /* \"Compaign.sol\":1421:1438  Request storage r */\n      0x00\n        /* \"Compaign.sol\":1441:1449  requests */\n      dup1\n        /* \"Compaign.sol\":1441:1464  requests[numRequests++] */\n      0x00\n        /* \"Compaign.sol\":1450:1461  numRequests */\n      0x01\n      0x00\n        /* \"Compaign.sol\":1450:1463  numRequests++ */\n      dup2\n      sload\n      dup1\n      swap3\n      swap2\n      swap1\n      tag_80\n      swap1\n      tag_81\n      jump\t// in\n    tag_80:\n      swap2\n      swap1\n      pop\n      sstore\n        /* \"Compaign.sol\":1441:1464  requests[numRequests++] */\n      dup2\n      mstore\n      0x20\n      add\n      swap1\n      dup2\n      mstore\n      0x20\n      add\n      0x00\n      keccak256\n        /* \"Compaign.sol\":1421:1464  Request storage r = requests[numRequests++] */\n      swap1\n      pop\n        /* \"Compaign.sol\":1498:1509  description */\n      dup4\n        /* \"Compaign.sol\":1482:1483  r */\n      dup2\n        /* \"Compaign.sol\":1482:1495  r.description */\n      0x00\n      add\n        /* \"Compaign.sol\":1482:1509  r.description = description */\n      swap1\n      dup1\n      mload\n      swap1\n      0x20\n      add\n      swap1\n      tag_82\n      swap3\n      swap2\n      swap1\n      tag_83\n      jump\t// in\n    tag_82:\n      pop\n        /* \"Compaign.sol\":1537:1542  value */\n      dup3\n        /* \"Compaign.sol\":1527:1528  r */\n      dup2\n        /* \"Compaign.sol\":1527:1534  r.value */\n      0x01\n      add\n        /* \"Compaign.sol\":1527:1542  r.value = value */\n      dup2\n      swap1\n      sstore\n      pop\n        /* \"Compaign.sol\":1574:1583  recipient */\n      dup2\n        /* \"Compaign.sol\":1560:1561  r */\n      dup2\n        /* \"Compaign.sol\":1560:1571  r.recipient */\n      0x02\n      add\n      0x00\n        /* \"Compaign.sol\":1560:1583  r.recipient = recipient */\n      0x0100\n      exp\n      dup2\n      sload\n      dup2\n      0xffffffffffffffffffffffffffffffffffffffff\n      mul\n      not\n      and\n      swap1\n      dup4\n      0xffffffffffffffffffffffffffffffffffffffff\n      and\n      mul\n      or\n      swap1\n      sstore\n      pop\n        /* \"Compaign.sol\":1614:1619  false */\n      0x00\n        /* \"Compaign.sol\":1601:1602  r */\n      dup2\n        /* \"Compaign.sol\":1601:1611  r.complete */\n      0x02\n      add\n      0x14\n        /* \"Compaign.sol\":1601:1619  r.complete = false */\n      0x0100\n      exp\n      dup2\n      sload\n      dup2\n      0xff\n      mul\n      not\n      and\n      swap1\n      dup4\n      iszero\n      iszero\n      mul\n      or\n      swap1\n      sstore\n      pop\n        /* \"Compaign.sol\":1656:1657  0 */\n      0x00\n        /* \"Compaign.sol\":1637:1638  r */\n      dup2\n        /* \"Compaign.sol\":1637:1653  r.approvalsCount */\n      0x03\n      add\n        /* \"Compaign.sol\":1637:1657  r.approvalsCount = 0 */\n      dup2\n      swap1\n      sstore\n      pop\n        /* \"Compaign.sol\":1335:1665  {... */\n      pop\n        /* \"Compaign.sol\":1228:1665  function createRequest(string memory description, uint value, address payable recipient) public restricted {... */\n      pop\n      pop\n      pop\n      jump\t// out\n        /* \"Compaign.sol\":741:772  uint public minimumContribution */\n    tag_53:\n      sload(0x03)\n      dup2\n      jump\t// out\n        /* \"Compaign.sol\":1064:1222  function contribute() public payable {... */\n    tag_56:\n        /* \"Compaign.sol\":1131:1150  minimumContribution */\n      sload(0x03)\n        /* \"Compaign.sol\":1119:1128  msg.value */\n      callvalue\n        /* \"Compaign.sol\":1119:1150  msg.value > minimumContribution */\n      gt\n        /* \"Compaign.sol\":1111:1151  require(msg.value > minimumContribution) */\n      tag_85\n      jumpi\n      0x00\n      dup1\n      revert\n    tag_85:\n        /* \"Compaign.sol\":1185:1189  true */\n      0x01\n        /* \"Compaign.sol\":1161:1170  approvers */\n      0x04\n        /* \"Compaign.sol\":1161:1182  approvers[msg.sender] */\n      0x00\n        /* \"Compaign.sol\":1171:1181  msg.sender */\n      caller\n        /* \"Compaign.sol\":1161:1182  approvers[msg.sender] */\n      0xffffffffffffffffffffffffffffffffffffffff\n      and\n      0xffffffffffffffffffffffffffffffffffffffff\n      and\n      dup2\n      mstore\n      0x20\n      add\n      swap1\n      dup2\n      mstore\n      0x20\n      add\n      0x00\n      keccak256\n      0x00\n        /* \"Compaign.sol\":1161:1189  approvers[msg.sender] = true */\n      0x0100\n      exp\n      dup2\n      sload\n      dup2\n      0xff\n      mul\n      not\n      and\n      swap1\n      dup4\n      iszero\n      iszero\n      mul\n      or\n      swap1\n      sstore\n      pop\n        /* \"Compaign.sol\":1199:1213  approversCount */\n      0x05\n      0x00\n        /* \"Compaign.sol\":1199:1215  approversCount++ */\n      dup2\n      sload\n      dup1\n      swap3\n      swap2\n      swap1\n      tag_86\n      swap1\n      tag_81\n      jump\t// in\n    tag_86:\n      swap2\n      swap1\n      pop\n      sstore\n      pop\n        /* \"Compaign.sol\":1064:1222  function contribute() public payable {... */\n      jump\t// out\n        /* \"Compaign.sol\":1671:1941  function approveRequest(uint index) public {... */\n    tag_60:\n        /* \"Compaign.sol\":1724:1747  Request storage request */\n      0x00\n        /* \"Compaign.sol\":1750:1758  requests */\n      dup1\n        /* \"Compaign.sol\":1750:1765  requests[index] */\n      0x00\n        /* \"Compaign.sol\":1759:1764  index */\n      dup4\n        /* \"Compaign.sol\":1750:1765  requests[index] */\n      dup2\n      mstore\n      0x20\n      add\n      swap1\n      dup2\n      mstore\n      0x20\n      add\n      0x00\n      keccak256\n        /* \"Compaign.sol\":1724:1765  Request storage request = requests[index] */\n      swap1\n      pop\n        /* \"Compaign.sol\":1783:1792  approvers */\n      0x04\n        /* \"Compaign.sol\":1783:1804  approvers[msg.sender] */\n      0x00\n        /* \"Compaign.sol\":1793:1803  msg.sender */\n      caller\n        /* \"Compaign.sol\":1783:1804  approvers[msg.sender] */\n      0xffffffffffffffffffffffffffffffffffffffff\n      and\n      0xffffffffffffffffffffffffffffffffffffffff\n      and\n      dup2\n      mstore\n      0x20\n      add\n      swap1\n      dup2\n      mstore\n      0x20\n      add\n      0x00\n      keccak256\n      0x00\n      swap1\n      sload\n      swap1\n      0x0100\n      exp\n      swap1\n      div\n      0xff\n      and\n        /* \"Compaign.sol\":1775:1805  require(approvers[msg.sender]) */\n      tag_88\n      jumpi\n      0x00\n      dup1\n      revert\n    tag_88:\n        /* \"Compaign.sol\":1824:1831  request */\n      dup1\n        /* \"Compaign.sol\":1824:1841  request.approvals */\n      0x04\n      add\n        /* \"Compaign.sol\":1824:1853  request.approvals[msg.sender] */\n      0x00\n        /* \"Compaign.sol\":1842:1852  msg.sender */\n      caller\n        /* \"Compaign.sol\":1824:1853  request.approvals[msg.sender] */\n      0xffffffffffffffffffffffffffffffffffffffff\n      and\n      0xffffffffffffffffffffffffffffffffffffffff\n      and\n      dup2\n      mstore\n      0x20\n      add\n      swap1\n      dup2\n      mstore\n      0x20\n      add\n      0x00\n      keccak256\n      0x00\n      swap1\n      sload\n      swap1\n      0x0100\n      exp\n      swap1\n      div\n      0xff\n      and\n        /* \"Compaign.sol\":1823:1853  !request.approvals[msg.sender] */\n      iszero\n        /* \"Compaign.sol\":1815:1854  require(!request.approvals[msg.sender]) */\n      tag_89\n      jumpi\n      0x00\n      dup1\n      revert\n    tag_89:\n        /* \"Compaign.sol\":1895:1899  true */\n      0x01\n        /* \"Compaign.sol\":1865:1872  request */\n      dup2\n        /* \"Compaign.sol\":1865:1882  request.approvals */\n      0x04\n      add\n        /* \"Compaign.sol\":1865:1894  request.approvals[msg.sender] */\n      0x00\n        /* \"Compaign.sol\":1883:1893  msg.sender */\n      caller\n        /* \"Compaign.sol\":1865:1894  request.approvals[msg.sender] */\n      0xffffffffffffffffffffffffffffffffffffffff\n      and\n      0xffffffffffffffffffffffffffffffffffffffff\n      and\n      dup2\n      mstore\n      0x20\n      add\n      swap1\n      dup2\n      mstore\n      0x20\n      add\n      0x00\n      keccak256\n      0x00\n        /* \"Compaign.sol\":1865:1899  request.approvals[msg.sender]=true */\n      0x0100\n      exp\n      dup2\n      sload\n      dup2\n      0xff\n      mul\n      not\n      and\n      swap1\n      dup4\n      iszero\n      iszero\n      mul\n      or\n      swap1\n      sstore\n      pop\n        /* \"Compaign.sol\":1909:1916  request */\n      dup1\n        /* \"Compaign.sol\":1909:1931  request.approvalsCount */\n      0x03\n      add\n      0x00\n        /* \"Compaign.sol\":1909:1933  request.approvalsCount++ */\n      dup2\n      sload\n      dup1\n      swap3\n      swap2\n      swap1\n      tag_90\n      swap1\n      tag_81\n      jump\t// in\n    tag_90:\n      swap2\n      swap1\n      pop\n      sstore\n      pop\n        /* \"Compaign.sol\":1714:1941  {... */\n      pop\n        /* \"Compaign.sol\":1671:1941  function approveRequest(uint index) public {... */\n      pop\n      jump\t// out\n    tag_83:\n      dup3\n      dup1\n      sload\n      tag_91\n      swap1\n      tag_72\n      jump\t// in\n    tag_91:\n      swap1\n      0x00\n      mstore\n      keccak256(0x00, 0x20)\n      swap1\n      0x1f\n      add\n      0x20\n      swap1\n      div\n      dup2\n      add\n      swap3\n      dup3\n      tag_93\n      jumpi\n      0x00\n      dup6\n      sstore\n      jump(tag_92)\n    tag_93:\n      dup3\n      0x1f\n      lt\n      tag_94\n      jumpi\n      dup1\n      mload\n      not(0xff)\n      and\n      dup4\n      dup1\n      add\n      or\n      dup6\n      sstore\n      jump(tag_92)\n    tag_94:\n      dup3\n      dup1\n      add\n      0x01\n      add\n      dup6\n      sstore\n      dup3\n      iszero\n      tag_92\n      jumpi\n      swap2\n      dup3\n      add\n    tag_95:\n      dup3\n      dup2\n      gt\n      iszero\n      tag_96\n      jumpi\n      dup3\n      mload\n      dup3\n      sstore\n      swap2\n      0x20\n      add\n      swap2\n      swap1\n      0x01\n      add\n      swap1\n      jump(tag_95)\n    tag_96:\n    tag_92:\n      pop\n      swap1\n      pop\n      tag_97\n      swap2\n      swap1\n      tag_98\n      jump\t// in\n    tag_97:\n      pop\n      swap1\n      jump\t// out\n    tag_98:\n    tag_99:\n      dup1\n      dup3\n      gt\n      iszero\n      tag_100\n      jumpi\n      0x00\n      dup2\n      0x00\n      swap1\n      sstore\n      pop\n      0x01\n      add\n      jump(tag_99)\n    tag_100:\n      pop\n      swap1\n      jump\t// out\n        /* \"#utility.yul\":7:82   */\n    tag_101:\n        /* \"#utility.yul\":40:46   */\n      0x00\n        /* \"#utility.yul\":73:75   */\n      0x40\n        /* \"#utility.yul\":67:76   */\n      mload\n        /* \"#utility.yul\":57:76   */\n      swap1\n      pop\n        /* \"#utility.yul\":7:82   */\n      swap1\n      jump\t// out\n        /* \"#utility.yul\":88:205   */\n    tag_102:\n        /* \"#utility.yul\":197:198   */\n      0x00\n        /* \"#utility.yul\":194:195   */\n      dup1\n        /* \"#utility.yul\":187:199   */\n      revert\n        /* \"#utility.yul\":211:328   */\n    tag_103:\n        /* \"#utility.yul\":320:321   */\n      0x00\n        /* \"#utility.yul\":317:318   */\n      dup1\n        /* \"#utility.yul\":310:322   */\n      revert\n        /* \"#utility.yul\":334:411   */\n    tag_104:\n        /* \"#utility.yul\":371:378   */\n      0x00\n        /* \"#utility.yul\":400:405   */\n      dup2\n        /* \"#utility.yul\":389:405   */\n      swap1\n      pop\n        /* \"#utility.yul\":334:411   */\n      swap2\n      swap1\n      pop\n      jump\t// out\n        /* \"#utility.yul\":417:539   */\n    tag_105:\n        /* \"#utility.yul\":490:514   */\n      tag_142\n        /* \"#utility.yul\":508:513   */\n      dup2\n        /* \"#utility.yul\":490:514   */\n      tag_104\n      jump\t// in\n    tag_142:\n        /* \"#utility.yul\":483:488   */\n      dup2\n        /* \"#utility.yul\":480:515   */\n      eq\n        /* \"#utility.yul\":470:533   */\n      tag_143\n      jumpi\n        /* \"#utility.yul\":529:530   */\n      0x00\n        /* \"#utility.yul\":526:527   */\n      dup1\n        /* \"#utility.yul\":519:531   */\n      revert\n        /* \"#utility.yul\":470:533   */\n    tag_143:\n        /* \"#utility.yul\":417:539   */\n      pop\n      jump\t// out\n        /* \"#utility.yul\":545:684   */\n    tag_106:\n        /* \"#utility.yul\":591:596   */\n      0x00\n        /* \"#utility.yul\":629:635   */\n      dup2\n        /* \"#utility.yul\":616:636   */\n      calldataload\n        /* \"#utility.yul\":607:636   */\n      swap1\n      pop\n        /* \"#utility.yul\":645:678   */\n      tag_145\n        /* \"#utility.yul\":672:677   */\n      dup2\n        /* \"#utility.yul\":645:678   */\n      tag_105\n      jump\t// in\n    tag_145:\n        /* \"#utility.yul\":545:684   */\n      swap3\n      swap2\n      pop\n      pop\n      jump\t// out\n        /* \"#utility.yul\":690:1019   */\n    tag_16:\n        /* \"#utility.yul\":749:755   */\n      0x00\n        /* \"#utility.yul\":798:800   */\n      0x20\n        /* \"#utility.yul\":786:795   */\n      dup3\n        /* \"#utility.yul\":777:784   */\n      dup5\n        /* \"#utility.yul\":773:796   */\n      sub\n        /* \"#utility.yul\":769:801   */\n      slt\n        /* \"#utility.yul\":766:885   */\n      iszero\n      tag_147\n      jumpi\n        /* \"#utility.yul\":804:883   */\n      tag_148\n      tag_102\n      jump\t// in\n    tag_148:\n        /* \"#utility.yul\":766:885   */\n    tag_147:\n        /* \"#utility.yul\":924:925   */\n      0x00\n        /* \"#utility.yul\":949:1002   */\n      tag_149\n        /* \"#utility.yul\":994:1001   */\n      dup5\n        /* \"#utility.yul\":985:991   */\n      dup3\n        /* \"#utility.yul\":974:983   */\n      dup6\n        /* \"#utility.yul\":970:992   */\n      add\n        /* \"#utility.yul\":949:1002   */\n      tag_106\n      jump\t// in\n    tag_149:\n        /* \"#utility.yul\":939:1002   */\n      swap2\n      pop\n        /* \"#utility.yul\":895:1012   */\n      pop\n        /* \"#utility.yul\":690:1019   */\n      swap3\n      swap2\n      pop\n      pop\n      jump\t// out\n        /* \"#utility.yul\":1025:1151   */\n    tag_107:\n        /* \"#utility.yul\":1062:1069   */\n      0x00\n        /* \"#utility.yul\":1102:1144   */\n      0xffffffffffffffffffffffffffffffffffffffff\n        /* \"#utility.yul\":1095:1100   */\n      dup3\n        /* \"#utility.yul\":1091:1145   */\n      and\n        /* \"#utility.yul\":1080:1145   */\n      swap1\n      pop\n        /* \"#utility.yul\":1025:1151   */\n      swap2\n      swap1\n      pop\n      jump\t// out\n        /* \"#utility.yul\":1157:1253   */\n    tag_108:\n        /* \"#utility.yul\":1194:1201   */\n      0x00\n        /* \"#utility.yul\":1223:1247   */\n      tag_152\n        /* \"#utility.yul\":1241:1246   */\n      dup3\n        /* \"#utility.yul\":1223:1247   */\n      tag_107\n      jump\t// in\n    tag_152:\n        /* \"#utility.yul\":1212:1247   */\n      swap1\n      pop\n        /* \"#utility.yul\":1157:1253   */\n      swap2\n      swap1\n      pop\n      jump\t// out\n        /* \"#utility.yul\":1259:1381   */\n    tag_109:\n        /* \"#utility.yul\":1332:1356   */\n      tag_154\n        /* \"#utility.yul\":1350:1355   */\n      dup2\n        /* \"#utility.yul\":1332:1356   */\n      tag_108\n      jump\t// in\n    tag_154:\n        /* \"#utility.yul\":1325:1330   */\n      dup2\n        /* \"#utility.yul\":1322:1357   */\n      eq\n        /* \"#utility.yul\":1312:1375   */\n      tag_155\n      jumpi\n        /* \"#utility.yul\":1371:1372   */\n      0x00\n        /* \"#utility.yul\":1368:1369   */\n      dup1\n        /* \"#utility.yul\":1361:1373   */\n      revert\n        /* \"#utility.yul\":1312:1375   */\n    tag_155:\n        /* \"#utility.yul\":1259:1381   */\n      pop\n      jump\t// out\n        /* \"#utility.yul\":1387:1526   */\n    tag_110:\n        /* \"#utility.yul\":1433:1438   */\n      0x00\n        /* \"#utility.yul\":1471:1477   */\n      dup2\n        /* \"#utility.yul\":1458:1478   */\n      calldataload\n        /* \"#utility.yul\":1449:1478   */\n      swap1\n      pop\n        /* \"#utility.yul\":1487:1520   */\n      tag_157\n        /* \"#utility.yul\":1514:1519   */\n      dup2\n        /* \"#utility.yul\":1487:1520   */\n      tag_109\n      jump\t// in\n    tag_157:\n        /* \"#utility.yul\":1387:1526   */\n      swap3\n      swap2\n      pop\n      pop\n      jump\t// out\n        /* \"#utility.yul\":1532:1861   */\n    tag_21:\n        /* \"#utility.yul\":1591:1597   */\n      0x00\n        /* \"#utility.yul\":1640:1642   */\n      0x20\n        /* \"#utility.yul\":1628:1637   */\n      dup3\n        /* \"#utility.yul\":1619:1626   */\n      dup5\n        /* \"#utility.yul\":1615:1638   */\n      sub\n        /* \"#utility.yul\":1611:1643   */\n      slt\n        /* \"#utility.yul\":1608:1727   */\n      iszero\n      tag_159\n      jumpi\n        /* \"#utility.yul\":1646:1725   */\n      tag_160\n      tag_102\n      jump\t// in\n    tag_160:\n        /* \"#utility.yul\":1608:1727   */\n    tag_159:\n        /* \"#utility.yul\":1766:1767   */\n      0x00\n        /* \"#utility.yul\":1791:1844   */\n      tag_161\n        /* \"#utility.yul\":1836:1843   */\n      dup5\n        /* \"#utility.yul\":1827:1833   */\n      dup3\n        /* \"#utility.yul\":1816:1825   */\n      dup6\n        /* \"#utility.yul\":1812:1834   */\n      add\n        /* \"#utility.yul\":1791:1844   */\n      tag_110\n      jump\t// in\n    tag_161:\n        /* \"#utility.yul\":1781:1844   */\n      swap2\n      pop\n        /* \"#utility.yul\":1737:1854   */\n      pop\n        /* \"#utility.yul\":1532:1861   */\n      swap3\n      swap2\n      pop\n      pop\n      jump\t// out\n        /* \"#utility.yul\":1867:1957   */\n    tag_111:\n        /* \"#utility.yul\":1901:1908   */\n      0x00\n        /* \"#utility.yul\":1944:1949   */\n      dup2\n        /* \"#utility.yul\":1937:1950   */\n      iszero\n        /* \"#utility.yul\":1930:1951   */\n      iszero\n        /* \"#utility.yul\":1919:1951   */\n      swap1\n      pop\n        /* \"#utility.yul\":1867:1957   */\n      swap2\n      swap1\n      pop\n      jump\t// out\n        /* \"#utility.yul\":1963:2072   */\n    tag_112:\n        /* \"#utility.yul\":2044:2065   */\n      tag_164\n        /* \"#utility.yul\":2059:2064   */\n      dup2\n        /* \"#utility.yul\":2044:2065   */\n      tag_111\n      jump\t// in\n    tag_164:\n        /* \"#utility.yul\":2039:2042   */\n      dup3\n        /* \"#utility.yul\":2032:2066   */\n      mstore\n        /* \"#utility.yul\":1963:2072   */\n      pop\n      pop\n      jump\t// out\n        /* \"#utility.yul\":2078:2288   */\n    tag_24:\n        /* \"#utility.yul\":2165:2169   */\n      0x00\n        /* \"#utility.yul\":2203:2205   */\n      0x20\n        /* \"#utility.yul\":2192:2201   */\n      dup3\n        /* \"#utility.yul\":2188:2206   */\n      add\n        /* \"#utility.yul\":2180:2206   */\n      swap1\n      pop\n        /* \"#utility.yul\":2216:2281   */\n      tag_166\n        /* \"#utility.yul\":2278:2279   */\n      0x00\n        /* \"#utility.yul\":2267:2276   */\n      dup4\n        /* \"#utility.yul\":2263:2280   */\n      add\n        /* \"#utility.yul\":2254:2260   */\n      dup5\n        /* \"#utility.yul\":2216:2281   */\n      tag_112\n      jump\t// in\n    tag_166:\n        /* \"#utility.yul\":2078:2288   */\n      swap3\n      swap2\n      pop\n      pop\n      jump\t// out\n        /* \"#utility.yul\":2294:2412   */\n    tag_113:\n        /* \"#utility.yul\":2381:2405   */\n      tag_168\n        /* \"#utility.yul\":2399:2404   */\n      dup2\n        /* \"#utility.yul\":2381:2405   */\n      tag_104\n      jump\t// in\n    tag_168:\n        /* \"#utility.yul\":2376:2379   */\n      dup3\n        /* \"#utility.yul\":2369:2406   */\n      mstore\n        /* \"#utility.yul\":2294:2412   */\n      pop\n      pop\n      jump\t// out\n        /* \"#utility.yul\":2418:2536   */\n    tag_114:\n        /* \"#utility.yul\":2505:2529   */\n      tag_170\n        /* \"#utility.yul\":2523:2528   */\n      dup2\n        /* \"#utility.yul\":2505:2529   */\n      tag_108\n      jump\t// in\n    tag_170:\n        /* \"#utility.yul\":2500:2503   */\n      dup3\n        /* \"#utility.yul\":2493:2530   */\n      mstore\n        /* \"#utility.yul\":2418:2536   */\n      pop\n      pop\n      jump\t// out\n        /* \"#utility.yul\":2542:3206   */\n    tag_29:\n        /* \"#utility.yul\":2747:2751   */\n      0x00\n        /* \"#utility.yul\":2785:2788   */\n      0xa0\n        /* \"#utility.yul\":2774:2783   */\n      dup3\n        /* \"#utility.yul\":2770:2789   */\n      add\n        /* \"#utility.yul\":2762:2789   */\n      swap1\n      pop\n        /* \"#utility.yul\":2799:2870   */\n      tag_172\n        /* \"#utility.yul\":2867:2868   */\n      0x00\n        /* \"#utility.yul\":2856:2865   */\n      dup4\n        /* \"#utility.yul\":2852:2869   */\n      add\n        /* \"#utility.yul\":2843:2849   */\n      dup9\n        /* \"#utility.yul\":2799:2870   */\n      tag_113\n      jump\t// in\n    tag_172:\n        /* \"#utility.yul\":2880:2952   */\n      tag_173\n        /* \"#utility.yul\":2948:2950   */\n      0x20\n        /* \"#utility.yul\":2937:2946   */\n      dup4\n        /* \"#utility.yul\":2933:2951   */\n      add\n        /* \"#utility.yul\":2924:2930   */\n      dup8\n        /* \"#utility.yul\":2880:2952   */\n      tag_113\n      jump\t// in\n    tag_173:\n        /* \"#utility.yul\":2962:3034   */\n      tag_174\n        /* \"#utility.yul\":3030:3032   */\n      0x40\n        /* \"#utility.yul\":3019:3028   */\n      dup4\n        /* \"#utility.yul\":3015:3033   */\n      add\n        /* \"#utility.yul\":3006:3012   */\n      dup7\n        /* \"#utility.yul\":2962:3034   */\n      tag_113\n      jump\t// in\n    tag_174:\n        /* \"#utility.yul\":3044:3116   */\n      tag_175\n        /* \"#utility.yul\":3112:3114   */\n      0x60\n        /* \"#utility.yul\":3101:3110   */\n      dup4\n        /* \"#utility.yul\":3097:3115   */\n      add\n        /* \"#utility.yul\":3088:3094   */\n      dup6\n        /* \"#utility.yul\":3044:3116   */\n      tag_113\n      jump\t// in\n    tag_175:\n        /* \"#utility.yul\":3126:3199   */\n      tag_176\n        /* \"#utility.yul\":3194:3197   */\n      0x80\n        /* \"#utility.yul\":3183:3192   */\n      dup4\n        /* \"#utility.yul\":3179:3198   */\n      add\n        /* \"#utility.yul\":3170:3176   */\n      dup5\n        /* \"#utility.yul\":3126:3199   */\n      tag_114\n      jump\t// in\n    tag_176:\n        /* \"#utility.yul\":2542:3206   */\n      swap7\n      swap6\n      pop\n      pop\n      pop\n      pop\n      pop\n      pop\n      jump\t// out\n        /* \"#utility.yul\":3212:3434   */\n    tag_34:\n        /* \"#utility.yul\":3305:3309   */\n      0x00\n        /* \"#utility.yul\":3343:3345   */\n      0x20\n        /* \"#utility.yul\":3332:3341   */\n      dup3\n        /* \"#utility.yul\":3328:3346   */\n      add\n        /* \"#utility.yul\":3320:3346   */\n      swap1\n      pop\n        /* \"#utility.yul\":3356:3427   */\n      tag_178\n        /* \"#utility.yul\":3424:3425   */\n      0x00\n        /* \"#utility.yul\":3413:3422   */\n      dup4\n        /* \"#utility.yul\":3409:3426   */\n      add\n        /* \"#utility.yul\":3400:3406   */\n      dup5\n        /* \"#utility.yul\":3356:3427   */\n      tag_114\n      jump\t// in\n    tag_178:\n        /* \"#utility.yul\":3212:3434   */\n      swap3\n      swap2\n      pop\n      pop\n      jump\t// out\n        /* \"#utility.yul\":3440:3539   */\n    tag_115:\n        /* \"#utility.yul\":3492:3498   */\n      0x00\n        /* \"#utility.yul\":3526:3531   */\n      dup2\n        /* \"#utility.yul\":3520:3532   */\n      mload\n        /* \"#utility.yul\":3510:3532   */\n      swap1\n      pop\n        /* \"#utility.yul\":3440:3539   */\n      swap2\n      swap1\n      pop\n      jump\t// out\n        /* \"#utility.yul\":3545:3714   */\n    tag_116:\n        /* \"#utility.yul\":3629:3640   */\n      0x00\n        /* \"#utility.yul\":3663:3669   */\n      dup3\n        /* \"#utility.yul\":3658:3661   */\n      dup3\n        /* \"#utility.yul\":3651:3670   */\n      mstore\n        /* \"#utility.yul\":3703:3707   */\n      0x20\n        /* \"#utility.yul\":3698:3701   */\n      dup3\n        /* \"#utility.yul\":3694:3708   */\n      add\n        /* \"#utility.yul\":3679:3708   */\n      swap1\n      pop\n        /* \"#utility.yul\":3545:3714   */\n      swap3\n      swap2\n      pop\n      pop\n      jump\t// out\n        /* \"#utility.yul\":3720:4027   */\n    tag_117:\n        /* \"#utility.yul\":3788:3789   */\n      0x00\n        /* \"#utility.yul\":3798:3911   */\n    tag_182:\n        /* \"#utility.yul\":3812:3818   */\n      dup4\n        /* \"#utility.yul\":3809:3810   */\n      dup2\n        /* \"#utility.yul\":3806:3819   */\n      lt\n        /* \"#utility.yul\":3798:3911   */\n      iszero\n      tag_184\n      jumpi\n        /* \"#utility.yul\":3897:3898   */\n      dup1\n        /* \"#utility.yul\":3892:3895   */\n      dup3\n        /* \"#utility.yul\":3888:3899   */\n      add\n        /* \"#utility.yul\":3882:3900   */\n      mload\n        /* \"#utility.yul\":3878:3879   */\n      dup2\n        /* \"#utility.yul\":3873:3876   */\n      dup5\n        /* \"#utility.yul\":3869:3880   */\n      add\n        /* \"#utility.yul\":3862:3901   */\n      mstore\n        /* \"#utility.yul\":3834:3836   */\n      0x20\n        /* \"#utility.yul\":3831:3832   */\n      dup2\n        /* \"#utility.yul\":3827:3837   */\n      add\n        /* \"#utility.yul\":3822:3837   */\n      swap1\n      pop\n        /* \"#utility.yul\":3798:3911   */\n      jump(tag_182)\n    tag_184:\n        /* \"#utility.yul\":3929:3935   */\n      dup4\n        /* \"#utility.yul\":3926:3927   */\n      dup2\n        /* \"#utility.yul\":3923:3936   */\n      gt\n        /* \"#utility.yul\":3920:4021   */\n      iszero\n      tag_185\n      jumpi\n        /* \"#utility.yul\":4009:4010   */\n      0x00\n        /* \"#utility.yul\":4000:4006   */\n      dup5\n        /* \"#utility.yul\":3995:3998   */\n      dup5\n        /* \"#utility.yul\":3991:4007   */\n      add\n        /* \"#utility.yul\":3984:4011   */\n      mstore\n        /* \"#utility.yul\":3920:4021   */\n    tag_185:\n        /* \"#utility.yul\":3769:4027   */\n      pop\n        /* \"#utility.yul\":3720:4027   */\n      pop\n      pop\n      pop\n      jump\t// out\n        /* \"#utility.yul\":4033:4135   */\n    tag_118:\n        /* \"#utility.yul\":4074:4080   */\n      0x00\n        /* \"#utility.yul\":4125:4127   */\n      0x1f\n        /* \"#utility.yul\":4121:4128   */\n      not\n        /* \"#utility.yul\":4116:4118   */\n      0x1f\n        /* \"#utility.yul\":4109:4114   */\n      dup4\n        /* \"#utility.yul\":4105:4119   */\n      add\n        /* \"#utility.yul\":4101:4129   */\n      and\n        /* \"#utility.yul\":4091:4129   */\n      swap1\n      pop\n        /* \"#utility.yul\":4033:4135   */\n      swap2\n      swap1\n      pop\n      jump\t// out\n        /* \"#utility.yul\":4141:4505   */\n    tag_119:\n        /* \"#utility.yul\":4229:4232   */\n      0x00\n        /* \"#utility.yul\":4257:4296   */\n      tag_188\n        /* \"#utility.yul\":4290:4295   */\n      dup3\n        /* \"#utility.yul\":4257:4296   */\n      tag_115\n      jump\t// in\n    tag_188:\n        /* \"#utility.yul\":4312:4383   */\n      tag_189\n        /* \"#utility.yul\":4376:4382   */\n      dup2\n        /* \"#utility.yul\":4371:4374   */\n      dup6\n        /* \"#utility.yul\":4312:4383   */\n      tag_116\n      jump\t// in\n    tag_189:\n        /* \"#utility.yul\":4305:4383   */\n      swap4\n      pop\n        /* \"#utility.yul\":4392:4444   */\n      tag_190\n        /* \"#utility.yul\":4437:4443   */\n      dup2\n        /* \"#utility.yul\":4432:4435   */\n      dup6\n        /* \"#utility.yul\":4425:4429   */\n      0x20\n        /* \"#utility.yul\":4418:4423   */\n      dup7\n        /* \"#utility.yul\":4414:4430   */\n      add\n        /* \"#utility.yul\":4392:4444   */\n      tag_117\n      jump\t// in\n    tag_190:\n        /* \"#utility.yul\":4469:4498   */\n      tag_191\n        /* \"#utility.yul\":4491:4497   */\n      dup2\n        /* \"#utility.yul\":4469:4498   */\n      tag_118\n      jump\t// in\n    tag_191:\n        /* \"#utility.yul\":4464:4467   */\n      dup5\n        /* \"#utility.yul\":4460:4499   */\n      add\n        /* \"#utility.yul\":4453:4499   */\n      swap2\n      pop\n        /* \"#utility.yul\":4233:4505   */\n      pop\n        /* \"#utility.yul\":4141:4505   */\n      swap3\n      swap2\n      pop\n      pop\n      jump\t// out\n        /* \"#utility.yul\":4511:4615   */\n    tag_120:\n        /* \"#utility.yul\":4556:4563   */\n      0x00\n        /* \"#utility.yul\":4585:4609   */\n      tag_193\n        /* \"#utility.yul\":4603:4608   */\n      dup3\n        /* \"#utility.yul\":4585:4609   */\n      tag_107\n      jump\t// in\n    tag_193:\n        /* \"#utility.yul\":4574:4609   */\n      swap1\n      pop\n        /* \"#utility.yul\":4511:4615   */\n      swap2\n      swap1\n      pop\n      jump\t// out\n        /* \"#utility.yul\":4621:4763   */\n    tag_121:\n        /* \"#utility.yul\":4724:4756   */\n      tag_195\n        /* \"#utility.yul\":4750:4755   */\n      dup2\n        /* \"#utility.yul\":4724:4756   */\n      tag_120\n      jump\t// in\n    tag_195:\n        /* \"#utility.yul\":4719:4722   */\n      dup3\n        /* \"#utility.yul\":4712:4757   */\n      mstore\n        /* \"#utility.yul\":4621:4763   */\n      pop\n      pop\n      jump\t// out\n        /* \"#utility.yul\":4769:5544   */\n    tag_40:\n        /* \"#utility.yul\":5004:5008   */\n      0x00\n        /* \"#utility.yul\":5042:5045   */\n      0xa0\n        /* \"#utility.yul\":5031:5040   */\n      dup3\n        /* \"#utility.yul\":5027:5046   */\n      add\n        /* \"#utility.yul\":5019:5046   */\n      swap1\n      pop\n        /* \"#utility.yul\":5092:5101   */\n      dup2\n        /* \"#utility.yul\":5086:5090   */\n      dup2\n        /* \"#utility.yul\":5082:5102   */\n      sub\n        /* \"#utility.yul\":5078:5079   */\n      0x00\n        /* \"#utility.yul\":5067:5076   */\n      dup4\n        /* \"#utility.yul\":5063:5080   */\n      add\n        /* \"#utility.yul\":5056:5103   */\n      mstore\n        /* \"#utility.yul\":5120:5198   */\n      tag_197\n        /* \"#utility.yul\":5193:5197   */\n      dup2\n        /* \"#utility.yul\":5184:5190   */\n      dup9\n        /* \"#utility.yul\":5120:5198   */\n      tag_119\n      jump\t// in\n    tag_197:\n        /* \"#utility.yul\":5112:5198   */\n      swap1\n      pop\n        /* \"#utility.yul\":5208:5280   */\n      tag_198\n        /* \"#utility.yul\":5276:5278   */\n      0x20\n        /* \"#utility.yul\":5265:5274   */\n      dup4\n        /* \"#utility.yul\":5261:5279   */\n      add\n        /* \"#utility.yul\":5252:5258   */\n      dup8\n        /* \"#utility.yul\":5208:5280   */\n      tag_113\n      jump\t// in\n    tag_198:\n        /* \"#utility.yul\":5290:5378   */\n      tag_199\n        /* \"#utility.yul\":5374:5376   */\n      0x40\n        /* \"#utility.yul\":5363:5372   */\n      dup4\n        /* \"#utility.yul\":5359:5377   */\n      add\n        /* \"#utility.yul\":5350:5356   */\n      dup7\n        /* \"#utility.yul\":5290:5378   */\n      tag_121\n      jump\t// in\n    tag_199:\n        /* \"#utility.yul\":5388:5454   */\n      tag_200\n        /* \"#utility.yul\":5450:5452   */\n      0x60\n        /* \"#utility.yul\":5439:5448   */\n      dup4\n        /* \"#utility.yul\":5435:5453   */\n      add\n        /* \"#utility.yul\":5426:5432   */\n      dup6\n        /* \"#utility.yul\":5388:5454   */\n      tag_112\n      jump\t// in\n    tag_200:\n        /* \"#utility.yul\":5464:5537   */\n      tag_201\n        /* \"#utility.yul\":5532:5535   */\n      0x80\n        /* \"#utility.yul\":5521:5530   */\n      dup4\n        /* \"#utility.yul\":5517:5536   */\n      add\n        /* \"#utility.yul\":5508:5514   */\n      dup5\n        /* \"#utility.yul\":5464:5537   */\n      tag_113\n      jump\t// in\n    tag_201:\n        /* \"#utility.yul\":4769:5544   */\n      swap7\n      swap6\n      pop\n      pop\n      pop\n      pop\n      pop\n      pop\n      jump\t// out\n        /* \"#utility.yul\":5550:5772   */\n    tag_45:\n        /* \"#utility.yul\":5643:5647   */\n      0x00\n        /* \"#utility.yul\":5681:5683   */\n      0x20\n        /* \"#utility.yul\":5670:5679   */\n      dup3\n        /* \"#utility.yul\":5666:5684   */\n      add\n        /* \"#utility.yul\":5658:5684   */\n      swap1\n      pop\n        /* \"#utility.yul\":5694:5765   */\n      tag_203\n        /* \"#utility.yul\":5762:5763   */\n      0x00\n        /* \"#utility.yul\":5751:5760   */\n      dup4\n        /* \"#utility.yul\":5747:5764   */\n      add\n        /* \"#utility.yul\":5738:5744   */\n      dup5\n        /* \"#utility.yul\":5694:5765   */\n      tag_113\n      jump\t// in\n    tag_203:\n        /* \"#utility.yul\":5550:5772   */\n      swap3\n      swap2\n      pop\n      pop\n      jump\t// out\n        /* \"#utility.yul\":5778:5895   */\n    tag_122:\n        /* \"#utility.yul\":5887:5888   */\n      0x00\n        /* \"#utility.yul\":5884:5885   */\n      dup1\n        /* \"#utility.yul\":5877:5889   */\n      revert\n        /* \"#utility.yul\":5901:6018   */\n    tag_123:\n        /* \"#utility.yul\":6010:6011   */\n      0x00\n        /* \"#utility.yul\":6007:6008   */\n      dup1\n        /* \"#utility.yul\":6000:6012   */\n      revert\n        /* \"#utility.yul\":6024:6204   */\n    tag_124:\n        /* \"#utility.yul\":6072:6149   */\n      0x4e487b7100000000000000000000000000000000000000000000000000000000\n        /* \"#utility.yul\":6069:6070   */\n      0x00\n        /* \"#utility.yul\":6062:6150   */\n      mstore\n        /* \"#utility.yul\":6169:6173   */\n      0x41\n        /* \"#utility.yul\":6166:6167   */\n      0x04\n        /* \"#utility.yul\":6159:6174   */\n      mstore\n        /* \"#utility.yul\":6193:6197   */\n      0x24\n        /* \"#utility.yul\":6190:6191   */\n      0x00\n        /* \"#utility.yul\":6183:6198   */\n      revert\n        /* \"#utility.yul\":6210:6491   */\n    tag_125:\n        /* \"#utility.yul\":6293:6320   */\n      tag_208\n        /* \"#utility.yul\":6315:6319   */\n      dup3\n        /* \"#utility.yul\":6293:6320   */\n      tag_118\n      jump\t// in\n    tag_208:\n        /* \"#utility.yul\":6285:6291   */\n      dup2\n        /* \"#utility.yul\":6281:6321   */\n      add\n        /* \"#utility.yul\":6423:6429   */\n      dup2\n        /* \"#utility.yul\":6411:6421   */\n      dup2\n        /* \"#utility.yul\":6408:6430   */\n      lt\n        /* \"#utility.yul\":6387:6405   */\n      0xffffffffffffffff\n        /* \"#utility.yul\":6375:6385   */\n      dup3\n        /* \"#utility.yul\":6372:6406   */\n      gt\n        /* \"#utility.yul\":6369:6431   */\n      or\n        /* \"#utility.yul\":6366:6454   */\n      iszero\n      tag_209\n      jumpi\n        /* \"#utility.yul\":6434:6452   */\n      tag_210\n      tag_124\n      jump\t// in\n    tag_210:\n        /* \"#utility.yul\":6366:6454   */\n    tag_209:\n        /* \"#utility.yul\":6474:6484   */\n      dup1\n        /* \"#utility.yul\":6470:6472   */\n      0x40\n        /* \"#utility.yul\":6463:6485   */\n      mstore\n        /* \"#utility.yul\":6253:6491   */\n      pop\n        /* \"#utility.yul\":6210:6491   */\n      pop\n      pop\n      jump\t// out\n        /* \"#utility.yul\":6497:6626   */\n    tag_126:\n        /* \"#utility.yul\":6531:6537   */\n      0x00\n        /* \"#utility.yul\":6558:6578   */\n      tag_212\n      tag_101\n      jump\t// in\n    tag_212:\n        /* \"#utility.yul\":6548:6578   */\n      swap1\n      pop\n        /* \"#utility.yul\":6587:6620   */\n      tag_213\n        /* \"#utility.yul\":6615:6619   */\n      dup3\n        /* \"#utility.yul\":6607:6613   */\n      dup3\n        /* \"#utility.yul\":6587:6620   */\n      tag_125\n      jump\t// in\n    tag_213:\n        /* \"#utility.yul\":6497:6626   */\n      swap2\n      swap1\n      pop\n      jump\t// out\n        /* \"#utility.yul\":6632:6940   */\n    tag_127:\n        /* \"#utility.yul\":6694:6698   */\n      0x00\n        /* \"#utility.yul\":6784:6802   */\n      0xffffffffffffffff\n        /* \"#utility.yul\":6776:6782   */\n      dup3\n        /* \"#utility.yul\":6773:6803   */\n      gt\n        /* \"#utility.yul\":6770:6826   */\n      iszero\n      tag_215\n      jumpi\n        /* \"#utility.yul\":6806:6824   */\n      tag_216\n      tag_124\n      jump\t// in\n    tag_216:\n        /* \"#utility.yul\":6770:6826   */\n    tag_215:\n        /* \"#utility.yul\":6844:6873   */\n      tag_217\n        /* \"#utility.yul\":6866:6872   */\n      dup3\n        /* \"#utility.yul\":6844:6873   */\n      tag_118\n      jump\t// in\n    tag_217:\n        /* \"#utility.yul\":6836:6873   */\n      swap1\n      pop\n        /* \"#utility.yul\":6928:6932   */\n      0x20\n        /* \"#utility.yul\":6922:6926   */\n      dup2\n        /* \"#utility.yul\":6918:6933   */\n      add\n        /* \"#utility.yul\":6910:6933   */\n      swap1\n      pop\n        /* \"#utility.yul\":6632:6940   */\n      swap2\n      swap1\n      pop\n      jump\t// out\n        /* \"#utility.yul\":6946:7100   */\n    tag_128:\n        /* \"#utility.yul\":7030:7036   */\n      dup3\n        /* \"#utility.yul\":7025:7028   */\n      dup2\n        /* \"#utility.yul\":7020:7023   */\n      dup4\n        /* \"#utility.yul\":7007:7037   */\n      calldatacopy\n        /* \"#utility.yul\":7092:7093   */\n      0x00\n        /* \"#utility.yul\":7083:7089   */\n      dup4\n        /* \"#utility.yul\":7078:7081   */\n      dup4\n        /* \"#utility.yul\":7074:7090   */\n      add\n        /* \"#utility.yul\":7067:7094   */\n      mstore\n        /* \"#utility.yul\":6946:7100   */\n      pop\n      pop\n      pop\n      jump\t// out\n        /* \"#utility.yul\":7106:7518   */\n    tag_129:\n        /* \"#utility.yul\":7184:7189   */\n      0x00\n        /* \"#utility.yul\":7209:7275   */\n      tag_220\n        /* \"#utility.yul\":7225:7274   */\n      tag_221\n        /* \"#utility.yul\":7267:7273   */\n      dup5\n        /* \"#utility.yul\":7225:7274   */\n      tag_127\n      jump\t// in\n    tag_221:\n        /* \"#utility.yul\":7209:7275   */\n      tag_126\n      jump\t// in\n    tag_220:\n        /* \"#utility.yul\":7200:7275   */\n      swap1\n      pop\n        /* \"#utility.yul\":7298:7304   */\n      dup3\n        /* \"#utility.yul\":7291:7296   */\n      dup2\n        /* \"#utility.yul\":7284:7305   */\n      mstore\n        /* \"#utility.yul\":7336:7340   */\n      0x20\n        /* \"#utility.yul\":7329:7334   */\n      dup2\n        /* \"#utility.yul\":7325:7341   */\n      add\n        /* \"#utility.yul\":7374:7377   */\n      dup5\n        /* \"#utility.yul\":7365:7371   */\n      dup5\n        /* \"#utility.yul\":7360:7363   */\n      dup5\n        /* \"#utility.yul\":7356:7372   */\n      add\n        /* \"#utility.yul\":7353:7378   */\n      gt\n        /* \"#utility.yul\":7350:7462   */\n      iszero\n      tag_222\n      jumpi\n        /* \"#utility.yul\":7381:7460   */\n      tag_223\n      tag_123\n      jump\t// in\n    tag_223:\n        /* \"#utility.yul\":7350:7462   */\n    tag_222:\n        /* \"#utility.yul\":7471:7512   */\n      tag_224\n        /* \"#utility.yul\":7505:7511   */\n      dup5\n        /* \"#utility.yul\":7500:7503   */\n      dup3\n        /* \"#utility.yul\":7495:7498   */\n      dup6\n        /* \"#utility.yul\":7471:7512   */\n      tag_128\n      jump\t// in\n    tag_224:\n        /* \"#utility.yul\":7190:7518   */\n      pop\n        /* \"#utility.yul\":7106:7518   */\n      swap4\n      swap3\n      pop\n      pop\n      pop\n      jump\t// out\n        /* \"#utility.yul\":7538:7878   */\n    tag_130:\n        /* \"#utility.yul\":7594:7599   */\n      0x00\n        /* \"#utility.yul\":7643:7646   */\n      dup3\n        /* \"#utility.yul\":7636:7640   */\n      0x1f\n        /* \"#utility.yul\":7628:7634   */\n      dup4\n        /* \"#utility.yul\":7624:7641   */\n      add\n        /* \"#utility.yul\":7620:7647   */\n      slt\n        /* \"#utility.yul\":7610:7732   */\n      tag_226\n      jumpi\n        /* \"#utility.yul\":7651:7730   */\n      tag_227\n      tag_122\n      jump\t// in\n    tag_227:\n        /* \"#utility.yul\":7610:7732   */\n    tag_226:\n        /* \"#utility.yul\":7768:7774   */\n      dup2\n        /* \"#utility.yul\":7755:7775   */\n      calldataload\n        /* \"#utility.yul\":7793:7872   */\n      tag_228\n        /* \"#utility.yul\":7868:7871   */\n      dup5\n        /* \"#utility.yul\":7860:7866   */\n      dup3\n        /* \"#utility.yul\":7853:7857   */\n      0x20\n        /* \"#utility.yul\":7845:7851   */\n      dup7\n        /* \"#utility.yul\":7841:7858   */\n      add\n        /* \"#utility.yul\":7793:7872   */\n      tag_129\n      jump\t// in\n    tag_228:\n        /* \"#utility.yul\":7784:7872   */\n      swap2\n      pop\n        /* \"#utility.yul\":7600:7878   */\n      pop\n        /* \"#utility.yul\":7538:7878   */\n      swap3\n      swap2\n      pop\n      pop\n      jump\t// out\n        /* \"#utility.yul\":7884:8022   */\n    tag_131:\n        /* \"#utility.yul\":7965:7997   */\n      tag_230\n        /* \"#utility.yul\":7991:7996   */\n      dup2\n        /* \"#utility.yul\":7965:7997   */\n      tag_120\n      jump\t// in\n    tag_230:\n        /* \"#utility.yul\":7958:7963   */\n      dup2\n        /* \"#utility.yul\":7955:7998   */\n      eq\n        /* \"#utility.yul\":7945:8016   */\n      tag_231\n      jumpi\n        /* \"#utility.yul\":8012:8013   */\n      0x00\n        /* \"#utility.yul\":8009:8010   */\n      dup1\n        /* \"#utility.yul\":8002:8014   */\n      revert\n        /* \"#utility.yul\":7945:8016   */\n    tag_231:\n        /* \"#utility.yul\":7884:8022   */\n      pop\n      jump\t// out\n        /* \"#utility.yul\":8028:8183   */\n    tag_132:\n        /* \"#utility.yul\":8082:8087   */\n      0x00\n        /* \"#utility.yul\":8120:8126   */\n      dup2\n        /* \"#utility.yul\":8107:8127   */\n      calldataload\n        /* \"#utility.yul\":8098:8127   */\n      swap1\n      pop\n        /* \"#utility.yul\":8136:8177   */\n      tag_233\n        /* \"#utility.yul\":8171:8176   */\n      dup2\n        /* \"#utility.yul\":8136:8177   */\n      tag_131\n      jump\t// in\n    tag_233:\n        /* \"#utility.yul\":8028:8183   */\n      swap3\n      swap2\n      pop\n      pop\n      jump\t// out\n        /* \"#utility.yul\":8189:9004   */\n    tag_49:\n        /* \"#utility.yul\":8284:8290   */\n      0x00\n        /* \"#utility.yul\":8292:8298   */\n      dup1\n        /* \"#utility.yul\":8300:8306   */\n      0x00\n        /* \"#utility.yul\":8349:8351   */\n      0x60\n        /* \"#utility.yul\":8337:8346   */\n      dup5\n        /* \"#utility.yul\":8328:8335   */\n      dup7\n        /* \"#utility.yul\":8324:8347   */\n      sub\n        /* \"#utility.yul\":8320:8352   */\n      slt\n        /* \"#utility.yul\":8317:8436   */\n      iszero\n      tag_235\n      jumpi\n        /* \"#utility.yul\":8355:8434   */\n      tag_236\n      tag_102\n      jump\t// in\n    tag_236:\n        /* \"#utility.yul\":8317:8436   */\n    tag_235:\n        /* \"#utility.yul\":8503:8504   */\n      0x00\n        /* \"#utility.yul\":8492:8501   */\n      dup5\n        /* \"#utility.yul\":8488:8505   */\n      add\n        /* \"#utility.yul\":8475:8506   */\n      calldataload\n        /* \"#utility.yul\":8533:8551   */\n      0xffffffffffffffff\n        /* \"#utility.yul\":8525:8531   */\n      dup2\n        /* \"#utility.yul\":8522:8552   */\n      gt\n        /* \"#utility.yul\":8519:8636   */\n      iszero\n      tag_237\n      jumpi\n        /* \"#utility.yul\":8555:8634   */\n      tag_238\n      tag_103\n      jump\t// in\n    tag_238:\n        /* \"#utility.yul\":8519:8636   */\n    tag_237:\n        /* \"#utility.yul\":8660:8723   */\n      tag_239\n        /* \"#utility.yul\":8715:8722   */\n      dup7\n        /* \"#utility.yul\":8706:8712   */\n      dup3\n        /* \"#utility.yul\":8695:8704   */\n      dup8\n        /* \"#utility.yul\":8691:8713   */\n      add\n        /* \"#utility.yul\":8660:8723   */\n      tag_130\n      jump\t// in\n    tag_239:\n        /* \"#utility.yul\":8650:8723   */\n      swap4\n      pop\n        /* \"#utility.yul\":8446:8733   */\n      pop\n        /* \"#utility.yul\":8772:8774   */\n      0x20\n        /* \"#utility.yul\":8798:8851   */\n      tag_240\n        /* \"#utility.yul\":8843:8850   */\n      dup7\n        /* \"#utility.yul\":8834:8840   */\n      dup3\n        /* \"#utility.yul\":8823:8832   */\n      dup8\n        /* \"#utility.yul\":8819:8841   */\n      add\n        /* \"#utility.yul\":8798:8851   */\n      tag_106\n      jump\t// in\n    tag_240:\n        /* \"#utility.yul\":8788:8851   */\n      swap3\n      pop\n        /* \"#utility.yul\":8743:8861   */\n      pop\n        /* \"#utility.yul\":8900:8902   */\n      0x40\n        /* \"#utility.yul\":8926:8987   */\n      tag_241\n        /* \"#utility.yul\":8979:8986   */\n      dup7\n        /* \"#utility.yul\":8970:8976   */\n      dup3\n        /* \"#utility.yul\":8959:8968   */\n      dup8\n        /* \"#utility.yul\":8955:8977   */\n      add\n        /* \"#utility.yul\":8926:8987   */\n      tag_132\n      jump\t// in\n    tag_241:\n        /* \"#utility.yul\":8916:8987   */\n      swap2\n      pop\n        /* \"#utility.yul\":8871:8997   */\n      pop\n        /* \"#utility.yul\":8189:9004   */\n      swap3\n      pop\n      swap3\n      pop\n      swap3\n      jump\t// out\n        /* \"#utility.yul\":9010:9190   */\n    tag_133:\n        /* \"#utility.yul\":9058:9135   */\n      0x4e487b7100000000000000000000000000000000000000000000000000000000\n        /* \"#utility.yul\":9055:9056   */\n      0x00\n        /* \"#utility.yul\":9048:9136   */\n      mstore\n        /* \"#utility.yul\":9155:9159   */\n      0x12\n        /* \"#utility.yul\":9152:9153   */\n      0x04\n        /* \"#utility.yul\":9145:9160   */\n      mstore\n        /* \"#utility.yul\":9179:9183   */\n      0x24\n        /* \"#utility.yul\":9176:9177   */\n      0x00\n        /* \"#utility.yul\":9169:9184   */\n      revert\n        /* \"#utility.yul\":9196:9376   */\n    tag_134:\n        /* \"#utility.yul\":9244:9321   */\n      0x4e487b7100000000000000000000000000000000000000000000000000000000\n        /* \"#utility.yul\":9241:9242   */\n      0x00\n        /* \"#utility.yul\":9234:9322   */\n      mstore\n        /* \"#utility.yul\":9341:9345   */\n      0x11\n        /* \"#utility.yul\":9338:9339   */\n      0x04\n        /* \"#utility.yul\":9331:9346   */\n      mstore\n        /* \"#utility.yul\":9365:9369   */\n      0x24\n        /* \"#utility.yul\":9362:9363   */\n      0x00\n        /* \"#utility.yul\":9355:9370   */\n      revert\n        /* \"#utility.yul\":9382:9567   */\n    tag_65:\n        /* \"#utility.yul\":9422:9423   */\n      0x00\n        /* \"#utility.yul\":9439:9459   */\n      tag_245\n        /* \"#utility.yul\":9457:9458   */\n      dup3\n        /* \"#utility.yul\":9439:9459   */\n      tag_104\n      jump\t// in\n    tag_245:\n        /* \"#utility.yul\":9434:9459   */\n      swap2\n      pop\n        /* \"#utility.yul\":9473:9493   */\n      tag_246\n        /* \"#utility.yul\":9491:9492   */\n      dup4\n        /* \"#utility.yul\":9473:9493   */\n      tag_104\n      jump\t// in\n    tag_246:\n        /* \"#utility.yul\":9468:9493   */\n      swap3\n      pop\n        /* \"#utility.yul\":9512:9513   */\n      dup3\n        /* \"#utility.yul\":9502:9537   */\n      tag_247\n      jumpi\n        /* \"#utility.yul\":9517:9535   */\n      tag_248\n      tag_133\n      jump\t// in\n    tag_248:\n        /* \"#utility.yul\":9502:9537   */\n    tag_247:\n        /* \"#utility.yul\":9559:9560   */\n      dup3\n        /* \"#utility.yul\":9556:9557   */\n      dup3\n        /* \"#utility.yul\":9552:9561   */\n      div\n        /* \"#utility.yul\":9547:9561   */\n      swap1\n      pop\n        /* \"#utility.yul\":9382:9567   */\n      swap3\n      swap2\n      pop\n      pop\n      jump\t// out\n        /* \"#utility.yul\":9573:9753   */\n    tag_135:\n        /* \"#utility.yul\":9621:9698   */\n      0x4e487b7100000000000000000000000000000000000000000000000000000000\n        /* \"#utility.yul\":9618:9619   */\n      0x00\n        /* \"#utility.yul\":9611:9699   */\n      mstore\n        /* \"#utility.yul\":9718:9722   */\n      0x22\n        /* \"#utility.yul\":9715:9716   */\n      0x04\n        /* \"#utility.yul\":9708:9723   */\n      mstore\n        /* \"#utility.yul\":9742:9746   */\n      0x24\n        /* \"#utility.yul\":9739:9740   */\n      0x00\n        /* \"#utility.yul\":9732:9747   */\n      revert\n        /* \"#utility.yul\":9759:10079   */\n    tag_72:\n        /* \"#utility.yul\":9803:9809   */\n      0x00\n        /* \"#utility.yul\":9840:9841   */\n      0x02\n        /* \"#utility.yul\":9834:9838   */\n      dup3\n        /* \"#utility.yul\":9830:9842   */\n      div\n        /* \"#utility.yul\":9820:9842   */\n      swap1\n      pop\n        /* \"#utility.yul\":9887:9888   */\n      0x01\n        /* \"#utility.yul\":9881:9885   */\n      dup3\n        /* \"#utility.yul\":9877:9889   */\n      and\n        /* \"#utility.yul\":9908:9926   */\n      dup1\n        /* \"#utility.yul\":9898:9979   */\n      tag_251\n      jumpi\n        /* \"#utility.yul\":9964:9968   */\n      0x7f\n        /* \"#utility.yul\":9956:9962   */\n      dup3\n        /* \"#utility.yul\":9952:9969   */\n      and\n        /* \"#utility.yul\":9942:9969   */\n      swap2\n      pop\n        /* \"#utility.yul\":9898:9979   */\n    tag_251:\n        /* \"#utility.yul\":10026:10028   */\n      0x20\n        /* \"#utility.yul\":10018:10024   */\n      dup3\n        /* \"#utility.yul\":10015:10029   */\n      lt\n        /* \"#utility.yul\":9995:10013   */\n      dup2\n        /* \"#utility.yul\":9992:10030   */\n      sub\n        /* \"#utility.yul\":9989:10073   */\n      tag_252\n      jumpi\n        /* \"#utility.yul\":10045:10063   */\n      tag_253\n      tag_135\n      jump\t// in\n    tag_253:\n        /* \"#utility.yul\":9989:10073   */\n    tag_252:\n        /* \"#utility.yul\":9810:10079   */\n      pop\n        /* \"#utility.yul\":9759:10079   */\n      swap2\n      swap1\n      pop\n      jump\t// out\n        /* \"#utility.yul\":10085:10318   */\n    tag_81:\n        /* \"#utility.yul\":10124:10127   */\n      0x00\n        /* \"#utility.yul\":10147:10171   */\n      tag_255\n        /* \"#utility.yul\":10165:10170   */\n      dup3\n        /* \"#utility.yul\":10147:10171   */\n      tag_104\n      jump\t// in\n    tag_255:\n        /* \"#utility.yul\":10138:10171   */\n      swap2\n      pop\n        /* \"#utility.yul\":10193:10259   */\n      0xffffffffffffffffffffffffffffffffffffffffffffffffffffffffffffffff\n        /* \"#utility.yul\":10186:10191   */\n      dup3\n        /* \"#utility.yul\":10183:10260   */\n      sub\n        /* \"#utility.yul\":10180:10283   */\n      tag_256\n      jumpi\n        /* \"#utility.yul\":10263:10281   */\n      tag_257\n      tag_134\n      jump\t// in\n    tag_257:\n        /* \"#utility.yul\":10180:10283   */\n    tag_256:\n        /* \"#utility.yul\":10310:10311   */\n      0x01\n        /* \"#utility.yul\":10303:10308   */\n      dup3\n        /* \"#utility.yul\":10299:10312   */\n      add\n        /* \"#utility.yul\":10292:10312   */\n      swap1\n      pop\n        /* \"#utility.yul\":10085:10318   */\n      swap2\n      swap1\n      pop\n      jump\t// out\n\n    auxdata: 0xa26469706673582212202f483127213c9fdec4ac51c5af0b071d083155406b6ee86523856c0b696dcb6b64736f6c634300080d0033\n}\n","bytecode":{"linkReferences":{},"object":"60806040523480156200001157600080fd5b50604051620010313803806200103183398181016040528101906200003791906200012c565b80600260006101000a81548173ffffffffffffffffffffffffffffffffffffffff021916908373ffffffffffffffffffffffffffffffffffffffff16021790555081600381905550505062000173565b600080fd5b6000819050919050565b620000a1816200008c565b8114620000ad57600080fd5b50565b600081519050620000c18162000096565b92915050565b600073ffffffffffffffffffffffffffffffffffffffff82169050919050565b6000620000f482620000c7565b9050919050565b6200010681620000e7565b81146200011257600080fd5b50565b6000815190506200012681620000fb565b92915050565b6000806040838503121562000146576200014562000087565b5b60006200015685828601620000b0565b9250506020620001698582860162000115565b9150509250929050565b610eae80620001836000396000f3fe6080604052600436106100915760003560e01c806382fde0931161005957806382fde093146101975780638a9cfd55146101c2578063937e09b1146101eb578063d7bb99ba14610216578063d7d1bbdb1461022057610091565b806303441006146100965780630a144391146100bf5780634051ddac146100fc578063481c6a751461012b57806381d12c5814610156575b600080fd5b3480156100a257600080fd5b506100bd60048036038101906100b891906108c8565b610249565b005b3480156100cb57600080fd5b506100e660048036038101906100e19190610953565b610383565b6040516100f3919061099b565b60405180910390f35b34801561010857600080fd5b506101116103a3565b6040516101229594939291906109d4565b60405180910390f35b34801561013757600080fd5b506101406103e9565b60405161014d9190610a27565b60405180910390f35b34801561016257600080fd5b5061017d600480360381019061017891906108c8565b61040f565b60405161018e959493929190610afc565b60405180910390f35b3480156101a357600080fd5b506101ac6104fa565b6040516101b99190610b56565b60405180910390f35b3480156101ce57600080fd5b506101e960048036038101906101e49190610cd2565b610500565b005b3480156101f757600080fd5b50610200610618565b60405161020d9190610b56565b60405180910390f35b61021e61061e565b005b34801561022c57600080fd5b50610247600480360381019061024291906108c8565b61069e565b005b600260009054906101000a900473ffffffffffffffffffffffffffffffffffffffff1673ffffffffffffffffffffffffffffffffffffffff163373ffffffffffffffffffffffffffffffffffffffff16146102a357600080fd5b6000806000838152602001908152602001600020905060026005546102c89190610d9f565b8160030154116102d757600080fd5b8060020160149054906101000a900460ff16156102f357600080fd5b8060020160009054906101000a900473ffffffffffffffffffffffffffffffffffffffff1673ffffffffffffffffffffffffffffffffffffffff166108fc82600101549081150290604051600060405180830381858888f19350505050158015610361573d6000803e3d6000fd5b5060018160020160146101000a81548160ff0219169083151502179055505050565b60046020528060005260406000206000915054906101000a900460ff1681565b600080600080600060035447600554600154600260009054906101000a900473ffffffffffffffffffffffffffffffffffffffff16945094509450945094509091929394565b600260009054906101000a900473ffffffffffffffffffffffffffffffffffffffff1681565b600060205280600052604060002060009150905080600001805461043290610dff565b80601f016020809104026020016040519081016040528092919081815260200182805461045e90610dff565b80156104ab5780601f10610480576101008083540402835291602001916104ab565b820191906000526020600020905b81548152906001019060200180831161048e57829003601f168201915b5050505050908060010154908060020160009054906101000a900473ffffffffffffffffffffffffffffffffffffffff16908060020160149054906101000a900460ff16908060030154905085565b60055481565b600260009054906101000a900473ffffffffffffffffffffffffffffffffffffffff1673ffffffffffffffffffffffffffffffffffffffff163373ffffffffffffffffffffffffffffffffffffffff161461055a57600080fd5b60008060006001600081548092919061057290610e30565b91905055815260200190815260200160002090508381600001908051906020019061059e9291906107db565b50828160010181905550818160020160006101000a81548173ffffffffffffffffffffffffffffffffffffffff021916908373ffffffffffffffffffffffffffffffffffffffff16021790555060008160020160146101000a81548160ff0219169083151502179055506000816003018190555050505050565b60035481565b600354341161062c57600080fd5b6001600460003373ffffffffffffffffffffffffffffffffffffffff1673ffffffffffffffffffffffffffffffffffffffff16815260200190815260200160002060006101000a81548160ff0219169083151502179055506005600081548092919061069790610e30565b9190505550565b60008060008381526020019081526020016000209050600460003373ffffffffffffffffffffffffffffffffffffffff1673ffffffffffffffffffffffffffffffffffffffff16815260200190815260200160002060009054906101000a900460ff1661070a57600080fd5b8060040160003373ffffffffffffffffffffffffffffffffffffffff1673ffffffffffffffffffffffffffffffffffffffff16815260200190815260200160002060009054906101000a900460ff161561076357600080fd5b60018160040160003373ffffffffffffffffffffffffffffffffffffffff1673ffffffffffffffffffffffffffffffffffffffff16815260200190815260200160002060006101000a81548160ff0219169083151502179055508060030160008154809291906107d290610e30565b91905055505050565b8280546107e790610dff565b90600052602060002090601f0160209004810192826108095760008555610850565b82601f1061082257805160ff1916838001178555610850565b82800160010185558215610850579182015b8281111561084f578251825591602001919060010190610834565b5b50905061085d9190610861565b5090565b5b8082111561087a576000816000905550600101610862565b5090565b6000604051905090565b600080fd5b600080fd5b6000819050919050565b6108a581610892565b81146108b057600080fd5b50565b6000813590506108c28161089c565b92915050565b6000602082840312156108de576108dd610888565b5b60006108ec848285016108b3565b91505092915050565b600073ffffffffffffffffffffffffffffffffffffffff82169050919050565b6000610920826108f5565b9050919050565b61093081610915565b811461093b57600080fd5b50565b60008135905061094d81610927565b92915050565b60006020828403121561096957610968610888565b5b60006109778482850161093e565b91505092915050565b60008115159050919050565b61099581610980565b82525050565b60006020820190506109b0600083018461098c565b92915050565b6109bf81610892565b82525050565b6109ce81610915565b82525050565b600060a0820190506109e960008301886109b6565b6109f660208301876109b6565b610a0360408301866109b6565b610a1060608301856109b6565b610a1d60808301846109c5565b9695505050505050565b6000602082019050610a3c60008301846109c5565b92915050565b600081519050919050565b600082825260208201905092915050565b60005b83811015610a7c578082015181840152602081019050610a61565b83811115610a8b576000848401525b50505050565b6000601f19601f8301169050919050565b6000610aad82610a42565b610ab78185610a4d565b9350610ac7818560208601610a5e565b610ad081610a91565b840191505092915050565b6000610ae6826108f5565b9050919050565b610af681610adb565b82525050565b600060a0820190508181036000830152610b168188610aa2565b9050610b2560208301876109b6565b610b326040830186610aed565b610b3f606083018561098c565b610b4c60808301846109b6565b9695505050505050565b6000602082019050610b6b60008301846109b6565b92915050565b600080fd5b600080fd5b7f4e487b7100000000000000000000000000000000000000000000000000000000600052604160045260246000fd5b610bb382610a91565b810181811067ffffffffffffffff82111715610bd257610bd1610b7b565b5b80604052505050565b6000610be561087e565b9050610bf18282610baa565b919050565b600067ffffffffffffffff821115610c1157610c10610b7b565b5b610c1a82610a91565b9050602081019050919050565b82818337600083830152505050565b6000610c49610c4484610bf6565b610bdb565b905082815260208101848484011115610c6557610c64610b76565b5b610c70848285610c27565b509392505050565b600082601f830112610c8d57610c8c610b71565b5b8135610c9d848260208601610c36565b91505092915050565b610caf81610adb565b8114610cba57600080fd5b50565b600081359050610ccc81610ca6565b92915050565b600080600060608486031215610ceb57610cea610888565b5b600084013567ffffffffffffffff811115610d0957610d0861088d565b5b610d1586828701610c78565b9350506020610d26868287016108b3565b9250506040610d3786828701610cbd565b9150509250925092565b7f4e487b7100000000000000000000000000000000000000000000000000000000600052601260045260246000fd5b7f4e487b7100000000000000000000000000000000000000000000000000000000600052601160045260246000fd5b6000610daa82610892565b9150610db583610892565b925082610dc557610dc4610d41565b5b828204905092915050565b7f4e487b7100000000000000000000000000000000000000000000000000000000600052602260045260246000fd5b60006002820490506001821680610e1757607f821691505b602082108103610e2a57610e29610dd0565b5b50919050565b6000610e3b82610892565b91507fffffffffffffffffffffffffffffffffffffffffffffffffffffffffffffffff8203610e6d57610e6c610d70565b5b60018201905091905056fea26469706673582212202f483127213c9fdec4ac51c5af0b071d083155406b6ee86523856c0b696dcb6b64736f6c634300080d0033","opcodes":"PUSH1 0x80 PUSH1 0x40 MSTORE CALLVALUE DUP1 ISZERO PUSH3 0x11 JUMPI PUSH1 0x0 DUP1 REVERT JUMPDEST POP PUSH1 0x40 MLOAD PUSH3 0x1031 CODESIZE SUB DUP1 PUSH3 0x1031 DUP4 CODECOPY DUP2 DUP2 ADD PUSH1 0x40 MSTORE DUP2 ADD SWAP1 PUSH3 0x37 SWAP2 SWAP1 PUSH3 0x12C JUMP JUMPDEST DUP1 PUSH1 0x2 PUSH1 0x0 PUSH2 0x100 EXP DUP2 SLOAD DUP2 PUSH20 0xFFFFFFFFFFFFFFFFFFFFFFFFFFFFFFFFFFFFFFFF MUL NOT AND SWAP1 DUP4 PUSH20 0xFFFFFFFFFFFFFFFFFFFFFFFFFFFFFFFFFFFFFFFF AND MUL OR SWAP1 SSTORE POP DUP2 PUSH1 0x3 DUP2 SWAP1 SSTORE POP POP POP PUSH3 0x173 JUMP JUMPDEST PUSH1 0x0 DUP1 REVERT JUMPDEST PUSH1 0x0 DUP2 SWAP1 POP SWAP2 SWAP1 POP JUMP JUMPDEST PUSH3 0xA1 DUP2 PUSH3 0x8C JUMP JUMPDEST DUP2 EQ PUSH3 0xAD JUMPI PUSH1 0x0 DUP1 REVERT JUMPDEST POP JUMP JUMPDEST PUSH1 0x0 DUP2 MLOAD SWAP1 POP PUSH3 0xC1 DUP2 PUSH3 0x96 JUMP JUMPDEST SWAP3 SWAP2 POP POP JUMP JUMPDEST PUSH1 0x0 PUSH20 0xFFFFFFFFFFFFFFFFFFFFFFFFFFFFFFFFFFFFFFFF DUP3 AND SWAP1 POP SWAP2 SWAP1 POP JUMP JUMPDEST PUSH1 0x0 PUSH3 0xF4 DUP3 PUSH3 0xC7 JUMP JUMPDEST SWAP1 POP SWAP2 SWAP1 POP JUMP JUMPDEST PUSH3 0x106 DUP2 PUSH3 0xE7 JUMP JUMPDEST DUP2 EQ PUSH3 0x112 JUMPI PUSH1 0x0 DUP1 REVERT JUMPDEST POP JUMP JUMPDEST PUSH1 0x0 DUP2 MLOAD SWAP1 POP PUSH3 0x126 DUP2 PUSH3 0xFB JUMP JUMPDEST SWAP3 SWAP2 POP POP JUMP JUMPDEST PUSH1 0x0 DUP1 PUSH1 0x40 DUP4 DUP6 SUB SLT ISZERO PUSH3 0x146 JUMPI PUSH3 0x145 PUSH3 0x87 JUMP JUMPDEST JUMPDEST PUSH1 0x0 PUSH3 0x156 DUP6 DUP3 DUP7 ADD PUSH3 0xB0 JUMP JUMPDEST SWAP3 POP POP PUSH1 0x20 PUSH3 0x169 DUP6 DUP3 DUP7 ADD PUSH3 0x115 JUMP JUMPDEST SWAP2 POP POP SWAP3 POP SWAP3 SWAP1 POP JUMP JUMPDEST PUSH2 0xEAE DUP1 PUSH3 0x183 PUSH1 0x0 CODECOPY PUSH1 0x0 RETURN INVALID PUSH1 0x80 PUSH1 0x40 MSTORE PUSH1 0x4 CALLDATASIZE LT PUSH2 0x91 JUMPI PUSH1 0x0 CALLDATALOAD PUSH1 0xE0 SHR DUP1 PUSH4 0x82FDE093 GT PUSH2 0x59 JUMPI DUP1 PUSH4 0x82FDE093 EQ PUSH2 0x197 JUMPI DUP1 PUSH4 0x8A9CFD55 EQ PUSH2 0x1C2 JUMPI DUP1 PUSH4 0x937E09B1 EQ PUSH2 0x1EB JUMPI DUP1 PUSH4 0xD7BB99BA EQ PUSH2 0x216 JUMPI DUP1 PUSH4 0xD7D1BBDB EQ PUSH2 0x220 JUMPI PUSH2 0x91 JUMP JUMPDEST DUP1 PUSH4 0x3441006 EQ PUSH2 0x96 JUMPI DUP1 PUSH4 0xA144391 EQ PUSH2 0xBF JUMPI DUP1 PUSH4 0x4051DDAC EQ PUSH2 0xFC JUMPI DUP1 PUSH4 0x481C6A75 EQ PUSH2 0x12B JUMPI DUP1 PUSH4 0x81D12C58 EQ PUSH2 0x156 JUMPI JUMPDEST PUSH1 0x0 DUP1 REVERT JUMPDEST CALLVALUE DUP1 ISZERO PUSH2 0xA2 JUMPI PUSH1 0x0 DUP1 REVERT JUMPDEST POP PUSH2 0xBD PUSH1 0x4 DUP1 CALLDATASIZE SUB DUP2 ADD SWAP1 PUSH2 0xB8 SWAP2 SWAP1 PUSH2 0x8C8 JUMP JUMPDEST PUSH2 0x249 JUMP JUMPDEST STOP JUMPDEST CALLVALUE DUP1 ISZERO PUSH2 0xCB JUMPI PUSH1 0x0 DUP1 REVERT JUMPDEST POP PUSH2 0xE6 PUSH1 0x4 DUP1 CALLDATASIZE SUB DUP2 ADD SWAP1 PUSH2 0xE1 SWAP2 SWAP1 PUSH2 0x953 JUMP JUMPDEST PUSH2 0x383 JUMP JUMPDEST PUSH1 0x40 MLOAD PUSH2 0xF3 SWAP2 SWAP1 PUSH2 0x99B JUMP JUMPDEST PUSH1 0x40 MLOAD DUP1 SWAP2 SUB SWAP1 RETURN JUMPDEST CALLVALUE DUP1 ISZERO PUSH2 0x108 JUMPI PUSH1 0x0 DUP1 REVERT JUMPDEST POP PUSH2 0x111 PUSH2 0x3A3 JUMP JUMPDEST PUSH1 0x40 MLOAD PUSH2 0x122 SWAP6 SWAP5 SWAP4 SWAP3 SWAP2 SWAP1 PUSH2 0x9D4 JUMP JUMPDEST PUSH1 0x40 MLOAD DUP1 SWAP2 SUB SWAP1 RETURN JUMPDEST CALLVALUE DUP1 ISZERO PUSH2 0x137 JUMPI PUSH1 0x0 DUP1 REVERT JUMPDEST POP PUSH2 0x140 PUSH2 0x3E9 JUMP JUMPDEST PUSH1 0x40 MLOAD PUSH2 0x14D SWAP2 SWAP1 PUSH2 0xA27 JUMP JUMPDEST PUSH1 0x40 MLOAD DUP1 SWAP2 SUB SWAP1 RETURN JUMPDEST CALLVALUE DUP1 ISZERO PUSH2 0x162 JUMPI PUSH1 0x0 DUP1 REVERT JUMPDEST POP PUSH2 0x17D PUSH1 0x4 DUP1 CALLDATASIZE SUB DUP2 ADD SWAP1 PUSH2 0x178 SWAP2 SWAP1 PUSH2 0x8C8 JUMP JUMPDEST PUSH2 0x40F JUMP JUMPDEST PUSH1 0x40 MLOAD PUSH2 0x18E SWAP6 SWAP5 SWAP4 SWAP3 SWAP2 SWAP1 PUSH2 0xAFC JUMP JUMPDEST PUSH1 0x40 MLOAD DUP1 SWAP2 SUB SWAP1 RETURN JUMPDEST CALLVALUE DUP1 ISZERO PUSH2 0x1A3 JUMPI PUSH1 0x0 DUP1 REVERT JUMPDEST POP PUSH2 0x1AC PUSH2 0x4FA JUMP JUMPDEST PUSH1 0x40 MLOAD PUSH2 0x1B9 SWAP2 SWAP1 PUSH2 0xB56 JUMP JUMPDEST PUSH1 0x40 MLOAD DUP1 SWAP2 SUB SWAP1 RETURN JUMPDEST CALLVALUE DUP1 ISZERO PUSH2 0x1CE JUMPI PUSH1 0x0 DUP1 REVERT JUMPDEST POP PUSH2 0x1E9 PUSH1 0x4 DUP1 CALLDATASIZE SUB DUP2 ADD SWAP1 PUSH2 0x1E4 SWAP2 SWAP1 PUSH2 0xCD2 JUMP JUMPDEST PUSH2 0x500 JUMP JUMPDEST STOP JUMPDEST CALLVALUE DUP1 ISZERO PUSH2 0x1F7 JUMPI PUSH1 0x0 DUP1 REVERT JUMPDEST POP PUSH2 0x200 PUSH2 0x618 JUMP JUMPDEST PUSH1 0x40 MLOAD PUSH2 0x20D SWAP2 SWAP1 PUSH2 0xB56 JUMP JUMPDEST PUSH1 0x40 MLOAD DUP1 SWAP2 SUB SWAP1 RETURN JUMPDEST PUSH2 0x21E PUSH2 0x61E JUMP JUMPDEST STOP JUMPDEST CALLVALUE DUP1 ISZERO PUSH2 0x22C JUMPI PUSH1 0x0 DUP1 REVERT JUMPDEST POP PUSH2 0x247 PUSH1 0x4 DUP1 CALLDATASIZE SUB DUP2 ADD SWAP1 PUSH2 0x242 SWAP2 SWAP1 PUSH2 0x8C8 JUMP JUMPDEST PUSH2 0x69E JUMP JUMPDEST STOP JUMPDEST PUSH1 0x2 PUSH1 0x0 SWAP1 SLOAD SWAP1 PUSH2 0x100 EXP SWAP1 DIV PUSH20 0xFFFFFFFFFFFFFFFFFFFFFFFFFFFFFFFFFFFFFFFF AND PUSH20 0xFFFFFFFFFFFFFFFFFFFFFFFFFFFFFFFFFFFFFFFF AND CALLER PUSH20 0xFFFFFFFFFFFFFFFFFFFFFFFFFFFFFFFFFFFFFFFF AND EQ PUSH2 0x2A3 JUMPI PUSH1 0x0 DUP1 REVERT JUMPDEST PUSH1 0x0 DUP1 PUSH1 0x0 DUP4 DUP2 MSTORE PUSH1 0x20 ADD SWAP1 DUP2 MSTORE PUSH1 0x20 ADD PUSH1 0x0 KECCAK256 SWAP1 POP PUSH1 0x2 PUSH1 0x5 SLOAD PUSH2 0x2C8 SWAP2 SWAP1 PUSH2 0xD9F JUMP JUMPDEST DUP2 PUSH1 0x3 ADD SLOAD GT PUSH2 0x2D7 JUMPI PUSH1 0x0 DUP1 REVERT JUMPDEST DUP1 PUSH1 0x2 ADD PUSH1 0x14 SWAP1 SLOAD SWAP1 PUSH2 0x100 EXP SWAP1 DIV PUSH1 0xFF AND ISZERO PUSH2 0x2F3 JUMPI PUSH1 0x0 DUP1 REVERT JUMPDEST DUP1 PUSH1 0x2 ADD PUSH1 0x0 SWAP1 SLOAD SWAP1 PUSH2 0x100 EXP SWAP1 DIV PUSH20 0xFFFFFFFFFFFFFFFFFFFFFFFFFFFFFFFFFFFFFFFF AND PUSH20 0xFFFFFFFFFFFFFFFFFFFFFFFFFFFFFFFFFFFFFFFF AND PUSH2 0x8FC DUP3 PUSH1 0x1 ADD SLOAD SWAP1 DUP2 ISZERO MUL SWAP1 PUSH1 0x40 MLOAD PUSH1 0x0 PUSH1 0x40 MLOAD DUP1 DUP4 SUB DUP2 DUP6 DUP9 DUP9 CALL SWAP4 POP POP POP POP ISZERO DUP1 ISZERO PUSH2 0x361 JUMPI RETURNDATASIZE PUSH1 0x0 DUP1 RETURNDATACOPY RETURNDATASIZE PUSH1 0x0 REVERT JUMPDEST POP PUSH1 0x1 DUP2 PUSH1 0x2 ADD PUSH1 0x14 PUSH2 0x100 EXP DUP2 SLOAD DUP2 PUSH1 0xFF MUL NOT AND SWAP1 DUP4 ISZERO ISZERO MUL OR SWAP1 SSTORE POP POP POP JUMP JUMPDEST PUSH1 0x4 PUSH1 0x20 MSTORE DUP1 PUSH1 0x0 MSTORE PUSH1 0x40 PUSH1 0x0 KECCAK256 PUSH1 0x0 SWAP2 POP SLOAD SWAP1 PUSH2 0x100 EXP SWAP1 DIV PUSH1 0xFF AND DUP2 JUMP JUMPDEST PUSH1 0x0 DUP1 PUSH1 0x0 DUP1 PUSH1 0x0 PUSH1 0x3 SLOAD SELFBALANCE PUSH1 0x5 SLOAD PUSH1 0x1 SLOAD PUSH1 0x2 PUSH1 0x0 SWAP1 SLOAD SWAP1 PUSH2 0x100 EXP SWAP1 DIV PUSH20 0xFFFFFFFFFFFFFFFFFFFFFFFFFFFFFFFFFFFFFFFF AND SWAP5 POP SWAP5 POP SWAP5 POP SWAP5 POP SWAP5 POP SWAP1 SWAP2 SWAP3 SWAP4 SWAP5 JUMP JUMPDEST PUSH1 0x2 PUSH1 0x0 SWAP1 SLOAD SWAP1 PUSH2 0x100 EXP SWAP1 DIV PUSH20 0xFFFFFFFFFFFFFFFFFFFFFFFFFFFFFFFFFFFFFFFF AND DUP2 JUMP JUMPDEST PUSH1 0x0 PUSH1 0x20 MSTORE DUP1 PUSH1 0x0 MSTORE PUSH1 0x40 PUSH1 0x0 KECCAK256 PUSH1 0x0 SWAP2 POP SWAP1 POP DUP1 PUSH1 0x0 ADD DUP1 SLOAD PUSH2 0x432 SWAP1 PUSH2 0xDFF JUMP JUMPDEST DUP1 PUSH1 0x1F ADD PUSH1 0x20 DUP1 SWAP2 DIV MUL PUSH1 0x20 ADD PUSH1 0x40 MLOAD SWAP1 DUP2 ADD PUSH1 0x40 MSTORE DUP1 SWAP3 SWAP2 SWAP1 DUP2 DUP2 MSTORE PUSH1 0x20 ADD DUP3 DUP1 SLOAD PUSH2 0x45E SWAP1 PUSH2 0xDFF JUMP JUMPDEST DUP1 ISZERO PUSH2 0x4AB JUMPI DUP1 PUSH1 0x1F LT PUSH2 0x480 JUMPI PUSH2 0x100 DUP1 DUP4 SLOAD DIV MUL DUP4 MSTORE SWAP2 PUSH1 0x20 ADD SWAP2 PUSH2 0x4AB JUMP JUMPDEST DUP3 ADD SWAP2 SWAP1 PUSH1 0x0 MSTORE PUSH1 0x20 PUSH1 0x0 KECCAK256 SWAP1 JUMPDEST DUP2 SLOAD DUP2 MSTORE SWAP1 PUSH1 0x1 ADD SWAP1 PUSH1 0x20 ADD DUP1 DUP4 GT PUSH2 0x48E JUMPI DUP3 SWAP1 SUB PUSH1 0x1F AND DUP3 ADD SWAP2 JUMPDEST POP POP POP POP POP SWAP1 DUP1 PUSH1 0x1 ADD SLOAD SWAP1 DUP1 PUSH1 0x2 ADD PUSH1 0x0 SWAP1 SLOAD SWAP1 PUSH2 0x100 EXP SWAP1 DIV PUSH20 0xFFFFFFFFFFFFFFFFFFFFFFFFFFFFFFFFFFFFFFFF AND SWAP1 DUP1 PUSH1 0x2 ADD PUSH1 0x14 SWAP1 SLOAD SWAP1 PUSH2 0x100 EXP SWAP1 DIV PUSH1 0xFF AND SWAP1 DUP1 PUSH1 0x3 ADD SLOAD SWAP1 POP DUP6 JUMP JUMPDEST PUSH1 0x5 SLOAD DUP2 JUMP JUMPDEST PUSH1 0x2 PUSH1 0x0 SWAP1 SLOAD SWAP1 PUSH2 0x100 EXP SWAP1 DIV PUSH20 0xFFFFFFFFFFFFFFFFFFFFFFFFFFFFFFFFFFFFFFFF AND PUSH20 0xFFFFFFFFFFFFFFFFFFFFFFFFFFFFFFFFFFFFFFFF AND CALLER PUSH20 0xFFFFFFFFFFFFFFFFFFFFFFFFFFFFFFFFFFFFFFFF AND EQ PUSH2 0x55A JUMPI PUSH1 0x0 DUP1 REVERT JUMPDEST PUSH1 0x0 DUP1 PUSH1 0x0 PUSH1 0x1 PUSH1 0x0 DUP2 SLOAD DUP1 SWAP3 SWAP2 SWAP1 PUSH2 0x572 SWAP1 PUSH2 0xE30 JUMP JUMPDEST SWAP2 SWAP1 POP SSTORE DUP2 MSTORE PUSH1 0x20 ADD SWAP1 DUP2 MSTORE PUSH1 0x20 ADD PUSH1 0x0 KECCAK256 SWAP1 POP DUP4 DUP2 PUSH1 0x0 ADD SWAP1 DUP1 MLOAD SWAP1 PUSH1 0x20 ADD SWAP1 PUSH2 0x59E SWAP3 SWAP2 SWAP1 PUSH2 0x7DB JUMP JUMPDEST POP DUP3 DUP2 PUSH1 0x1 ADD DUP2 SWAP1 SSTORE POP DUP2 DUP2 PUSH1 0x2 ADD PUSH1 0x0 PUSH2 0x100 EXP DUP2 SLOAD DUP2 PUSH20 0xFFFFFFFFFFFFFFFFFFFFFFFFFFFFFFFFFFFFFFFF MUL NOT AND SWAP1 DUP4 PUSH20 0xFFFFFFFFFFFFFFFFFFFFFFFFFFFFFFFFFFFFFFFF AND MUL OR SWAP1 SSTORE POP PUSH1 0x0 DUP2 PUSH1 0x2 ADD PUSH1 0x14 PUSH2 0x100 EXP DUP2 SLOAD DUP2 PUSH1 0xFF MUL NOT AND SWAP1 DUP4 ISZERO ISZERO MUL OR SWAP1 SSTORE POP PUSH1 0x0 DUP2 PUSH1 0x3 ADD DUP2 SWAP1 SSTORE POP POP POP POP POP JUMP JUMPDEST PUSH1 0x3 SLOAD DUP2 JUMP JUMPDEST PUSH1 0x3 SLOAD CALLVALUE GT PUSH2 0x62C JUMPI PUSH1 0x0 DUP1 REVERT JUMPDEST PUSH1 0x1 PUSH1 0x4 PUSH1 0x0 CALLER PUSH20 0xFFFFFFFFFFFFFFFFFFFFFFFFFFFFFFFFFFFFFFFF AND PUSH20 0xFFFFFFFFFFFFFFFFFFFFFFFFFFFFFFFFFFFFFFFF AND DUP2 MSTORE PUSH1 0x20 ADD SWAP1 DUP2 MSTORE PUSH1 0x20 ADD PUSH1 0x0 KECCAK256 PUSH1 0x0 PUSH2 0x100 EXP DUP2 SLOAD DUP2 PUSH1 0xFF MUL NOT AND SWAP1 DUP4 ISZERO ISZERO MUL OR SWAP1 SSTORE POP PUSH1 0x5 PUSH1 0x0 DUP2 SLOAD DUP1 SWAP3 SWAP2 SWAP1 PUSH2 0x697 SWAP1 PUSH2 0xE30 JUMP JUMPDEST SWAP2 SWAP1 POP SSTORE POP JUMP JUMPDEST PUSH1 0x0 DUP1 PUSH1 0x0 DUP4 DUP2 MSTORE PUSH1 0x20 ADD SWAP1 DUP2 MSTORE PUSH1 0x20 ADD PUSH1 0x0 KECCAK256 SWAP1 POP PUSH1 0x4 PUSH1 0x0 CALLER PUSH20 0xFFFFFFFFFFFFFFFFFFFFFFFFFFFFFFFFFFFFFFFF AND PUSH20 0xFFFFFFFFFFFFFFFFFFFFFFFFFFFFFFFFFFFFFFFF AND DUP2 MSTORE PUSH1 0x20 ADD SWAP1 DUP2 MSTORE PUSH1 0x20 ADD PUSH1 0x0 KECCAK256 PUSH1 0x0 SWAP1 SLOAD SWAP1 PUSH2 0x100 EXP SWAP1 DIV PUSH1 0xFF AND PUSH2 0x70A JUMPI PUSH1 0x0 DUP1 REVERT JUMPDEST DUP1 PUSH1 0x4 ADD PUSH1 0x0 CALLER PUSH20 0xFFFFFFFFFFFFFFFFFFFFFFFFFFFFFFFFFFFFFFFF AND PUSH20 0xFFFFFFFFFFFFFFFFFFFFFFFFFFFFFFFFFFFFFFFF AND DUP2 MSTORE PUSH1 0x20 ADD SWAP1 DUP2 MSTORE PUSH1 0x20 ADD PUSH1 0x0 KECCAK256 PUSH1 0x0 SWAP1 SLOAD SWAP1 PUSH2 0x100 EXP SWAP1 DIV PUSH1 0xFF AND ISZERO PUSH2 0x763 JUMPI PUSH1 0x0 DUP1 REVERT JUMPDEST PUSH1 0x1 DUP2 PUSH1 0x4 ADD PUSH1 0x0 CALLER PUSH20 0xFFFFFFFFFFFFFFFFFFFFFFFFFFFFFFFFFFFFFFFF AND PUSH20 0xFFFFFFFFFFFFFFFFFFFFFFFFFFFFFFFFFFFFFFFF AND DUP2 MSTORE PUSH1 0x20 ADD SWAP1 DUP2 MSTORE PUSH1 0x20 ADD PUSH1 0x0 KECCAK256 PUSH1 0x0 PUSH2 0x100 EXP DUP2 SLOAD DUP2 PUSH1 0xFF MUL NOT AND SWAP1 DUP4 ISZERO ISZERO MUL OR SWAP1 SSTORE POP DUP1 PUSH1 0x3 ADD PUSH1 0x0 DUP2 SLOAD DUP1 SWAP3 SWAP2 SWAP1 PUSH2 0x7D2 SWAP1 PUSH2 0xE30 JUMP JUMPDEST SWAP2 SWAP1 POP SSTORE POP POP POP JUMP JUMPDEST DUP3 DUP1 SLOAD PUSH2 0x7E7 SWAP1 PUSH2 0xDFF JUMP JUMPDEST SWAP1 PUSH1 0x0 MSTORE PUSH1 0x20 PUSH1 0x0 KECCAK256 SWAP1 PUSH1 0x1F ADD PUSH1 0x20 SWAP1 DIV DUP2 ADD SWAP3 DUP3 PUSH2 0x809 JUMPI PUSH1 0x0 DUP6 SSTORE PUSH2 0x850 JUMP JUMPDEST DUP3 PUSH1 0x1F LT PUSH2 0x822 JUMPI DUP1 MLOAD PUSH1 0xFF NOT AND DUP4 DUP1 ADD OR DUP6 SSTORE PUSH2 0x850 JUMP JUMPDEST DUP3 DUP1 ADD PUSH1 0x1 ADD DUP6 SSTORE DUP3 ISZERO PUSH2 0x850 JUMPI SWAP2 DUP3 ADD JUMPDEST DUP3 DUP2 GT ISZERO PUSH2 0x84F JUMPI DUP3 MLOAD DUP3 SSTORE SWAP2 PUSH1 0x20 ADD SWAP2 SWAP1 PUSH1 0x1 ADD SWAP1 PUSH2 0x834 JUMP JUMPDEST JUMPDEST POP SWAP1 POP PUSH2 0x85D SWAP2 SWAP1 PUSH2 0x861 JUMP JUMPDEST POP SWAP1 JUMP JUMPDEST JUMPDEST DUP1 DUP3 GT ISZERO PUSH2 0x87A JUMPI PUSH1 0x0 DUP2 PUSH1 0x0 SWAP1 SSTORE POP PUSH1 0x1 ADD PUSH2 0x862 JUMP JUMPDEST POP SWAP1 JUMP JUMPDEST PUSH1 0x0 PUSH1 0x40 MLOAD SWAP1 POP SWAP1 JUMP JUMPDEST PUSH1 0x0 DUP1 REVERT JUMPDEST PUSH1 0x0 DUP1 REVERT JUMPDEST PUSH1 0x0 DUP2 SWAP1 POP SWAP2 SWAP1 POP JUMP JUMPDEST PUSH2 0x8A5 DUP2 PUSH2 0x892 JUMP JUMPDEST DUP2 EQ PUSH2 0x8B0 JUMPI PUSH1 0x0 DUP1 REVERT JUMPDEST POP JUMP JUMPDEST PUSH1 0x0 DUP2 CALLDATALOAD SWAP1 POP PUSH2 0x8C2 DUP2 PUSH2 0x89C JUMP JUMPDEST SWAP3 SWAP2 POP POP JUMP JUMPDEST PUSH1 0x0 PUSH1 0x20 DUP3 DUP5 SUB SLT ISZERO PUSH2 0x8DE JUMPI PUSH2 0x8DD PUSH2 0x888 JUMP JUMPDEST JUMPDEST PUSH1 0x0 PUSH2 0x8EC DUP5 DUP3 DUP6 ADD PUSH2 0x8B3 JUMP JUMPDEST SWAP2 POP POP SWAP3 SWAP2 POP POP JUMP JUMPDEST PUSH1 0x0 PUSH20 0xFFFFFFFFFFFFFFFFFFFFFFFFFFFFFFFFFFFFFFFF DUP3 AND SWAP1 POP SWAP2 SWAP1 POP JUMP JUMPDEST PUSH1 0x0 PUSH2 0x920 DUP3 PUSH2 0x8F5 JUMP JUMPDEST SWAP1 POP SWAP2 SWAP1 POP JUMP JUMPDEST PUSH2 0x930 DUP2 PUSH2 0x915 JUMP JUMPDEST DUP2 EQ PUSH2 0x93B JUMPI PUSH1 0x0 DUP1 REVERT JUMPDEST POP JUMP JUMPDEST PUSH1 0x0 DUP2 CALLDATALOAD SWAP1 POP PUSH2 0x94D DUP2 PUSH2 0x927 JUMP JUMPDEST SWAP3 SWAP2 POP POP JUMP JUMPDEST PUSH1 0x0 PUSH1 0x20 DUP3 DUP5 SUB SLT ISZERO PUSH2 0x969 JUMPI PUSH2 0x968 PUSH2 0x888 JUMP JUMPDEST JUMPDEST PUSH1 0x0 PUSH2 0x977 DUP5 DUP3 DUP6 ADD PUSH2 0x93E JUMP JUMPDEST SWAP2 POP POP SWAP3 SWAP2 POP POP JUMP JUMPDEST PUSH1 0x0 DUP2 ISZERO ISZERO SWAP1 POP SWAP2 SWAP1 POP JUMP JUMPDEST PUSH2 0x995 DUP2 PUSH2 0x980 JUMP JUMPDEST DUP3 MSTORE POP POP JUMP JUMPDEST PUSH1 0x0 PUSH1 0x20 DUP3 ADD SWAP1 POP PUSH2 0x9B0 PUSH1 0x0 DUP4 ADD DUP5 PUSH2 0x98C JUMP JUMPDEST SWAP3 SWAP2 POP POP JUMP JUMPDEST PUSH2 0x9BF DUP2 PUSH2 0x892 JUMP JUMPDEST DUP3 MSTORE POP POP JUMP JUMPDEST PUSH2 0x9CE DUP2 PUSH2 0x915 JUMP JUMPDEST DUP3 MSTORE POP POP JUMP JUMPDEST PUSH1 0x0 PUSH1 0xA0 DUP3 ADD SWAP1 POP PUSH2 0x9E9 PUSH1 0x0 DUP4 ADD DUP9 PUSH2 0x9B6 JUMP JUMPDEST PUSH2 0x9F6 PUSH1 0x20 DUP4 ADD DUP8 PUSH2 0x9B6 JUMP JUMPDEST PUSH2 0xA03 PUSH1 0x40 DUP4 ADD DUP7 PUSH2 0x9B6 JUMP JUMPDEST PUSH2 0xA10 PUSH1 0x60 DUP4 ADD DUP6 PUSH2 0x9B6 JUMP JUMPDEST PUSH2 0xA1D PUSH1 0x80 DUP4 ADD DUP5 PUSH2 0x9C5 JUMP JUMPDEST SWAP7 SWAP6 POP POP POP POP POP POP JUMP JUMPDEST PUSH1 0x0 PUSH1 0x20 DUP3 ADD SWAP1 POP PUSH2 0xA3C PUSH1 0x0 DUP4 ADD DUP5 PUSH2 0x9C5 JUMP JUMPDEST SWAP3 SWAP2 POP POP JUMP JUMPDEST PUSH1 0x0 DUP2 MLOAD SWAP1 POP SWAP2 SWAP1 POP JUMP JUMPDEST PUSH1 0x0 DUP3 DUP3 MSTORE PUSH1 0x20 DUP3 ADD SWAP1 POP SWAP3 SWAP2 POP POP JUMP JUMPDEST PUSH1 0x0 JUMPDEST DUP4 DUP2 LT ISZERO PUSH2 0xA7C JUMPI DUP1 DUP3 ADD MLOAD DUP2 DUP5 ADD MSTORE PUSH1 0x20 DUP2 ADD SWAP1 POP PUSH2 0xA61 JUMP JUMPDEST DUP4 DUP2 GT ISZERO PUSH2 0xA8B JUMPI PUSH1 0x0 DUP5 DUP5 ADD MSTORE JUMPDEST POP POP POP POP JUMP JUMPDEST PUSH1 0x0 PUSH1 0x1F NOT PUSH1 0x1F DUP4 ADD AND SWAP1 POP SWAP2 SWAP1 POP JUMP JUMPDEST PUSH1 0x0 PUSH2 0xAAD DUP3 PUSH2 0xA42 JUMP JUMPDEST PUSH2 0xAB7 DUP2 DUP6 PUSH2 0xA4D JUMP JUMPDEST SWAP4 POP PUSH2 0xAC7 DUP2 DUP6 PUSH1 0x20 DUP7 ADD PUSH2 0xA5E JUMP JUMPDEST PUSH2 0xAD0 DUP2 PUSH2 0xA91 JUMP JUMPDEST DUP5 ADD SWAP2 POP POP SWAP3 SWAP2 POP POP JUMP JUMPDEST PUSH1 0x0 PUSH2 0xAE6 DUP3 PUSH2 0x8F5 JUMP JUMPDEST SWAP1 POP SWAP2 SWAP1 POP JUMP JUMPDEST PUSH2 0xAF6 DUP2 PUSH2 0xADB JUMP JUMPDEST DUP3 MSTORE POP POP JUMP JUMPDEST PUSH1 0x0 PUSH1 0xA0 DUP3 ADD SWAP1 POP DUP2 DUP2 SUB PUSH1 0x0 DUP4 ADD MSTORE PUSH2 0xB16 DUP2 DUP9 PUSH2 0xAA2 JUMP JUMPDEST SWAP1 POP PUSH2 0xB25 PUSH1 0x20 DUP4 ADD DUP8 PUSH2 0x9B6 JUMP JUMPDEST PUSH2 0xB32 PUSH1 0x40 DUP4 ADD DUP7 PUSH2 0xAED JUMP JUMPDEST PUSH2 0xB3F PUSH1 0x60 DUP4 ADD DUP6 PUSH2 0x98C JUMP JUMPDEST PUSH2 0xB4C PUSH1 0x80 DUP4 ADD DUP5 PUSH2 0x9B6 JUMP JUMPDEST SWAP7 SWAP6 POP POP POP POP POP POP JUMP JUMPDEST PUSH1 0x0 PUSH1 0x20 DUP3 ADD SWAP1 POP PUSH2 0xB6B PUSH1 0x0 DUP4 ADD DUP5 PUSH2 0x9B6 JUMP JUMPDEST SWAP3 SWAP2 POP POP JUMP JUMPDEST PUSH1 0x0 DUP1 REVERT JUMPDEST PUSH1 0x0 DUP1 REVERT JUMPDEST PUSH32 0x4E487B7100000000000000000000000000000000000000000000000000000000 PUSH1 0x0 MSTORE PUSH1 0x41 PUSH1 0x4 MSTORE PUSH1 0x24 PUSH1 0x0 REVERT JUMPDEST PUSH2 0xBB3 DUP3 PUSH2 0xA91 JUMP JUMPDEST DUP2 ADD DUP2 DUP2 LT PUSH8 0xFFFFFFFFFFFFFFFF DUP3 GT OR ISZERO PUSH2 0xBD2 JUMPI PUSH2 0xBD1 PUSH2 0xB7B JUMP JUMPDEST JUMPDEST DUP1 PUSH1 0x40 MSTORE POP POP POP JUMP JUMPDEST PUSH1 0x0 PUSH2 0xBE5 PUSH2 0x87E JUMP JUMPDEST SWAP1 POP PUSH2 0xBF1 DUP3 DUP3 PUSH2 0xBAA JUMP JUMPDEST SWAP2 SWAP1 POP JUMP JUMPDEST PUSH1 0x0 PUSH8 0xFFFFFFFFFFFFFFFF DUP3 GT ISZERO PUSH2 0xC11 JUMPI PUSH2 0xC10 PUSH2 0xB7B JUMP JUMPDEST JUMPDEST PUSH2 0xC1A DUP3 PUSH2 0xA91 JUMP JUMPDEST SWAP1 POP PUSH1 0x20 DUP2 ADD SWAP1 POP SWAP2 SWAP1 POP JUMP JUMPDEST DUP3 DUP2 DUP4 CALLDATACOPY PUSH1 0x0 DUP4 DUP4 ADD MSTORE POP POP POP JUMP JUMPDEST PUSH1 0x0 PUSH2 0xC49 PUSH2 0xC44 DUP5 PUSH2 0xBF6 JUMP JUMPDEST PUSH2 0xBDB JUMP JUMPDEST SWAP1 POP DUP3 DUP2 MSTORE PUSH1 0x20 DUP2 ADD DUP5 DUP5 DUP5 ADD GT ISZERO PUSH2 0xC65 JUMPI PUSH2 0xC64 PUSH2 0xB76 JUMP JUMPDEST JUMPDEST PUSH2 0xC70 DUP5 DUP3 DUP6 PUSH2 0xC27 JUMP JUMPDEST POP SWAP4 SWAP3 POP POP POP JUMP JUMPDEST PUSH1 0x0 DUP3 PUSH1 0x1F DUP4 ADD SLT PUSH2 0xC8D JUMPI PUSH2 0xC8C PUSH2 0xB71 JUMP JUMPDEST JUMPDEST DUP2 CALLDATALOAD PUSH2 0xC9D DUP5 DUP3 PUSH1 0x20 DUP7 ADD PUSH2 0xC36 JUMP JUMPDEST SWAP2 POP POP SWAP3 SWAP2 POP POP JUMP JUMPDEST PUSH2 0xCAF DUP2 PUSH2 0xADB JUMP JUMPDEST DUP2 EQ PUSH2 0xCBA JUMPI PUSH1 0x0 DUP1 REVERT JUMPDEST POP JUMP JUMPDEST PUSH1 0x0 DUP2 CALLDATALOAD SWAP1 POP PUSH2 0xCCC DUP2 PUSH2 0xCA6 JUMP JUMPDEST SWAP3 SWAP2 POP POP JUMP JUMPDEST PUSH1 0x0 DUP1 PUSH1 0x0 PUSH1 0x60 DUP5 DUP7 SUB SLT ISZERO PUSH2 0xCEB JUMPI PUSH2 0xCEA PUSH2 0x888 JUMP JUMPDEST JUMPDEST PUSH1 0x0 DUP5 ADD CALLDATALOAD PUSH8 0xFFFFFFFFFFFFFFFF DUP2 GT ISZERO PUSH2 0xD09 JUMPI PUSH2 0xD08 PUSH2 0x88D JUMP JUMPDEST JUMPDEST PUSH2 0xD15 DUP7 DUP3 DUP8 ADD PUSH2 0xC78 JUMP JUMPDEST SWAP4 POP POP PUSH1 0x20 PUSH2 0xD26 DUP7 DUP3 DUP8 ADD PUSH2 0x8B3 JUMP JUMPDEST SWAP3 POP POP PUSH1 0x40 PUSH2 0xD37 DUP7 DUP3 DUP8 ADD PUSH2 0xCBD JUMP JUMPDEST SWAP2 POP POP SWAP3 POP SWAP3 POP SWAP3 JUMP JUMPDEST PUSH32 0x4E487B7100000000000000000000000000000000000000000000000000000000 PUSH1 0x0 MSTORE PUSH1 0x12 PUSH1 0x4 MSTORE PUSH1 0x24 PUSH1 0x0 REVERT JUMPDEST PUSH32 0x4E487B7100000000000000000000000000000000000000000000000000000000 PUSH1 0x0 MSTORE PUSH1 0x11 PUSH1 0x4 MSTORE PUSH1 0x24 PUSH1 0x0 REVERT JUMPDEST PUSH1 0x0 PUSH2 0xDAA DUP3 PUSH2 0x892 JUMP JUMPDEST SWAP2 POP PUSH2 0xDB5 DUP4 PUSH2 0x892 JUMP JUMPDEST SWAP3 POP DUP3 PUSH2 0xDC5 JUMPI PUSH2 0xDC4 PUSH2 0xD41 JUMP JUMPDEST JUMPDEST DUP3 DUP3 DIV SWAP1 POP SWAP3 SWAP2 POP POP JUMP JUMPDEST PUSH32 0x4E487B7100000000000000000000000000000000000000000000000000000000 PUSH1 0x0 MSTORE PUSH1 0x22 PUSH1 0x4 MSTORE PUSH1 0x24 PUSH1 0x0 REVERT JUMPDEST PUSH1 0x0 PUSH1 0x2 DUP3 DIV SWAP1 POP PUSH1 0x1 DUP3 AND DUP1 PUSH2 0xE17 JUMPI PUSH1 0x7F DUP3 AND SWAP2 POP JUMPDEST PUSH1 0x20 DUP3 LT DUP2 SUB PUSH2 0xE2A JUMPI PUSH2 0xE29 PUSH2 0xDD0 JUMP JUMPDEST JUMPDEST POP SWAP2 SWAP1 POP JUMP JUMPDEST PUSH1 0x0 PUSH2 0xE3B DUP3 PUSH2 0x892 JUMP JUMPDEST SWAP2 POP PUSH32 0xFFFFFFFFFFFFFFFFFFFFFFFFFFFFFFFFFFFFFFFFFFFFFFFFFFFFFFFFFFFFFFFF DUP3 SUB PUSH2 0xE6D JUMPI PUSH2 0xE6C PUSH2 0xD70 JUMP JUMPDEST JUMPDEST PUSH1 0x1 DUP3 ADD SWAP1 POP SWAP2 SWAP1 POP JUMP INVALID LOG2 PUSH5 0x6970667358 0x22 SLT KECCAK256 0x2F BASEFEE BALANCE 0x27 0x21 EXTCODECOPY SWAP16 0xDE 0xC4 0xAC MLOAD 0xC5 0xAF SIGNEXTEND SMOD SAR ADDMOD BALANCE SSTORE BLOCKHASH PUSH12 0x6EE86523856C0B696DCB6B64 PUSH20 0x6F6C634300080D00330000000000000000000000 "},"gasEstimates":{"creation":{"codeDepositCost":"751600","executionCost":"infinite","totalCost":"infinite"},"external":{"approveRequest(uint256)":"infinite","approvers(address)":"2868","approversCount()":"2429","contribute()":"51021","createRequest(string,uint256,address)":"infinite","finalizeRequest(uint256)":"infinite","getSummary()":"infinite","manager()":"2581","minimumContribution()":"2473","requests(uint256)":"infinite"}},"methodIdentifiers":{"approveRequest(uint256)":"d7d1bbdb","approvers(address)":"0a144391","approversCount()":"82fde093","contribute()":"d7bb99ba","createRequest(string,uint256,address)":"8a9cfd55","finalizeRequest(uint256)":"03441006","getSummary()":"4051ddac","manager()":"481c6a75","minimumContribution()":"937e09b1","requests(uint256)":"81d12c58"}},"storageLayout":{"storage":[{"astId":60,"contract":"Compaign.sol:Compaign","label":"requests","offset":0,"slot":"0","type":"t_mapping(t_uint256,t_struct(Request)55_storage)"},{"astId":62,"contract":"Compaign.sol:Compaign","label":"numRequests","offset":0,"slot":"1","type":"t_uint256"},{"astId":64,"contract":"Compaign.sol:Compaign","label":"manager","offset":0,"slot":"2","type":"t_address"},{"astId":66,"contract":"Compaign.sol:Compaign","label":"minimumContribution","offset":0,"slot":"3","type":"t_uint256"},{"astId":70,"contract":"Compaign.sol:Compaign","label":"approvers","offset":0,"slot":"4","type":"t_mapping(t_address,t_bool)"},{"astId":72,"contract":"Compaign.sol:Compaign","label":"approversCount","offset":0,"slot":"5","type":"t_uint256"}],"types":{"t_address":{"encoding":"inplace","label":"address","numberOfBytes":"20"},"t_address_payable":{"encoding":"inplace","label":"address payable","numberOfBytes":"20"},"t_bool":{"encoding":"inplace","label":"bool","numberOfBytes":"1"},"t_mapping(t_address,t_bool)":{"encoding":"mapping","key":"t_address","label":"mapping(address => bool)","numberOfBytes":"32","value":"t_bool"},"t_mapping(t_uint256,t_struct(Request)55_storage)":{"encoding":"mapping","key":"t_uint256","label":"mapping(uint256 => struct Compaign.Request)","numberOfBytes":"32","value":"t_struct(Request)55_storage"},"t_string_storage":{"encoding":"bytes","label":"string","numberOfBytes":"32"},"t_struct(Request)55_storage":{"encoding":"inplace","label":"struct Compaign.Request","members":[{"astId":42,"contract":"Compaign.sol:Compaign","label":"description","offset":0,"slot":"0","type":"t_string_storage"},{"astId":44,"contract":"Compaign.sol:Compaign","label":"value","offset":0,"slot":"1","type":"t_uint256"},{"astId":46,"contract":"Compaign.sol:Compaign","label":"recipient","offset":0,"slot":"2","type":"t_address_payable"},{"astId":48,"contract":"Compaign.sol:Compaign","label":"complete","offset":20,"slot":"2","type":"t_bool"},{"astId":50,"contract":"Compaign.sol:Compaign","label":"approvalsCount","offset":0,"slot":"3","type":"t_uint256"},{"astId":54,"contract":"Compaign.sol:Compaign","label":"approvals","offset":0,"slot":"4","type":"t_mapping(t_address,t_bool)"}],"numberOfBytes":"160"},"t_uint256":{"encoding":"inplace","label":"uint256","numberOfBytes":"32"}}},"userdoc":{"kind":"user","methods":{},"version":1}}